:1012840048554220302064657620696E0A0048552E
:1012940042203020646576206F75740A00485542F8
:1012A40020312064657620696E0A00485542203159
:1012B40020646576206F75740A002530327820200A
:1012C4000A005345545F504F525420202530325861
:1012D4002020253032582000627574746F6E2020EF
:1012E4002020200A00627574746F6E206D696E2070
:1012F4002530327820202530327820200A0062758B
:1013040074746F6E206D617820253032782020252A
:1013140030327820200A00627574746F6E206C6D10
:10132400696E202530327820202530327820200A3A
:1013340000627574746F6E206C6D61782025303294
:101344007820202530327820200A00627574746F6A
:101354006E20636F75202530327820202530327856
:1013640020200A00253032782020253032782000D1
:101374004D6F7573652E427574746F6E2E53697A52
:10138400655F62697420202530327820200A007855
:10139400787820202530327820202530327820209B
:1013A4000A007979792020253032782020253032BE
:1013B4007820200A00776865656C20202530327813
:1013C40020202530327820200A007878206C6D693E
:1013D4006E20202530327820202530327820200AD3
:1013E400007878206C6D61782020253032782020B8
:1013F4002530327820200A00787820636F75202009
:101404002530327820202530327820200A004D6F94
:101414007573652E585F592E53697A655F626974D6
:1014240020202530327820200A00776865656C20FA
:101434006C6D696E2025303278202025303278207A
:10144400200A00776865656C20206C6D6178202522
:1014540030327820202530327820200A00776865E1
:10146400656C2020636F752025303278202025306C
:10147400327820200A004D6F7573652E57686565B4
:101484006C5F2E53697A655F62697420202530325F
:101494007820200A00526573657420726F6F74207F
:1014A400687562202531642320706F72740A0044C9
:1014B400697361626C6520726F6F74206875622055
:1014C4002531642320706F727420626563617573C3
:1014D40065206F6620646973636F6E6E6563740A5A
:1014E4000047657444657644657363723A200078F6
:1014F4002530325820000A00476574436667446506
:101504007363723A20006869645265706F72744C38
:10151400656E3A25303258200A00476574484944BC
:101524005265706F72743A2000626567696E0A00D2
:10153400253032782020253032782020253032782A
:1015440020200A004765744849445265706F7274DC
:101554003A202530327820005553422D4B6579626C
:101564006F6172642052656164790A005553422D9B
:101574004D6F7573652052656164790A004E6F6E14
:10158400737570706F7274204465760A00496E69D1
:1015940074526F6F7444657620457272203D202525
:1015A4003032580A002530345820646174613A207E
:1015B40000446576206572726F7220253032780A95
:1015C40000446576206E6F20696E74657272757062
:1015D4007420656E64706F696E740A00537461726E
:1015E4007420404368697049443D253032580A00EC
:1015F400576169742044657669636520496E0A0001
:10160400456E756D416C6C526F6F744465762065E0
:101614007272203D20253032580A008006000100F5
:101624000012008006000200000400000502000011
:10163400000000000900000000000002010000009A
:10164400000000A006002900000900810600220015
:101654000049002109000200000100210A000000E5
:10166400000000810600220000FF002109000200A2
:0316740000010072
:042859004100D20068
:04282D007FC87E00E2
:0E283100EF4E600905A1EF1F70F61E80F32226
:10281400CDEFCDCCEECCED4C600E7FE87E031228DC
:0928240031ED1D70F11C80EE2263
:10271700EF75F006A424D3F582E43400F583E4F0E2
:10272700EF75F006A424D4F582E43400F583E4F0D1
:0C273700EFB40104E4F5E522E4F5E4222F
:10213B00E4900068F0E5DB30E3359000D3E0600518
:10214B00E5E420E04AE4FF122717E5DB30E20280EA
:10215B00027F019000D5EFF09000D37401F07BFF6C
:10216B007A1279841216E29000687415F080209030
:10217B0000D3E0C394014017E4FF1227177BFF7ACB
:10218B001279921216E2900068E070037416F0E573
:10219B00DB30E7369000D9E06005E5E520E04B7FCA
:1021AB0001122717E5DB30E6031F80027F01900049
:1021BB00DBEFF09000D97401F07BFF7A1279A1125A
:1021CB0016E29000687415F080209000D9E0C3945B
:1021DB000140177F011227177BFF7A1279AF121676
:0F21EB00E2900068E070037416F0900068E0FF67
:0121FA0022C2
:0C284D00EF547FFFE5E354804FF5E322D9
:0E283F00EF600753E2BF53D27F2243E24022F4
:10267700CEEFCE9000A97408F0E4FF12284DEEB417
:10268700010F43E5027F0F7E0012281453E5FD80FA
:102697000D43E4027F0F7E0012281453E4FD7FFAF6
:0826A7007E00122831C2D82286
:10244C00EF75F006A424D3F582E43400F583E0C3E1
:10245C0094015011EF75F006A424D3F582E43400F6
:10246C00F5837401F0EF64017025E5DB30E745E599
:10247C00E520E015E5DB30E6047F0080027F01906B
:10248C0000DBEFF0700343E50443E5017F0022E538
:10249C00DB30E320E5E420E015E5DB30E2047F00EF
:1024AC0080027F019000D5EFF0700343E40443E415
:0724BC00017F00227F1622C0
:10253400CEEFCEED6038EE75F014A424A6F582E457
:102544003400F58375F005ED121D75E0FF12284D7A
:10255400EE75F014A424A7F582E43400F58375F035
:1025640005ED121D75E0FF702843D2808023EE75BF
:10257400F006A424D4F582E43400F583E0FF1228A5
:102584004DEE75F006A424D5F582E43400F583E01D
:0E259400FF12283FEE6003D38001C3920A229B
:1027E0007FC87E0020D909EF1F70011EEF4E70F4E4
:0927F00030D9047F0080027FFE55
:0127F90022BD
:0B204C00900065EFF0A3EAF0A3EBF0BA
:10205700CFEDCF8FD68FD4E4F5DD900065E0F5D5D1
:10206700C2D97FC87E0020D909EF1F70011EEF4E2D
:1020770070F4E4F5D520D9037FFE2230D832C2D8D8
:1020870012213BEFB41502D209A20AE4339000D320
:1020970075F006121D75E475F006A42583F583E037
:1020A700FE70037F1622EEB401037F152212282D3E
:1020B70030D96730DE037F0022E5D9540FFFB40E15
:1020C700028043EFB40A29900066E0FCA3E0FD4CD0
:1020D7007003EF803EC3ED94FFEC94FF500E900029
:1020E70067E024FFF0900066E034FFF015DD802DF7
:1020F700900065E0C4540F24F7600D24FC600424AD
:102107000C7014EF6017800BEFB40304640B600DC1
:10211700EF600A4420FF227FFE2275D8FF7F907E62
:102127000112283105DDAFDDEFC394035003022010
:03213700617F20A5
:01213A002282
:0A19DC007E017F007B017A00794C48
:1019E600900060EEF0A3EFF0A3EBF0A3EAF0A3E91A
:1019F600F012282D900062E0FBA3E0FAA3E0F9EADA
:101A0600494B6004E4121D6375D7087B107A27E4FE
:101A1600FD7FD012204C90005DEFF06003E0FF22C6
:101A260075D6D075D4D075D701900107E060047FD4
:101A3600FF8005900106E0FF90005EEFF070030264
:101A46001BD6900060E07002A3E07003021BD690E4
:101A56000100E020E703021B0D90005EE070030228
:101A66001B0712282D7B107A27ADD47F9012204CAD
:101A760090005DEFF0E0FF60012290005EE0FFE580
:101A8600D1C39F5007AED1CFEECF800090005FEF5D
:101A9600F090005EE0FFA3E0FEC3EF9E90005EF0D4
:101AA600900062E0FBA3E0FAA3E0F9EA494B600488
:101AB600EE121D4190005FE0FF7E00A3E0FCA3E074
:101AC600F87D017B017A007900121CD590005FE059
:101AD600FF900061E02FF0900060E03400F07BFFA3
:101AE6007A1279BEAFD190006CE4F0A3EFF0121633
:101AF600E2E5D1600C9000A9E01455D17003021AFA
:101B06005FE4F5D7021BD690005EE07003021BD699
:101B160012282D9000A9E0FF90005EE0FEC39F40D2
:101B2600028003CFEECF8FD7AFD77E00900060E064
:101B3600FCA3E0CAECCAF97B0178007C017D0112A6
:101B46001CD5AFD7900061E02FF0900060E0340024
:101B5600F0E0FEA3E0FFF5828E83A3E0640970380F
:101B66009000D2E0640160047D0180027D00900057
:101B7600D2EDF08F828E83F07BFF7A1279C6E0FF7A
:101B860090006CE4F0A3EFF09000D2E0FF90006EBE
:101B9600E4F0A3EFF01216E27B107A27ADD67F10A1
:101BA60012204C90005DEFF0E0FF60012290005E95
:101BB600E0C395D7F0900062E0FBA3E0FAA3E0F95A
:101BC600EA494B7003021B0DE5D7121D41021B0D9E
:101BD60012282DE5D760047F9080027F107B107A53
:101BE600277DC012204C90005DEFF06003E0FF22DD
:0E1BF600E5D77002FF22E5D17002FF227F17B3
:011C040022BD
:10276A00E4FD8F828E83E493FC74002DF582E434B9
:0F277A0001F583ECF00FBF00010E0DEDB408E385
:01278900222D
:10263D009000A97408F07E167F1F12276A7E017F15
:10264D00007B017A00794B1219E6EF6001229001AF
:10265D0007E09000A9F0901625E493FF90004BE061
:09266D00C39F50037F17227F0078
:012676002241
:1024C3007E167F2712276A7E017F007B007A0079C0
:1024D300081219E6EF60012290162DE493FEE50839
:1024E300C39E50037F1722900102E0F508E508D34D
:1024F300944040037F17227E167F2712276A90019C
:1025030006E508F07E017F007B007A007908121946
:10251300E6EF60012290162DE493FFE508C39F4088
:102523000A900102E0FFE5089F50037F17227F0016
:012533002285
:0526AF0090004BEFF06C
:1026B4007E167F2F12276A90004BE0900102F07B78
:1026C400007A007900E4FFFE1219E6EF600122901F
:1026D400004BE0FF12284D7F0A7E001228147F0071
:0126E40022D3
:1027A800CBEFCB7E167F3712276A900102EBF07BC6
:0C27B800007A007900E4FFFE1219E6220E
:1027FA0090004BEFF07E167F5712276A7E007F4BC0
:0A280A007B007A0079001219E62223
:1027C400CBEFCB7E167F3F12276A900104EBF07BA0
:0C27D400007A007900E4FFFE1219E622F2
:0523C60090004BEFF058
:1023CB00784D7C007D017BFF7A16795F7E007F085C
:1023DB00121CD578557C007D017BFF7A1679677EC0
:1023EB00007F08121CD590004BE0900051F0E4FFE9
:1023FB00744D2FF582E43400F583E0FE74002FF565
:10240B0082E43401F583EEF00FEFB408E31219DC2C
:10241B0090004BE0900059F0E4FF74552FF582E4E7
:10242B003400F583E0FE74002FF582E43401F5836C
:10243B00EEF00FEFB408E31219DCEF6001227F001E
:01244B00226E
:1025A200E4F9FC8F828E83A3A3E0FBECC39B50472C
:1025B200EF2CF582E43EF583A3E064057025EF2C51
:1025C200F582E43EF583A3A3A3E05403FBBB03130C
:1025D200EF2CF582E43EF583A3A3E030E705540F28
:1025E200F98014EF2CF582E43EF583E0FDD39410DC
:0A25F2005005ED2CFC80ACCFE9CFC2
:0125FC0022BC
:0E00030090004BEEF0A3EFF0A3ECF0A3EDF0B5
:10001100E4A3F0A3F0A3F090004DE0FEA3E0FFA362
:10002100E0FCA3E0FDC39FEC9E4003020E4C900058
:100031004BE0FEA3E0FF2DF582EE3CF583E020E2EC
:10004100030204C2900050E02401FD90004FE0340F
:1000510000FCEF2DF582EE3CF583E06409600302BC
:1000610004C27BFF7A1279DC1216E2900050E02480
:1000710002F090004FE03400F090004FE0FEA3E06A
:10008100FF90004BE0FCA3E0FD2FF582EC3EF583F1
:10009100E0FF541864187066EFD3941B50607BFF27
:1000A1007A1279E990004FA3E0FF90006CEEF0A383
:1000B100EFF0ED2FF582EC3EF583E0FF90006EE46A
:1000C100F0A3EFF01216E290004FE0FEA3E0FF90E4
:1000D100004BE0FCA3E0FD2FF582EC3EF583E054FC
:1000E10003900052F0D3940140037F03229000500B
:1000F100E004F0700690004FE004F00201819000EE
:100101004FE0FEA3E0FF90004BE0FCA3E0FD2FF5E4
:1001110082EC3EF583E0FF542864287079EFD39494
:100121002B50737BFF7A13790290004FA3E0FF906D
:10013100006CEEF0A3EFF0ED2FF582EC3EF583E0DD
:10014100FF90006EE4F0A3EFF01216E290004FE092
:10015100FEA3E0FF90004BE0FCA3E0FD2FF582EC55
:100161003EF583E05403900052F0D3940140037FA5
:100171000322900050E004F0700690004FE004F07C
:1001810090004FE0FEA3E02DF582EC3EF583E09078
:100191000099F00204B190004FE0FEA3E0FF90004F
:1001A1004BE0FCA3E0FD2FF582EC3EF583E0FF542C
:1001B1001464147079EFD3941750737BFF7A137919
:1001C1001B90004FA3E0FF90006CEEF0A3EFF0ED69
:1001D1002FF582EC3EF583E0FF90006EE4F0A3EF93
:1001E100F01216E290004FE0FEA3E0FF90004BE01A
:1001F100FCA3E0FD2FF582EC3EF583E05403900073
:1002010052F0D3940140037F0322900050E004F0A8
:10021100700690004FE004F090004FE0FEA3E02D47
:10022100F582EC3EF583E090009BF00204B1900072
:100231004FE0FEA3E0FF90004BE0FCA3E0FD2FF5B3
:1002410082EC3EF583E0FF542464247079EFD3946B
:100251002750737BFF7A13793590004FA3E0FF900D
:10026100006CEEF0A3EFF0ED2FF582EC3EF583E0AC
:10027100FF90006EE4F0A3EFF01216E290004FE061
:10028100FEA3E0FF90004BE0FCA3E0FD2FF582EC24
:100291003EF583E05403900052F0D3940140037F74
:1002A1000322900050E004F0700690004FE004F04B
:1002B10090004FE0FEA3E02DF582EC3EF583E09047
:1002C100009CF00204B190004FE0FEA3E0FF90001B
:1002D1004BE0FCA3E0FD2FF582EC3EF583E0FF54FB
:1002E10074FEBE7406EFD39477402290004FE0FE77
:1002F100A3E02DF582EC3EF583E0FF549464946015
:10030100030204B1EFD3949740030204B17BFF7A57
:1003110013794F90004FE0FEA3E0FF90006CEEF0E8
:10032100A3EFF090004BE0FCA3E02FF582EC3EF54B
:1003310083E0FF90006EE4F0A3EFF01216E290006C
:100341004FE0FEA3E0FF90004BE0FAA3E0FB2FF5A6
:1003510082EA3EF583E05403900052F0D3940140C9
:10036100037F0322900050E004F0700690004FE0FC
:1003710004F0900050E02402FF90004FE03400FEB2
:10038100EB2FF582EA3EF583E0FF90004FE0FCA3FE
:10039100E0FD2BF582EA3CF583E0FE8FF0A49000AE
:1003A1009DF07BFF7A137968EEFF90006CE4F0A377
:1003B100EFF0ED2402FFE43CFE90004BE0FCA3E0F3
:1003C1002FF582EC3EF583E0FF90006EE4F0A3EFA1
:1003D100F01216E27BFF7A13797490009DE0FF9092
:1003E100006CE4F0A3EFF01216E290009DE05407D8
:1003F10070030204C2900050E004F0700690004FB8
:10040100E004F090004FE0FEA3E0FF90004BE0FC21
:10041100A3E0FD2FF582EC3EF583E0FF5474FEBEB0
:100421007406EFD39477401C90004FE0FEA3E02DBB
:10043100F582EC3EF583E0FF5494FEBE94B7EFD312
:10044100949750B190004FE0FEA3E0FF90004BE085
:10045100FCA3E02FF582EC3EF583E05403900052BB
:10046100F0D3940140037F0322900050E004F07028
:100471000690004FE004F0900050E02403FF90004C
:100481004FE03400FE90004BE0FCA3E0FD2FF5822D
:10049100EC3EF583E0FF90004FE0FAA3E0FBED2B8B
:1004A100F582EC3AF583E08FF0A490009EF0801184
:1004B100900050E004F0700690004FE004F002005C
:1004C1007A90004FE0FEA3E0FF90004BE0FCA3E038
:1004D100FD2FF582EC3EF583E0640960030209D645
:1004E100EF2401FFE43EFEED2FF582EC3EF583E0C3
:1004F100643060030209D67BFF7A13799390004F31
:10050100E0FEA3E0FF90006CEEF0A3EFF0ED2FF51D
:1005110082EC3EF583E0FF90006EE4F0A3EFF01271
:1005210016E2900050E02402F090004FE03400F019
:10053100E0FEA3E0FF90004BE0FCA3E0FD2FF5827D
:10054100EC3EF583E06409704CEF2401FFE43EFECC
:10055100ED2FF582EC3EF583E0B431397BFF7A1360
:1005610079A690004FE0FEA3E0FF90006CEEF0A3AF
:10057100EFF0ED2FF582EC3EF583E0FF90006EE4A5
:10058100F0A3EFF01216E2900050E02402F0900088
:100591004FE03400F090004FE0FEA3E0FF90004BED
:1005A100E0FCA3E0FD2FF582EC3EF583E0640970E9
:1005B10052EF2401FFE43EFEED2FF582EC3EF58380
:1005C100E0B4383F7BFF7A1379B990004FE0FEA386
:1005D100E0FF90006CEEF0A3EFF0ED2FF582EC3E22
:1005E100F583E0FF90006EE4F0A3EFF01216E290C5
:1005F1000050E02402F090004FE03400F0900051F0
:100601007455F090004FE0FEA3E0FF90004BE0FC3A
:10061100A3E0FD2FF582EC3EF583E0FF5414641452
:1006210060030206CCEFD3941740030206CC7BFF94
:100631007A1379CE90004FA3E0FF90006CEEF0A307
:10064100EFF0ED2FF582EC3EF583E0FF90006EE4D4
:10065100F0A3EFF01216E290004FE0FEA3E0FF904E
:10066100004BE0FCA3E02FF582EC3EF583E0F9546A
:1006710003900052F0C39402402F900050E02401F7
:10068100FF90004FE03400FE90004BA3E02FF58275
:10069100EC3EF583E0FF90009FE4F0A3EFF0E0F87B
:1006A100E4F0E890009F02076FE490009FF0A3F050
:1006B100E9FF90009FE4F0A3EFF0900050E004F018
:1006C100700690004FE004F00209C590004FE0FE73
:1006D100A3E0FF90004BE0FCA3E0FD2FF582EC3E90
:1006E100F583E0FF5424642460030207ABEFD39445
:1006F1002740030207AB7BFF7A1379E590004FA3F4
:10070100E0FF90006CEEF0A3EFF0ED2FF582EC3EF0
:10071100F583E0FF90006EE4F0A3EFF01216E29093
:10072100004FE0FEA3E0FF90004BE0FCA3E02FF5BB
:1007310082EC3EF583E0F95403900052F0C3940239
:100741004046900050E02401FF90004FE03400FE4D
:1007510090004BA3E02FF582EC3EF583E0FF900083
:10076100A1E4F0A3EFF0E0F8E4F0E89000A1F0E9F3
:10077100FFE0F0A3E04FF0900050E02402F0900081
:100781004FE03400F00209C5E49000A1F0A3F0E9C4
:10079100FF9000A1E4F0A3EFF0900050E004F070AE
:1007A1000690004FE004F00209C590004FE0FEA35F
:1007B100E0FF90004BE0FCA3E0FD2FF582EC3EF55D
:1007C10083E0FF5474FEBE7406EFD3947740229009
:1007D100004FE0FEA3E02DF582EC3EF583E0FF54EF
:1007E10094649460030209C5EFD39497400302090E
:1007F100C590004FE0FEA3E0FF90004BE0FCA3E0BA
:100801002FF582EC3EF583E05403900052F0D3942F
:100811000140037F03227BFF7A1379FC90004FE0B4
:10082100FEA3E0FF90006CEEF0A3EFF090004BE030
:10083100FCA3E02FF582EC3EF583E0FF90006EE42F
:10084100F0A3EFF01216E2900050E004F070069071
:10085100004FE004F0900050E02402FF90004FE0D0
:100861003400FE90004BE0FAA3E0FB2FF582EA3E54
:10087100F583E0FF90004FE0FCA3E0FDEB2DF58256
:10088100EA3CF583E0FE8FF0A49000A3F07BFF7AB1
:10089100137968EEFF90006CE4F0A3EFF0ED240211
:1008A100FFE43CFE90004BE0FCA3E02FF582EC3E20
:1008B100F583E0FF90006EE4F0A3EFF01216E27B07
:1008C100FF7A1479129000A3E0FF90006CE4F0A38A
:1008D100EFF01216E29000A3E05407700302099AA8
:1008E100900050E004F0700690004FE004F090009A
:1008F1004FE0FEA3E0FF90004BE0FCA3E0FD2FF5ED
:1009010082EC3EF583E0FF5474FEBE7406EFD3948F
:1009110077401C90004FE0FEA3E02DF582EC3EF500
:1009210083E0FF5494FEBE94B7EFD3949750B190F7
:10093100004FE0FEA3E0FF90004BE0FCA3E02FF5A9
:1009410082EC3EF583E05403900052F0D3940140D1
:10095100037F0322900050E004F0700690004FE006
:1009610004F0900050E02403FF90004FE03400FEBB
:1009710090004BE0FCA3E0FD2FF582EC3EF583E017
:10098100FF90004FE0FAA3E0FBED2BF582EC3AF586
:1009910083E08FF0A49000A4F0900051E0B45535AD
:1009A10090009FA3E09000A5F09000A1A3E090002B
:1009B100A6F09000A3E09000A7F09000A4E09000C2
:1009C100A8F08011900050E004F0700690004FE014
:1009D10004F002060490004FE0FEA3E0FF90004BFC
:1009E100E0FCA3E0FD2FF582EC3EF583E0640960B5
:1009F10003020E23EF2401FFE43EFEED2FF582EC0E
:100A01003EF583E064386003020E23900051E060FC
:100A110003020E237BFF7A1379B990004FE0FEA306
:100A2100E0FF90006CEEF0A3EFF0ED2FF582EC3ECD
:100A3100F583E0FF90006EE4F0A3EFF01216E29070
:100A41000050E02402F090004FE03400F090004F9D
:100A5100E0FEA3E0FF90004BE0FCA3E0FD2FF58258
:100A6100EC3EF583E0FF541464146003020B30EF95
:100A7100D394174003020B307BFF7A14792E900038
:100A81004FA3E0FF90006CEEF0A3EFF0ED2FF582A5
:100A9100EC3EF583E0FF90006EE4F0A3EFF0121658
:100AA100E290004FE0FEA3E0FF90004BE0FCA3E0EA
:100AB1002FF582EC3EF583E05403900052F0C3948D
:100AC10002403B900050E02401FF90004FE03400D1
:100AD100FE90004BA3E0FD2FF582EC3EF583E09004
:100AE10000A5F07900E9F090004FE0FEA3E0FFEDF2
:100AF1002FF582EC3EF583E09000A5020BDEE49039
:100B010000A5F090004FE0FEA3E0FF90004BE0FC59
:100B1100A3E02FF582EC3EF583E09000A5F0900074
:100B210050E004F0700690004FE004F0020E1290C5
:100B3100004FE0FEA3E0FF90004BE0FCA3E0FD2F9F
:100B4100F582EC3EF583E0FF542464246003020C3B
:100B510021EFD394274003020C217BFF7A147947BC
:100B610090004FA3E0FF90006CEEF0A3EFF0ED2FAB
:100B7100F582EC3EF583E0FF90006EE4F0A3EFF028
:100B81001216E290004FE0FEA3E0FF90004BE0FC64
:100B9100A3E02FF582EC3EF583E05403900052F080
:100BA100C39402404A900050E02401FF90004FE0BE
:100BB1003400FE90004BA3E0FD2FF582EC3EF5835F
:100BC100E09000A6F07900E9F090004FE0FEA3E08C
:100BD100FFED2FF582EC3EF583E09000A6F090004A
:100BE10050E02402F090004FE03400F0020E12E4D5
:100BF1009000A6F090004FE0FEA3E0FF90004BE0D4
:100C0100FCA3E02FF582EC3EF583E09000A6F09086
:100C11000050E004F0700690004FE004F0020E1264
:100C210090004FE0FEA3E0FF90004BE0FCA3E0FD4D
:100C31002FF582EC3EF583E0FF5474FEBE7406EF9F
:100C4100D39477402290004FE0FEA3E02DF582EC93
:100C51003EF583E0FF549464946003020E12EFD3D7
:100C610094974003020E1290004FE0FEA3E0FF9024
:100C7100004BE0FCA3E02FF582EC3EF583E054034A
:100C8100900052F0D3940140037F03227BFF7A143A
:100C9100796190004FE0FEA3E0FF90006CEEF0A3BD
:100CA100EFF090004BE0FCA3E02FF582EC3EF583E2
:100CB100E0FF90006EE4F0A3EFF01216E290005016
:100CC100E004F0700690004FE004F0900050E02442
:100CD10002FF90004FE03400FE90004BE0FAA3E0E9
:100CE100FB2FF582EA3EF583E0FF90004FE0FCA385
:100CF100E0FDEB2DF582EA3CF583E0FE8FF0A49058
:100D010000A7F07BFF7A137968EEFF90006CE4F0A6
:100D1100A3EFF0ED2402FFE43CFE90004BE0FCA3C6
:100D2100E02FF582EC3EF583E0FF90006EE4F0A346
:100D3100EFF01216E27BFF7A14797A9000A7E0FFB8
:100D410090006CE4F0A3EFF01216E29000A7E054DB
:100D5100077003020E23900050E004F0700690002B
:100D61004FE004F090004FE0FEA3E0FF90004BE065
:100D7100FCA3E0FD2FF582EC3EF583E0FF5474FE09
:100D8100BE7406EFD39477401C90004FE0FEA3E0C1
:100D91002DF582EC3EF583E0FF5494FEBE94B7EF4F
:100DA100D3949750B190004FE0FEA3E0FF90004B29
:100DB100E0FCA3E02FF582EC3EF583E054039000C4
:100DC10052F0D3940140037F0322900050E004F0DD
:100DD100700690004FE004F0900050E02403FF9073
:100DE100004FE03400FE90004BE0FCA3E0FD2FF546
:100DF10082EC3EF583E0FF90004FE0FAA3E0FBEDCB
:100E01002BF582EC3AF583E08FF0A49000A8F080F6
:100E110011900050E004F0700690004FE004F002E1
:100E21000A4E900050E004F0700690004FE004F08C
:100E310090004DE0FEA3E0FFC3900050E09F9000C2
:0D0E41004FE09E50030200187F00227F0F3B
:010E4E002281
:050E4F00900041EFF0EE
:100E54009000477401F0E4A3F07BFF7A1479999031
:100E6400006CF0A3EFF01216E27F0A7E0012281441
:100E7400900041E0FF122677E4900042F0A3F09046
:100E84000041E0FF12244CEF700E900042F0A3E00A
:100E940004F0E0D3940F50137F017E0012281490C5
:100EA4000042E004F0E0C3946440D4900041E0FFC9
:100EB400E4FD122534900042E06021900041E0FFFF
:100EC4001227177BFF7A1479B3900041E0FF90005A
:100ED4006CE4F0A3EFF01216E27F16227BFF7A1483
:100EE40079E51216E212263D900043EFF06003020A
:100EF400124F900042F0901625E493FF900042E0D8
:100F0400FEC39F50257BFF7A1479F374002EF5827B
:100F1400E43401F583E0FF90006CE4F0A3EFF012F9
:100F240016E2900042E004F080CC7BFF7A1479FA58
:100F34001216E2900104E0900045F0901631E4931B
:100F4400FF900041E02FFF1226AF900043EFF060C6
:100F54000302124F90163193FF900041E0FE2FFFE1
:100F6400EE75F006A424D4F582E43400F583EFF0A2
:100F74007BFF7A1479FC1216E21224C3900043EF2B
:100F8400F0600302124F900104E0900047F09001DA
:100F940005E0900044F0E4900042F0900102E0FF8C
:100FA400900042E0FEC39F50257BFF7A1479F374CE
:100FB400002EF582E43401F583E0FF90006CE4F048
:100FC400A3EFF01216E2900042E004F080CD7BFF24
:100FD4007A1479FA1216E290010EE0900046F0902D
:100FE4000045E060030211FCA3E064036003021106
:100FF400FC90010FE0D3940140030211FC7E017FB9
:10100400001225A2900043EFF0540FFF900041E03E
:1010140075F006A424D7F582E43400F583EFF0904C
:101024000110E0900046F090011AE0FF900049E4BE
:10103400F0A3EFF0E07F00FE900049F0A3EFF09002
:101044000119E0FDEDFF900049EEF0A3EFF07BFF06
:101054007A15790A90006CEEF0A3EFF01216E29084
:101064000044E0FF1227A8900043EFF0600302124F
:101074004F7BFF7A15791E1216E2E4FF1223C69005
:101084000043EFF07048900042F0900042E0FFD33C
:1010940090004AE09F900049E0940040287BFF7A4A
:1010A4001479F3900042E02400F582E43401F583DE
:1010B400E0FF90006CE4F0A3EFF01216E29000421F
:1010C400E004F080C57BFF7A1479FA1216E29000EE
:1010D40046E0640270487BFF7A15792D1216E27E91
:1010E400017F00900049E0FCA3E0FD1200037BFFB8
:1010F4007A15793490009DE0FF90006CE4F0A3EF42
:10110400F09000A3E0FF90006EE4F0A3EFF09000F5
:10111400A7E0FF900070E4F0A3EFF01216E2806302
:10112400900047E0FFC3940140617BFF7A15794842
:1011340090006CE4F0A3EFF01216E2900047E0FF99
:101144001223C6900043EFF07039900042F09000F3
:1011540042E02400F582E43401F583E0FF64C060DA
:10116400197BFF7A1479F390006CE4F0A3EFF0128A
:1011740016E2900042E004F080D47BFF7A1479FAFE
:101184001216E2900047E014F08095900041E0FFD1
:1011940075F006A424D3F582E43400F5837403F0D7
:1011A400900046E0B4011EEF75F006A424D6F58243
:1011B400E43400F5837423F07F011227FA7BFF7A6D
:1011C40015795C8021900046E0B40224900041E04F
:1011D40075F006A424D6F582E43400F5837433F064
:1011E4007BFF7A1579701216E27F0112283F1F22C5
:1011F40090004374FBF08053900044E0FF1227A852
:10120400900043EFF07044900041E0FF75F006A4B5
:1012140024D3F582E43400F5837403F0900045E0B0
:10122400FE60028005900046E0FEEF75F006A424FF
:10123400D3F582E43400F583EEF07F0112283F7B7E
:10124400FF7A1579811216E27F00227BFF7A1579E5
:1012540091900043E0FF90006CE4F0A3EFF01216CD
:10126400E2900041E075F006A424D3F582E4340052
:0F127400F5837402F07F0112283F900043E0FFE2
:011283002248
:1026E500E4900040F0900040E0FF64026021EF7547
:1026F500F006A424D3F582E43400F583E0B40107A1
:10270500120E4FEF600122900040E004F080D67F6A
:0127150000C3
:0127160022A0
:051F4C00900040EFF0E1
:101F5100E4A3F0900041E0FF64027003022047EF28
:101F610075F006A424D6F582E43400F583E0FF90F1
:101F71000040E0FEEF6E701DA3E0FF75F006A424A3
:101F8100D3F582E43400F583E0C394034007EF7F87
:101F910000FE121DF3900041E0FF75F006A424D667
:101FA100F582E43400F583E06409600302203EEF2A
:101FB10075F006A424D3F582E43400F583E0C394DC
:101FC10003407A9000427401F0900041E0FF75F007
:101FD10006A424D7F582E43400F583E0FE900042A4
:101FE100E0FDD39E5057EF75F014A424A8F582E4C8
:101FF1003400F58375F005ED121D75E0FF9000408A
:10200100E0FEEF6E702FA3E0FF75F014A424A5F598
:1020110082E43400F583C083C082900042E0D08224
:10202100D08375F005121D75E0C394034007EFFEE0
:10203100EDFF121DF3900042E004F0808C9000410E
:0A204100E004F0021F547EFF7FFF51
:01204B002272
:10278A00C29FD29EC29DD29C438780E589540F4442
:0E279A0020F58943C9A0758DF3D28ED2992205
:1025FD00C2EA75E280E4F5E39024477448F0902434
:10260D004C7400F0A37400F090244E7401F0A37488
:10261D0000F0E4F5D4F5D675E28975D24075D8FF92
:0F262D00FECFEECF1227170EEEB402F575E103C4
:01263C00227B
:0B21FB009000DFEBF0A3EAF0A3E9F096
:1022060078E27C007D017BFF7A16796F7E007F087D
:10221600121CD59000DFE0FBA3E0FAA3E0F99000E2
:1022260001121D14FF121CFB4FFF900003121D1418
:102236004FFF900004121D144FFF900005121D144D
:102246004FFF900006121D144FFF900007121D1439
:1022560070047E0180027E00EE4FFF9000DFE0FBFF
:10226600A3E0FAA3E0F9900002121D14B453047E11
:102276000180027E00EE5F6030E4FF74E22FF5829B
:10228600E43400F583E0FE74002FF582E43401F5B2
:1022960083EEF00FEFB408E37E017F007B017A0046
:0B22A60079EA1219E6EF6001227F00C8
:0122B100220A
:101DF300900047EEF0A3EFF0F47002EEF4700302EC
:101E03001F4B900047E0FCA3E0FDECFF900043F084
:101E1300CEEDCE900045EEF0122534900045E0FF64
:101E23009000436019E075F014A424A9F582E4340A
:101E330000F58375F005EF121D75E0FF8010E07566
:101E4300F006A424D7F582E43400F583E0FF900084
:101E530046EFF0540F7003021F3DE0FE547F4490A1
:101E6300FFEE30E7047DC080027D00E4FBFA122020
:101E73004C900044EFF06003021F24900046E0649E
:101E830080F0900045E0FF601FA3E0FE900043E078
:101E930075F014A424A9F582E43400F58375F005E4
:101EA300EF121D75EEF08018900046E0FF9000439E
:101EB300E075F006A424D7F582E43400F583EFF04F
:101EC300900045E5D1F0E0607A7BFF7A1579A9901F
:101ED3000047E0FFA3E090006CCFF0A3EFF01216F1
:101EE300E2E4900043F0900045E0FF900043E0FE01
:101EF300C39F50257BFF7A1479F374002EF582E497
:101F03003400F583E0FF90006CE4F0A3EFF01216C9
:101F1300E2900043E004F080CD7BFF7A1479FA80ED
:101F23001F900044E0FF642A60197BFF7A1579B59E
:101F330090006CE4F0A3EFF080067BFF7A1579C57F
:081F43001216E27F0112283F93
:011F4B002273
:10233E0012278A7E007F187D007B017A0079911228
:10234E001D817BFF7A1579E0AFA190006CE4F0A3BC
:10235E00EFF01216E21225FDC2097BFF7A1579F411
:10236E001216E2E4FF30D80BC2D812213BEFB4159F
:10237E0002D209200905EF64157020C2097FC87EBC
:10238E00001228141226E5EF60117BFF7A167904ED
:10239E0090006CE4F0A3EFF01216E27F23121F4CB4
:1023AE00CDEFCDCCEECC7F33121F4CCCEECCCDEF9F
:0823BE00CD7F0112283F80AB26
:030000000222B227
:0C22B200787FE4F6D8FD7581210222F946
:101C0500E709F608DFFA8046E709F208DFFA803EC1
:101C150088828C83E709F0A3DFFA8032E309F608AE
:101C2500DFFA8078E309F208DFFA807088828C8316
:101C3500E309F0A3DFFA806489828A83E0A3F608CA
:101C4500DFFA805889828A83E0A3F208DFFA804CA4
:101C550080D280FA80C680D4806980F2803380107B
:101C650080A680EA809A80A880DA80E280CA8033E4
:101C750089828A83ECFAE493A3C8C582C8CCC5835C
:101C8500CCF0A3C8C582C8CCC583CCDFE9DEE7802C
:101C95000D89828A83E493A3F608DFF9ECFAA9F0AB
:101CA500EDFB2289828A83ECFAE0A3C8C582C8CC01
:101CB500C583CCF0A3C8C582C8CCC583CCDFEADE1A
:101CC500E880DB89828A83E493A3F208DFF980CC7C
:101CD50088F0EF60010E4E60C388F0ED2402B40475
:101CE5000050B9F582EB2402B4040050AF2323451C
:061CF5008223901C5573D0
:101CFB00BB010689828A83E0225002E722BBFE02E7
:091D0B00E32289828A83E4932219
:101D1400BB010CE58229F582E5833AF583E0225084
:101D240006E92582F8E622BBFE06E92582F8E222CE
:0D1D3400E58229F582E5833AF583E49322E8
:101D4100BB010989828A83F8E028F022500327F732
:101D510022BBFE05F8E328F3228A838982F8E49303
:021D6100282236
:101D6300BB010689828A83F0225002F722BBFE015F
:021D7300F32259
:0C1D7500A42582F582E5F03583F5832279
:10167700E509246CF582E43400F583E0050922903E
:10168700006930070390006CE475F001121DAD028C
:101697001CFB2000E97F2ED2008018EF540F249006
:1016A700D43440D4FF30040BEF24BFB41A005003E6
:1016B7002461FFE50A6002150A050DE50D700205B4
:1016C7000C30070E900069E475F001121DADEF02B2
:1016D7001D630227437403D2078003E4C207F50999
:1016E700900069121DC4E4F50AF50CF50DE50A60D2
:1016F700077F201216BA80F5750BFFC201C200C220
:1017070002C203C205C206C208121686FF700D3058
:1017170007057F001216CBAF0DAE0C22B4255FC2B2
:10172700D5C204121686FF24D0B40A00501A75F0E9
:101737000A780A30D50508B6FF0106C6A426F620A2
:10174700D5047002D20380D924CFB41A00EF500415
:10175700C2E5D2040218CCD20180C6D20080C0D222
:101767000280BCD2D580BAD20580B47F201216BAC7
:101777002002077401B50A0040F1121677FF12160E
:10178700BA0216F4D208D2068095121677FB121603
:1017970077FA121677F94A4B7006799D7A197BFF0B
:1017A70020022EE50A602A7E008E82758300121DB4
:1017B7001460060EEE650B70F0C2D5EBC0E0EAC010
:1017C700E0E9C0E0EE121913D0E0F9D0E0FAD0E07A
:1017D700FB121CFBFF60AAEBC0E0EAC0E0E9C0E037
:1017E7001216BAD0E02401F9D0E03400FAD0E0FBB9
:1017F700E50B0460DCD50BD980877BFF7A19790F5D
:10180700D202809C791080027908C206C20880083B
:10181700D2D5790A8004790AC2D5E50B047002F59E
:101827000BE4FAFDFEFF121677FC7B08200113126A
:101837001677FD7B1030000A121677FE121677FF17
:101847007B20EC3382D592D55013C3E43000069F3A
:10185700FFE49EFEE42001039DFDE49CFCE4CBF83D
:10186700C201EC700CCFCECDCCE824F8F870F38031
:1018770017C3EF33FFEE33FEED33FDEC33FCEB33F1
:10188700FB994002FB0FD8E9EB300105F8D0E0C423
:1018970048B201C0E00AEC4D4E4F78207B0070C281
:1018A700EAB50B0040BCC0E0121915D0F0D0E0201B
:1018B7000104C4C0E0C4B201C0F01216A3D0F0D531
:1018C700F0EB0216F4121DCD179153180B5817623F
:1018D7004C175E42180F4F181744181749177743CC
:0818E700181D551801461801F7
:1018EF004518014719BD5017662D176A2E178D2BF6
:1018FF00176E23178B2019A62A1726480000178565
:10190F003F3F3F00790AA2D5200314300509B910D3
:10191F00020404B9080104A2D520060250010420D4
:10192F0002689202B50A005034C0E07F20300319DC
:10193F007F30A20272067205500F12196CC202C2DA
:10194F0006C205C2087F30800F300503E9C0E012E0
:10195F0016BA300503D0E0F9D0E0B50ACC30051740
:10196F007F30B9100C1216BA7F583004077F788079
:10197F0003B908031216BA3002057F2D0216BA7F7B
:10198F00202008F87F2B2006F322920280CF286EAA
:10199F00756C6C2900D2011216773001F8C20178EC
:1019AF000A30D50108F60217262D50434958121652
:1019BF00772403B405004001E49019B8931216ABD5
:0D19CF00743A1216ABD203750A0402180B0D
:101D8100EF4E6012EF60010EEDBB010B89828A8379
:101D9100F0A3DFFCDEFA2289F05007F709DFFCA986
:0C1DA100F022BBFEFCF309DFFCA9F022DD
:1022BE0002233EE493A3F8E493A34003F68001F2D5
:1022CE0008DFF48029E493A3F85407240CC8C33321
:1022DE00C4540F4420C8834004F456800146F6DFF0
:1022EE00E4800B0102040810204080902859E47EFF
:1022FE00019360BCA3FF543F30E509541FFEE493E5
:10230E00A360010ECF54C025E060A840B8E493A3AB
:10231E00FAE493A3F8E493A3C8C582C8CAC583CAD6
:10232E00F0A3C8C582C8CAC583CADFE9DEE780BE8E
:01285D00007A
:101DAD00F8E0FBA3A3E0F925F0F0E58215827002BF
:071DBD001583E0FA38F02263
:091DC400EBF0A3EAF0A3E9F02220
:101DCD00D083D082F8E4937012740193700DA3A3A5
:101DDD0093F8740193F5828883E4737402936860B9
:061DED00EFA3A3A380DFB9
:10274300EFB40A07740D12274E740A309811A89932
:10275300B8130CC2983098FDA899C298B811F630F6
:0727630099FDC299F59922CE
:00000001FF
