:100ADA0012011001000000084843375500010000C8
:100AEA00000009022900010104A0230904000002F0
:100AFA0003000005092100010001222200070582E6
:100B0A0003400018070502034000180600FF090108
:100B1A00A101090215002600FF7508954081060902
:100B2A000215002600FF750895409106C0040309C6
:100B3A0004120343004800330037003200550053C3
:030B4A0000420066
:030C2400011700B5
:100BCC007F15120BB17F01120BF6120BE3BF51FA1A
:070BDC00C288C289D2A822E1
:100B4D00E5106037D394085008851067E4F51080E0
:100B5D000975670874F82510F5107F29120BB1AFD0
:100B6D0067120BF6E4F566E566656760187408258F
:100B7D0066F8E6FF120BF6056680EC7F29120BB1C5
:050B8D00E4FF120BF66D
:010B92002240
:100B9300E4FF851682851583E493FE74082FF8A677
:0D0BA300060516E516700205150FBF08E5E2
:010BB0002222
:03000300020800F0
:0D080000C0E0C0F0C083C082C0D075D00041
:10080D007F22120BB1120BE38F22C289E5227003F6
:10081D00020A0B14606D24F970030209ED14606077
:10082D0014605A24FE70030208B5240A6003020AFC
:10083D002F7F28120BB1120BE38F23752100E521B9
:10084D00C39523500E120BE374692521F8A60705F5
:10085D002180EB786BE6F5907F2B120BB1AF231255
:10086D000BF6752100E521C395234003020A43745D
:10087D00692521F8E6FF120BF6052180E8020A3EF4
:10088D00020A3E7F28120BB1120BE38F23EF700388
:10089D00020A43752400E52465237003020A4312FE
:1008AD000BE38F25052480EE7F28120BB1120BE38D
:1008BD008F23752400E5246523600E120BE3740865
:1008CD002524F8A607052480ECE5236408600302BF
:1008DD0009D7850E10AF088F25AF088F25AF088F6C
:1008ED0025EF546060030209D9850913E509605F9E
:1008FD0024FB606314606524FE70030209BC147050
:10090D00030209C41470030209CE2409600302090D
:10091D00D3E508541FF52564027030E50C14601EF4
:10092D0014600E2481600E1460030209D97F1D80AE
:10093D00067F1C800B7F1B120BB17F8E80077F1AE9
:10094D00120BB17F80120BF60209D9D201807D7591
:10095D0008007509008075850A148070E50BB401D7
:10096D000A75150A7516DAC201803FE50BB4020A45
:10097D0075150A7516ECC2018030E50BB4220A75A7
:10098D00150B751615C2018021E50BB4031AE50C84
:10099D00700B75150B751637751004800D75150BCD
:1009AD0075163B7510128002D201120B93801D75C6
:1009BD000800300017800AC200E50A600FD20080DF
:1009CD000B7508018006D2018002D20120010512AB
:1009DD000B4D80627F19120BB17F0F120BF68056F3
:1009ED00E513B40608120B93120B4D800FE513B4EB
:1009FD00050A7F13120BB1AF14120BF680337F284B
:100A0D00120BB1120BE38F23EF602B752400E5243D
:100A1D0065236022120BE374692524F8A6070524CB
:100A2D0080ECE5225403FFBF0307C201C20075101D
:060A3D00007F23120BB143
:0B0A4300D0D0D082D083D0F0D0E032C1
:0A0C1300120C06120BCCD2AF80FECB
:060C1D00E4FF0FBF02FC22
:010C230022AE
:0C0C0600E4FFE4FE0EBEFAFC0FBFC8F6CF
:010C120022BF
:100BB100AE07120C1D8E80D2B7D2B4C2B3C2B5D269
:0B0BC100B5D2B3C2B77580FF020C1D57
:100BF6008F80C2B7C2B3C2B5D2B5D2B37580FF2259
:100BE3007580FFC2B7C2B3C2B4AF80D2B4D2B375FB
:020BF30080FF81
:010BF50022DD
:03000000020A4EA3
:0C0A4E00787FE4F6D8FD7581F0020A956F
:100A5A00020C13E493A3F8E493A34003F68001F293
:100A6A0008DFF48029E493A3F85407240CC8C3339D
:100A7A00C4540F4420C8834004F456800146F6DF6C
:100A8A00E4800B0102040810204080900C24E47ECC
:100A9A00019360BCA3FF543F30E509541FFEE49361
:100AAA00A360010ECF54C025E060A840B8E493A328
:100ABA00FAE493A3F8E493A3C8C582C8CAC583CA53
:100ACA00F0A3C8C582C8CAC583CADFE9DEE780BE0B
:010C270000CC
:00000001FF
