:030000000215D610
:0C15D600787FE4F6D8FD758151021048C2
:10002600596F7572204431322063686970277320D6
:1000360049442069733A20002E20494420697320E0
:10004600636F72726563742120436F6E67726174A9
:10005600756C6174696F6E73210D0A0D0A002E208E
:10006600494420697320696E636F727265637421F7
:10007600205768617420612070697479210D0A0D1A
:100086000A002A2A2A2A2A2A2A2A2A2A2A2A2A2A14
:100096002A2A2A2A2A2A2A2A2A2A2A2A2A2A2A2ABA
:1000A6002A2A2A2A2A2A2A2A2A2A2A2A2A2A2A2AAA
:1000B6002A2A2A2A2A2A2A2A2A2A2A2A2A2A2A2A9A
:1000C6002A2A2A2A2A2A0D0A000000002A2A2A2A6F
:1000D6002A2A20202020202020202020202020A185
:1000E600B6C8A6C8A6BDCCC4E3CDE6555342A1B753
:1000F600D6AE20555342BCFCC5CC20202020202063
:10010600202020202020202020202A2A2A2A2A2AAD
:100116000D0A000000002A2A2A2A2A2A2020202046
:1001260020202020202020202020202020202020C9
:100136002020415438395335322043505520202051
:1001460020202020202020202020202020202020A9
:10015600202020202A2A2A2A2A2A0D0A0000000006
:100166002A2A2A2A2A2A202020202020202020204D
:100176002020202020202020BDA8C1A2C8D5C6DA74
:10018600A3BA00000000000000000000000000000C
:100196000000000000000000000000000000000059
:1001A600000000000000000000004E6F762031368F
:1001B600203230303800000000000000000000004F
:1001C6000000000000000000000000000000000029
:1001D6000000000000000000000000000000000019
:1001E6000000000000000000000000000000000009
:1001F6000000000020202020202020202020202079
:1002060020202020202A2A2A2A2A2A0D0A00000035
:1002160000000000000000000000000000000000D8
:1002260000000000000000000000000000000000C8
:1002360000000000000000000000000000002A2A64
:100246002A2A2A2A20202020202020202020202080
:1002560020202020202020BDA8C1A2CAB1BCE4A332
:10026600BA000000000000000000000000000000CE
:100276000000000000000000000000000000000078
:10028600000000000000000031363A30303A3330CA
:100296000000000000000000000000000000000058
:1002A6000000000000000000000000000000000048
:1002B6000000000000000000000000000000000038
:1002C6000000000000000000000000000000000028
:1002D6000000202020202020202020202020202058
:1002E60020202020202A2A2A2A2A2A0D0A00000055
:1002F60000000000000000000000000000000000F8
:1003060000000000000000000000000000000000E7
:100316000000000000000000000000002A2A2A2A2F
:100326002A2A2020202020202020202020202020B3
:10033600202020202020D7F7D5DFA3BAB5E7C4D4E4
:10034600C8A6C8A62020202020202020202020204B
:10035600202020202020202020202A2A2A2A2A2A5B
:100366000D0A000000002A2A2A2A2A2A20202020F4
:100376002020202020202020202020202020202077
:10038600BBB6D3ADB7C3CECAD7F7D5DFB5C4202029
:100396002020202020202020202020202020202057
:1003A600202020202A2A2A2A2A2A0D0A00000000B4
:1003B6002A2A2A2A2A2A20202020202020202020FB
:1003C60020555342D7A8C7F8A3BA687474703A2F59
:1003D6002F67726F75702E65646E6368696E612E25
:1003E600636F6D2F39332F202020202020202A2ACA
:1003F6002A2A2A2A0D0A000000002A2A2A2A2A2A3C
:10040600202020202020424C4F4731A3BA68747424
:10041600703A2F2F7777772E65646E6368696E6101
:100426002E636F6D2F626C6F672F636F6D707574BF
:1004360065723030202020202A2A2A2A2A2A0D0AEC
:10044600000000002A2A2A2A2A2A202020202020EA
:1004560020202020202020202020424C4F4732A35D
:10046600BA687474703A2F2F636F6D707574657205
:1004760030302E323169632E6F72672020202020A3
:1004860020202A2A2A2A2A2A0D0A000000002A2ABF
:100496002A2A2A2A2020202020202020202020202E
:1004A600202020202020C7EBB0B44B312D4B38B78D
:1004B600D6B1F0BDF8D0D0B2E2CAD4202020202098
:1004C6002020202020202020202020202A2A2A2AFE
:1004D6002A2A0D0A000000002A2A2A2A2A2A20206F
:1004E60020202020204B313AD7F34374726CBCFC99
:1004F60020204B323AD7F35368696674BCFC20203F
:100506004B333AD7F3416C74BCFC20204B343A3160
:10051600BCFC202020202A2A2A2A2A2A0D0A00008A
:1005260000002A2A2A2A2A2A202020202020204B9E
:10053600353A32BCFC20204B363A33BCFC20204BEB
:10054600373A43617073204C6F636BBCFC204B38A9
:100556003A4E756D204C6F636BBCFC20202020202A
:100566002A2A2A2A2A2A0D0A000000002A2A2A2ACA
:100576002A2A2020D7A2D2E2A3BACAFDD7D6BCFC2B
:10058600CAC7CAFDD7D6D0A1BCFCC5CCA3ACB1D8CE
:10059600D0EBB4F2BFAA4E756D204C6F636BB2C53B
:1005A600CAC7CAFDD7D6BCFC20202A2A2A2A2A2A4C
:1005B6000D0A000000002A2A2A2A2A2A2A2A2A2A7A
:1005C6002A2A2A2A2A2A2A2A2A2A2A2A2A2A2A2A85
:1005D6002A2A2A2A2A2A2A2A2A2A2A2A2A2A2A2A75
:1005E6002A2A2A2A2A2A2A2A2A2A2A2A2A2A2A2A65
:1005F6002A2A2A2A2A2A2A2A2A2A0D0A000000003A
:080606000000000000000000EC
:10125000780C7C007D007BFF7A0679067E007F0893
:10126000120E977F02784DE630E003430C01784D73
:10127000E630E103430C02784DE630E203430C0410
:10128000784DE630E307740C2FF876590F784DE669
:1012900030E407740C2FF8765A0F784DE630E507E6
:1012A000740C2FF8765B0F784DE630E607740C2F40
:1012B000F876390F784DE630E706740C2FF8765340
:1012C0007B007A00790C7D087F031211B575290126
:0712D000E47851F6784FF6B7
:0112D70022F4
:10104800D2AF1214FD12151BE4F508E50875F04A35
:10105800A42488F9740035F0FA7BFF12156405089A
:10106800E508C3941340E41215898E098F0A7BFFA3
:101078007A007926121564AF0AAE09121417E50A28
:10108800B4120DE509B410087BFF7A00793E80069A
:101098007BFF7A0079641215641214DE121538E4A5
:1010A800F52B20B24A7FF41215EE1215FD8F0BE5D1
:1010B8000B30E703121631E50B30E6031215C9E5CC
:1010C8000B30E003120A0AE50B30E10312159AE52A
:1010D8000B30E203121479E50B30E303121577E5C0
:1010E8000B30E40312163AE50B30E503121643E51C
:1010F8002B60AFE52970ABF5397851E67005784F6C
:0B110800E66003121250753901809759
:0B1612005389F0438901D2A9D28C2239
:1014FD007590FFE4784DF618F67850F6784BF6783F
:0E150D004EF608F67851F612161275390122C4
:03000B000213B726
:1013B700C0E0C0D075D000C000C001758CDC758A54
:1013C70010E5396042E590F4784BF6794BE77850B1
:1013D70066600B784C760018E67850F68029784CD2
:1013E70006E6C39401402076017850E6784DF6086A
:1013F700E6F41856784F46F6784DE6F408567851D5
:1014070046F6784DE608F6D001D000D0D0D0E032CD
:1015AB00303132333435363738394142434445468E
:10151B00C2AF53890F438920759850758DF4758B25
:0D152B00F4438780D2ACD28ED29CD2AF2286
:030023000215E2E1
:0C15E200309803C29832C299753A00326A
:0A161D008F99753A01E53A70FC223E
:10156400120EBDFF600C12161D740129F9E43AFA3B
:0315740080EE22E4
:0812D8008F1D8E1C8D1B8C1A6A
:1012E000751E09E47B0AFAF9F8AF1DAE1CAD1BAC04
:1012F0001A120FB6EB2430FF741F251EF8A607AF95
:101300001DAE1CAD1BAC1AE47B0AFAF9F8120FB63D
:101310008F1D8E1C8D1B8C1A151EC3E51E648094B8
:101320008050C0E4F51E741F251EF8E6B430070592
:101330001EE51EB409F0C3E51E6480948A500E7445
:0D1340001F251EF8E6FF12161D051E80E990
:01134D00227D
:10141700E4F512750C30750D787D057A00EF540FE1
:1014270024ABF582EA3415F583E493FC740C2DF8AC
:10143700A604EEC4F854F0C868FEEFC4540F48FF82
:0D1447001DBD01D77B007A00790C021564F1
:0A162700753A018F99E53A70FC2234
:10145400AE077F301216277F78121627EEC4540F7A
:101464009015AB93FF121627EE540F93FF12162715
:051474007F2002162795
:10149D00B6C1B6CBB5E300BBBAB3E5C7F800D7D636
:1014AD00BDDAA1A30D0A000D0A00D0B4B6CBB5E389
:0114BD00002E
:0C15EE00D2B5C2B68F80D2B67580FF2245
:0315FA001215EED9
:0815FD00C2B5C2B7AF80D2B73E
:0116050022C2
:101589007FFD1215FAAD077C001215FDEFFEAF05C0
:01159900222F
:0C160600C2B5C2B68F80D2B67580FF223C
:08000300EF2440FF1215FA2260
:031656000215EE8C
:05164C007FF20215EE23
:10000E007F011216567FF11215EEE4FF1216567F7F
:04001E00F10215EEE8
:081113008F0D8B0E8A0F89106D
:10111B001216567FF01215EE1215FD1215FD8F12D9
:10112B00E512D39D40028D127BFF7A14799D121527
:10113B0064E50DC313FFE4FCFDFE1212D87BFF7AAE
:10114B001479A4121564AF12E4FCFDFE1212D87BC5
:10115B00FF7A1479AB121564E4F511E511C39512FE
:10116B005036C2B7AB0EAA0FA9108511827583003A
:10117B00E580120F03D2B7851182758300120ED64C
:10118B00FF121454E51104540F70097BFF7A147984
:10119B00B4121564051180C3E512540F60097BFF6F
:0911AB007A1479B4121564AF1234
:0111B4002218
:051651007FFA0215EE16
:0A11B5008F148D158B168A17891808
:1011BF001216567FF01215EEE4FF121606AF151237
:1011CF0016067BFF7A1479B7121564E514C313FF63
:1011DF00E4FCFDFE1212D87BFF7A1479A412156479
:1011EF00AF15E4FCFDFE1212D87BFF7A1479AB1217
:1011FF001564E4F519E519C39515502DC2B6AB1654
:10120F00AA17A918851982758300120ED6FFF580CB
:10121F00D2B6121454E51904540F70097BFF7A14D7
:10122F0079B4121564051980CCE515540F60097B4C
:10123F00FF7A1479B41215647580FF121651AF1529
:01124F00227C
:0E15BB00AE077FD01215EEEE4480FF0216063A
:10155000AE077FD81215EEEE60047F018002E4FF33
:041560001216062237
:10060E00B6CFBFAA555342C1ACBDD3A1A30D0A00AC
:10061E00C1ACBDD3555342A1A30D0A00555342D7C9
:10062E00DCCFDFB9D2C6F0A1A30D0A00555342D7D5
:10063E00DCCFDFB8B4CEBBA1A30D0A00555342B632
:10064E00CBB5E330CAE4B3F6D6D0B6CFA1A30D0A2C
:10065E0000555342B1EAD7BCCAE4C8EBC7EBC7F3A7
:10066E00A3BA00BBF1C8A1C5E4D6C3A1A30D0A006D
:10067E00BBF1C8A1C3E8CAF6B7FBA1AAA1AA00C9DB
:10068E00E8B1B8C3E8CAF6B7FBA1A30D0A00C5E4EA
:10069E00D6C3C3E8CAF6B7FBA1A30D0A00D7D6B7D7
:1006AE00FBB4AEC3E8CAF6B7FB0028D3EFD1D449EA
:1006BE004429A1A30D0A0028B3A7C9CCC3E8CAF6E2
:1006CE0029A1A30D0A0028B2FAC6B7C3E8CAF629B3
:1006DE00A1A30D0A0028B2FAC6B7D0F2C1D0BAC58E
:1006EE0029A1A30D0A0028CEB4D6AAB5C4CBF7D241
:1006FE00FDD6B529A1A30D0A00B1A8B8E6C3E8CA74
:10070E00F6B7FBA1A30D0A00C6E4CBFBC3E8CAF6FD
:10071E00B7FBA3ACC3E8CAF6B7FBB4FAC2EBA3BAF5
:10072E00000D0A00BBF1C8A1BDD3BFDAA1A30D0A0B
:10073E0000BBF1C8A1D7B4CCACA1A30D0A00CDACBF
:10074E00B2BDD6A1A1A30D0A00B4EDCEF3A3BACECD
:10075E00B4B6A8D2E5B5C4B1EAD7BCCAE4C8EBC7F3
:10076E00EBC7F3A1A30D0A00555342C0E0CAE4C87B
:10077E00EBC7EBC7F3A3BA0D0A00555342B3A7C993
:10078E00CCCAE4C8EBC7EBC7F3A3BA0D0A00B4EDAD
:10079E00CEF3A3BACEB4B6A8D2E5B5C4CAE4C8EBBC
:1007AE00C7EBC7F3A1A30D0A00555342B1EAD7BC5C
:1007BE00CAE4B3F6C7EBC7F3A3BA00C7E5B3FDCCE3
:1007CE00D8D0D4A1A30D0A00C9E8D6C3B5D8D6B7E0
:1007DE00A1A3B5D8D6B7CEAAA3BA00C9E8D6C3C5C9
:1007EE00E4D6C3A1A30D0A00C9E8D6C3C3E8CAF66E
:1007FE00B7FBA1A30D0A00C9E8D6C3CCD8D0D4A1AB
:10080E00A30D0A00C9E8D6C3BDD3BFDAA1A30D0A52
:10081E0000B4EDCEF3A3BACEB4B6A8D2E5B5C4B14A
:10082E00EAD7BCCAE4B3F6C7EBC7F3A1A30D0A001F
:10083E00555342C0E0CAE4B3F6C7EBC7F3A3BA0000
:10084E00C9E8D6C3BFD5CFD0A1A30D0A00CEB4D66A
:10085E00AAC7EBC7F3A1A30D0A00555342B3A7C90C
:10086E00CCCAE4B3F6C7EBC7F3A3BA0D0A00B4EDD6
:10087E00CEF3A3BACEB4B6A8D2E5B5C4CAE4B3F6E5
:10088E00C7EBC7F3A1A30D0A00555342B6CBB5E390
:10089E0030CAE4C8EBD6D0B6CFA1A30D0A0055538B
:1008AE0042B6CBB5E331CAE4B3F6D6D0B6CFA1A3E8
:1008BE000D0A00555342B6CBB5E331CAE4C8EBD6A8
:1008CE00D0B6CFA1A30D0A00555342B6CBB5E33235
:1008DE00CAE4B3F6D6D0B6CFA1A30D0A0055534243
:1008EE00B6CBB5E332CAE4C8EBD6D0B6CFA1A30DD2
:1008FE000A00120110010000001088880200000199
:10090E000102030105010906A101050719E029E706
:10091E001500250195087501810295017508810361
:10092E0095067508150025FF050719002965810034
:10093E0025019505750105081901290591029501F5
:10094E0075039103C00902290001010080320904D8
:10095E0000000203010100092110012101224100C2
:10096E000705810310000A0705010310000A04039E
:10097E0009045203357511810857085784765500BE
:10098E0053004200134E3A53200048007400740086
:10099E0070003A002F002F00670072006F00750084
:1009AE0070002E00650064006E0063006800690030
:1009BE006E0061002E0063006F006D002F00390085
:1009CE0033002F0022030A30085708575965604F2D
:1009DE00A9735500530042000B304B4E5500530087
:1009EE0042002E95D87616033200300030003800C3
:0C09FE002D00300037002D0031003200C9
:1014BE00E4FDFCC3ED9FEC9E5015E4FBFA0BBB0064
:0F14CE00010AEB64E34A70F50DBD00010C80E4E8
:0114DD0022EC
:1014DE007BFF7A06790E1215647FF31215EE7F06E6
:0F14EE001216067F471216067FE87E030214BE11
:101538007BFF7A06791E1215647FF31215EE7F166B
:081548001216067F4702160689
:091631007BFF7A06792A02156498
:0D15C9007BFF7A06793A121564E4F52922B9
:10134E00900907E493FDFFD3E5309FE52F9400400D
:10135E0029AB35AA36A9377F011211B5900907E4DA
:10136E0093FF7E00C3E5309FF530E52F9EF52FEFFE
:10137E002537F537EE3536F53622E530452F601335
:10138E00AD30AB35AA36A9377F011211B5E4F52F72
:10139E00F53022E538B40110AB35AA36A937E4FD95
:0913AE007F011211B5E4F53822AB
:100A0A007BFF7A06794A121564E4FF120003EF208D
:100A1A00E503020DB67B007A00793B7D10E4FF12F4
:100A2A00111312000E12164C783BE6F52E08E6F565
:100A3A002A783EE6FE18E67C002400F534EC3EF502
:100A4A00337840E6FE18E62400F532EC3EF53178BC
:100A5A0042E6FE18E62400F52DEC3EF52CE52E20A4
:100A6A00E703020CCFC4135403147003020CB4142A
:100A7A007003020CBD24026003020CC67BFF7A06D7
:100A8A00795F121564E52A7003020C9924FA601E34
:100A9A0024FC7003020C9024FE7003020CA22404AE
:100AAA006003020CAB7BFF7A067971020DB37BFF00
:100ABA007A06797E121564E53324FE605D147003AC
:100ACA00020B7C24E17003020C3424216003020C23
:100ADA00787BFF7A06798D1215647535FF753609AC
:100AEA00753700900900E493FF7E00D3E52D9FE55A
:100AFA002C9E401D8E2F8F30900907E493FD7C00B9
:100B0A00AE2FAF30120F25ED4C7064753801020D0F
:100B1A009A852C2F852D30020D9A7BFF7A06799CB7
:100B2A001215647535FF753609753753900956E401
:100B3A0093752F00F530E530FE900955E4937C005B
:100B4A002400F530EC3EF52FD3E52D9530E52C95B4
:100B5A002F4016900907E493FDAE2FAF30120F25F0
:100B6A00ED4C700B7538018006852C2F852D3002CF
:100B7A000D9A7BFF7A0679AB121564E5341460216D
:100B8A00146035146049240370637BFF7A0679B8D0
:100B9A001215647535FF75360975377C90097C80A6
:100BAA00437BFF7A0679C51215647535FF753609D8
:100BBA00753780900980802C7BFF7A0679D41215CC
:100BCA00647535FF7536097537D29009D280157B61
:100BDA00FF7A0679E31215647535FF75360975379C
:100BEA00F49009F4E493752F00F53080117BFF7AB5
:100BFA000679F4121564E4F52FF530753801D3E55A
:100C0A002D9530E52C952F4018900907E493FD7C2B
:100C1A0000AE2FAF30120F25ED4C700B75380180E6
:100C2A0006852C2F852D30020D9A7BFF7A077907CE
:100C3A001215647535FF753609753712752F0075EB
:100C4A003041D3E52D9530E52C952F4018900907B2
:100C5A00E493FD7C00AE2FAF30120F25ED4C700BE4
:100C6A007538018006852C2F852D30020D9A7BFF61
:100C7A007A077916121564E533FF1214547BFF7A4A
:100C8A0007792F020DB37BFF7A077932020DB37B06
:100C9A00FF7A07793F020DB37BFF7A07794C020D81
:100CAA00B37BFF7A077957020DB37BFF7A07797610
:100CBA00020DB37BFF7A077988020DB37BFF7A07AF
:100CCA00799C020DB3E52EC4135403147003020D6C
:100CDA007A147003020DA524026003020DAD7BFF96
:100CEA007A0779B7121564E52A24FD606B24FE6041
:100CFA001924FE605B24FE603B24FE6063240A70B4
:100D0A00677BFF7A0779C9020DB37BFF7A0779D629
:100D1A00121564AF34E5341214547BFF7A07792F25
:100D2A00121564AF34E5341215BBE4F52FF53075AE
:100D3A003801805C7BFF7A0779E9121564E534F59E
:100D4A002BAF2B121550E4F52FF530753801804082
:100D5A007BFF7A0779F680517BFF7A08790580490B
:100D6A007BFF7A08791280417BFF7A08791F8039E4
:100D7A007BFF7A08793E121564E52A24F670147B03
:100D8A00FF7A08794E121564E4F52FF530753801AB
:100D9A0002134E7BFF7A08795B800E7BFF7A087913
:100DAA006880067BFF7A08797C0215647B007A00EA
:0D0DBA00793B7D10E4FF12111312164C223C
:10159A007BFF7A0879971215647F01120003021300
:0115AA004EF2
:101479007BFF7A0879AC1215647F021200037B00A6
:101489007A00790C7D017F0212111312164CE50CBA
:03149900F4F5A0C7
:01149C00222D
:101577007BFF7A0879C11215647F03120003E4F533
:02158700292217
:09163A007BFF7A0879D6021564E1
:091643007BFF7A0879EB021564C3
:100DC700E709F608DFFA8046E709F208DFFA803E0E
:100DD70088828C83E709F0A3DFFA8032E309F608FB
:100DE700DFFA8078E309F208DFFA807088828C8363
:100DF700E309F0A3DFFA806489828A83E0A3F60817
:100E0700DFFA805889828A83E0A3F208DFFA804CF0
:100E170080D280FA80C680D4806980F280338010C7
:100E270080A680EA809A80A880DA80E280CA803330
:100E370089828A83ECFAE493A3C8C582C8CCC583A8
:100E4700CCF0A3C8C582C8CCC583CCDFE9DEE78078
:100E57000D89828A83E493A3F608DFF9ECFAA9F0F7
:100E6700EDFB2289828A83ECFAE0A3C8C582C8CC4D
:100E7700C583CCF0A3C8C582C8CCC583CCDFEADE66
:100E8700E880DB89828A83E493A3F208DFF980CCC8
:100E970088F0EF60010E4E60C388F0ED2402B404C1
:100EA7000050B9F582EB2402B4040050AF23234568
:060EB7008223900E177368
:100EBD00BB010689828A83E0225002E722BBFE0233
:090ECD00E32289828A83E4932266
:100ED600BB010CE58229F582E5833AF583E02250D1
:100EE60006E92582F8E622BBFE06E92582F8E2221B
:0D0EF600E58229F582E5833AF583E4932235
:100F0300F8BB010DE58229F582E5833AF583E8F024
:100F1300225006E92582C8F622BBFE05E92582C8D0
:020F2300F222B8
:100F2500BC000BBE0029EF8DF084FFADF022E4CCB0
:100F3500F875F008EF2FFFEE33FEEC33FCEE9DEC79
:100F4500984005FCEE9DFE0FD5F0E9E4CEFD22EDBF
:100F5500F8F5F0EE8420D21CFEADF075F008EF2F09
:100F6500FFED33FD4007985006D5F0F222C398FDFA
:050F75000FD5F0EA2297
:100F7A0075F008758200EF2FFFEE33FECD33CDCC2E
:100F8A0033CCC58233C5829BED9AEC99E5829840B1
:100F9A000CF582EE9BFEED9AFDEC99FC0FD5F0D68E
:100FAA00E4CEFBE4CDFAE4CCF9A88222B800C1B9B8
:100FBA000059BA002DEC8BF084CFCECDFCE5F0CBF6
:100FCA00F97818EF2FFFEE33FEED33FDEC33FCEB2F
:100FDA0033FB10D703994004EB99FB0FD8E5E4F9EA
:100FEA00FA227818EF2FFFEE33FEED33FDEC33FCD7
:100FFA00C933C910D7059BE99A4007EC9BFCE99ACB
:10100A00F90FD8E0E4C9FAE4CCFB2275F010EF2F0F
:10101A00FFEE33FEED33FDCC33CCC833C810D7070F
:10102A009BEC9AE899400AED9BFDEC9AFCE899F84A
:0E103A000FD5F0DAE4CDFBE4CCFAE4C8F922DD
:00000001FF
