:10085B005553422064657620696E0A005553422039
:10086B00646576206F75740A004348333431204930
:10087B006E20646174613A200A007825303258206A
:10088B00000A004348333431206572726F722025A1
:10089B003032780A00526573657420686F73742068
:1008AB00706F72740A0044697361626C6520686FC3
:1008BB00737420706F727420626563617573652049
:1008CB006F6620646973636F6E6E6563740A0047AD
:1008DB00657444657644657363723A2000476574AA
:1008EB0043666744657363723A2000496E697452BC
:1008FB006F6F7444657620457272203D202530322F
:10090B00580A0053746172742040436869704944FB
:10091B003D253032580A0057616974204465766969
:10092B00636520496E0A00800600010000120080FA
:10093B000600020000040000050200000000000099
:10094B000900000000000002010000000000004050
:10095B00A10C0003CC000040A10C0002620000407F
:0B096B00A10C000164000061647458DE
:040ECC007FC87E005D
:0E0ED000EF4E600905A1EF1F70F61E80F322A1
:100E9F00CDEFCDCCEECCED4C600E7FE87E03120E85
:090EAF00D0ED1D70F11C80EE2253
:080F2300E49000BEF0F5E422A9
:100CD600E4900094F0E5DB30E3259000BEE060058B
:100CE600E5E420E038120F239000BE7401F07BFF8C
:100CF6007A08795B12006E9000947415F0801E904D
:100D060000BEE0C394014015120F237BFF7A0879D9
:100D16006712006E900094E070037416F0900094D1
:020D2600E0FFEC
:010D280022A8
:0C0F0000EF547FFFE5E354804FF5E3223F
:060EB8009000BEF07F0176
:0E0EBE00EF600753E2BF53D27F2243E240228F
:100DC8009000BD7408F0E4FF120F007F01120EBE00
:100DD800E5E454FB4402F5E47F0F7E00120E9F53B6
:0C0DE800E4FD7FFA7E00120ED0C2D8227B
:100D60009000BEE0C3940150037401F0E5DB30E372
:100D700020E5E420E015E5DB30E2047F0080027F1F
:100D8000019000BFEFF0700343E40443E4017F00EF
:040D9000227F162286
:100E85007FC87E0020D909EF1F70011EEF4E70F458
:090E950030D9047F0080027FFEC9
:010E9E002231
:0B097600900091EFF0A3EAF0A3EBF07B
:10098100CFEDCF8FD68FD4E4F5DD900091E0F5D592
:10099100C2D97FC87E0020D909EF1F70011EEF4E1A
:1009A10070F4E4F5D520D9037FFE2230D81FC2D8D8
:1009B100120CD6EFB41502D2099000BEE0FE70030E
:1009C1007F1622EEB401037F1522120ECC30D967B7
:1009D10030DE037F0022E5D9540FFFB40E028043BD
:1009E100EFB40A29900092E0FCA3E0FD4C7003EF04
:1009F100803EC3ED94FFEC94FF500E900093E024F1
:100A0100FFF0900092E034FFF015DD802D90009111
:100A1100E0C4540F24F7600D24FC6004240C70140E
:100A2100EF6017800BEFB40304640B600DEF600AF5
:100A31004420FF227FFE2275D8FF7F0F7E00120E19
:100A4100D005DDAFDDEFC39403500302098B7F2096
:010A51002282
:0606D300EBF0E4FDFFFE68
:1006D90090008EEEF0A3EFF0A3EDF0120ECCE060E7
:1006E90003F8E4F675D7087B107A27E4FD7FD0126A
:1006F9000976CBEFCBEB60012275D6D075D4D075D6
:10070900D701900047E060047FFF8005900046E034
:10071900FF90008DEFF0700302082FA3E0FEA3E025
:100729004E700302082F900040E020E7030207B94A
:1007390090008DE06075120ECC7B107A27ADD47FC6
:1007490090120976CBEFCBEB60012290008DE0FF90
:10075900E5D1C39F5007AED1CFEECF800090008D79
:10076900E0C39FF0900090E06004F8EF26F6E4FE05
:10077900EE6F602A74002EF582E43400F583E0FD03
:1007890090008EE0F8A3E0F5828883EDF090008F69
:10079900E004F0700690008EE004F00E80D2E5D1FE
:1007A90060099000BDE01455D16085E4F5D78076E5
:1007B90090008DE06070120ECC9000BDE0FF9000BB
:1007C9008DE0FEC39F40028003CFEECF8FD7E4FFB9
:1007D900EF65D7602A90008EE0FCA3E0F5828C8358
:1007E900E0FE74402FF582E43400F583EEF09000CA
:1007F9008FE004F0700690008EE004F00F80D17B4A
:10080900107A27ADD67F10120976CBEFCBEB6001BA
:100819002290008DE0C395D7F0900090E06091F8A8
:10082900E5D726F6808A120ECCE5D760047F908042
:10083900027F107B107A277DC0120976CBEFCBEBB4
:10084900600122E5D77002FF22E5D17002FF227F05
:010859001787
:01085A00227B
:100E4700E4FD8F828E83E493FC74402DF582E434B5
:0F0E570000F583ECF00FBF00010E0DEDB408E3C2
:010E66002269
:100D94009000BD7408F07E097F32120E477E007FFA
:100DA400407D081206D9EF600122900047E09000D0
:100DB400BDF0900938E493FFE508C39F50037F1703
:030DC400227F008B
:010DC7002209
:100C12007E097F3A120E477E007F407D081206D978
:100C2200EF600122900940E493FEE508C39E500361
:100C32007F1722900042E0F508E508D39440400374
:100C42007F17227E097F3A120E47900046E508F090
:100C52007E007F407D081206D9EF60012290094094
:100C6200E493FFE508C39F400A900042E0FFE508D5
:080C72009F50037F17227F0051
:010C7A002257
:050DF40090008CEFF0FF
:100DF9007E097F42120E4790008CE0900042120655
:100E0900D4EF60012290008CE0FF120F007F0A7E70
:060E190000120E9F7F0095
:010E1F0022B0
:100EDE00CBEFCB7E097F4A120E479000421206D30B
:010EEE0022E1
:100EEF00CBEFCB7E097F52120E479000441206D3F0
:010EFF0022D0
:0B0F18007E097F5A120E471206D522F8
:100A52009000C2E090008AF0E0FE547F4490FFEEE6
:100A620030E7047DC080027D00E4FBFA1209769033
:100A72000088EFF0706490008AE06480F09000C219
:100A8200F0900089E5D1F0E0604A7BFF7A08797442
:100A920012006EE4900087F0900089E0FF900087DA
:100AA200E0FEC39F50257BFF7A08798574002EF5FE
:100AB20082E43400F583E0FF900098E4F0A3EFF0C5
:100AC20012006E900087E004F080CD7BFF7A0879F7
:100AD2008C12006E900089E0FF22900088E0FF6493
:100AE2002A60117BFF7A08798E900098E4F0A3EFD8
:060AF200F012006E7F000F
:010AF80022DB
:0E0AF900900087EBF0A3EAF0A3E9F0A3EDF084
:100B07009000C3E090008CF090008AE0607C120EA9
:100B1700CCE0FFC3942040047F2080008FD7E4FF00
:100B2700EF65D76028900087E0FBA3E0FAA3E0F920
:100B370012061FFE74402FF582E43400F583EEF0B1
:100B4700900088E475F0011206380F80D390008C6E
:100B5700E0FE547F4410FFEE30E7047DC080027D45
:100B670000E4FBFA12097690008BEFF07016900004
:100B77008AE0C395D7F090008CE06480F09000C3C2
:0C0B8700F0020B0F90008BE0FF227F00BB
:010B9300223F
:100C7B00E4F9FC8F828E83A3A3E0FBECC39B50476C
:100C8B00EF2CF582E43EF583A3E064057025EF2C91
:100C9B00F582E43EF583A3A3A3E05403FBBB03134C
:100CAB00EF2CF582E43EF583A3A3E030E705540F68
:100CBB00F98014EF2CF582E43EF583E0FDD394101C
:0A0CCB005005ED2CFC80ACCFE9CF02
:010CD50022FC
:100368007BFF7A0879A012006E120DC8E49000870E
:10037800F0A3F07F017E00120E9F120D60EF700E49
:10038800900087F0A3E004F0E0D3940F500C9000A5
:1003980087E004F0E0C3946440D9900087E0600FE0
:1003A800120F237BFF7A0879B112006E7F16229014
:1003B80000BFE0FF120EBE7BFF7A0879DA12006EEA
:1003C800120D94900088EFF06003020502900087F8
:1003D800F0900938E493FF900087E0FEC39F502512
:1003E8007BFF7A08798574402EF582E43400F58322
:1003F800E0FF900098E4F0A3EFF012006E90008701
:10040800E004F080CC7BFF7A08798C12006E9000B3
:1004180044E090008AF0900944E493FF120DF490B0
:100428000088EFF060030205027BFF7A0879E81282
:10043800006E120C12900088EFF060030205029023
:100448000045E0900089F0E4900087F0900042E0D9
:10045800FF900087E0FEC39F50257BFF7A087985CF
:1004680074402EF582E43400F583E0FF900098E4B0
:10047800F0A3EFF012006E900087E004F080CD7BCF
:10048800FF7A08798C12006E90004EE090008BF095
:10049800F4703E9000C104F0A304F0A3F090005063
:1004A800E090008BF0900089E0FF120EDE9000884B
:1004B800EFF070157403120EB8120F18900088EF41
:1004C800F060037FFB227F002290008874FBF0809D
:1004D80029900089E0FF120EDE900088EFF0701A74
:1004E8009000BE7403F090008AE0FF6002800590DF
:1004F800008BE0FFEF120EB81F227BFF7A0879F617
:10050800900088E0FF900098E4F0A3EFF012006EEE
:100518009000BE7402F07F01120EBE900088E0FFCA
:0105280022B0
:100E6700C29FD29EC29DD29C438780E589540F447E
:0E0E770020F58943C9A0758DF3D28ED2992241
:100D2900C2EA75E280E4F5E39024477448F0902420
:100D39004C7400F0A37400F090244E7400F0A37476
:100D490040F0E4F5D4F5D675E28975D24075D8FF3F
:070D5900120F2375E10322D4
:100B940078837C007D017BFF7A0979727E007F0473
:100BA4001205F9120E677BFF7A09790EAFA1900046
:100BB40098E4F0A3EFF012006E120D29C2097BFF36
:100BC4007A09792212006EE4FF30D80BC2D8120CD5
:100BD400D6EFB41502D209200904EFB41512C209E4
:100BE4007FC87E00120E9F120368EF60037E00220E
:100BF4007F647E00120E9F9000BEE0B403C97B01A7
:0E0C04007A0079837D04120AF9120A5280B92F
:03000000020F0CE0
:0C0F0C00787FE4F6D8FD758121020B947B
:10052900E709F608DFFA8046E709F208DFFA803EB4
:1005390088828C83E709F0A3DFFA8032E309F608A1
:10054900DFFA8078E309F208DFFA807088828C8309
:10055900E309F0A3DFFA806489828A83E0A3F608BD
:10056900DFFA805889828A83E0A3F208DFFA804C97
:1005790080D280FA80C680D4806980F2803380106E
:1005890080A680EA809A80A880DA80E280CA8033D7
:1005990089828A83ECFAE493A3C8C582C8CCC5834F
:1005A900CCF0A3C8C582C8CCC583CCDFE9DEE7801F
:1005B9000D89828A83E493A3F608DFF9ECFAA9F09E
:1005C900EDFB2289828A83ECFAE0A3C8C582C8CCF4
:1005D900C583CCF0A3C8C582C8CCC583CCDFEADE0D
:1005E900E880DB89828A83E493A3F208DFF980CC6F
:1005F90088F0EF60010E4E60C388F0ED2402B40468
:100609000050B9F582EB2402B4040050AF2323450E
:06061900822390057973B5
:10061F00BB010689828A83E0225002E722BBFE02D9
:09062F00E32289828A83E493220C
:10063800C5F0F8A3E028F0C5F0F8E582158270024D
:060648001583E038F022EA
:10000300E5092498F582E43400F583E0050922909C
:100013000095300703900098E475F00112068D02F5
:10002300061F2000E97F2ED2008018EF540F249082
:10003300D43440D4FF30040BEF24BFB41A00500370
:100043002461FFE50A6002150A050DE50D7002053E
:100053000C30070E900095E475F00112068DEF0247
:10006300067B020E207403D2078003E4C207F5095E
:100073009000951206A4E4F50AF50CF50DE50A6067
:10008300077F2012004680F5750BFFC201C200C234
:1000930002C203C205C206C208120012FF700D306D
:1000A30007057F00120057AF0DAE0C22B4255FC2C7
:1000B300D5C204120012FF24D0B40A00501A75F0FE
:1000C3000A780A30D50508B6FF0106C6A426F6202D
:1000D300D5047002D20380D924CFB41A00EF5004A0
:1000E300C2E5D204020258D20180C6D20080C0D237
:1000F3000280BCD2D580BAD20580B47F20120046DC
:100103002002077401B50A0040F1120003FF120038
:1001130046020080D208D2068095120003FB12002B
:1001230003FA120003F94A4B700679297A037BFF1D
:1001330020022EE50A602A7E008E82758300120655
:100143004E60060EEE650B70F0C2D5EBC0E0EAC060
:10015300E0E9C0E0EE12029FD0E0F9D0E0FAD0E08F
:10016300FB12061FFF60AAEBC0E0EAC0E0E9C0E0B3
:10017300120046D0E02401F9D0E03400FAD0E0FBCD
:10018300E50B0460DCD50BD980877BFF7A02799B72
:10019300D202809C791080027908C206C2088008C6
:1001A300D2D5790A8004790AC2D5E50B047002F529
:1001B3000BE4FAFDFEFF120003FC7B08200113127F
:1001C3000003FD7B1030000A120003FE120003FF40
:1001D3007B20EC3382D592D55013C3E43000069FC5
:1001E300FFE49EFEE42001039DFDE49CFCE4CBF8C8
:1001F300C201EC700CCFCECDCCE824F8F870F380BC
:1002030017C3EF33FFEE33FEED33FDEC33FCEB337B
:10021300FB994002FB0FD8E9EB300105F8D0E0C4AD
:1002230048B201C0E00AEC4D4E4F78207B0070C20B
:10023300EAB50B0040BCC0E01202A1D0F0D0E02030
:100243000104C4C0E0C4B201C0F012002FD0F0D545
:10025300F0EB0200801206AD011D5301975800EE2A
:100263004C00EA42019B4F01A34401A3490103430C
:0802730001A955018D46018D22
:10027B0045018D4703495000F22D00F62E01192B35
:10028B0000FA2301172003322A00B24800000111A3
:10029B003F3F3F00790AA2D5200314300509B9105E
:1002AB00020404B9080104A2D5200602500104205F
:1002BB0002689202B50A005034C0E07F2030031967
:1002CB007F30A20272067205500F1202F8C202C2F0
:1002DB0006C205C2087F30800F300503E9C0E0126B
:1002EB000046300503D0E0F9D0E0B50ACC30051755
:1002FB007F30B9100C1200467F583004077F78808E
:10030B0003B908031200463002057F2D0200467F19
:10031B00202008F87F2B2006F322920280CF286E34
:10032B00756C6C2900D2011200033001F8C2017800
:10033B000A30D50108F60200B22D5043495812007D
:10034B00032403B405004001E490034493120037E7
:0D035B00743A120037D203750A04020197AC
:10064E00BB010CE58229F582E5833AF583E0225061
:10065E0006E92582F8E622BBFE06E92582F8E222AB
:0D066E00E58229F582E5833AF583E49322C5
:10067B00BB010689828A83F0225002F722BBFE015E
:02068B00F32258
:10068D00F8E0FBA3A3E0F925F0F0E58215827002F6
:07069D001583E0FA38F0229A
:0906A400EBF0A3EAF0A3E9F02257
:1006AD00D083D082F8E4937012740193700DA3A3DC
:1006BD0093F8740193F5828883E4737402936860F0
:0606CD00EFA3A3A380DFF0
:100E2000EFB40A07740D120E2B740A309811A899AA
:100E3000B8130CC2983098FDA899C298B811F63032
:070E400099FDC299F599220A
:00000001FF
