:020000040000FA
:100000000B0000EA050000EA070000EA040000EA2D
:10001000040000EA42000000220000EA230000EA97
:10002000FEFFFFEAFEFFFFEAFEFFFFEAFEFFFFEA38
:10003000FEFFFFEA50009FE5DBF021E300D0A0E1E6
:10004000000040E2D7F021E300D0A0E1000040E250
:10005000D3F021E300D0A0E1100040E2D2F021E390
:1000600000D0A0E1010C40E2D1F021E300D0A0E1FA
:10007000010C40E21FF021E300D0A0E101AB4DE212
:10008000E50000FA010000EBFEFFFFEA000082003D
:100090000CD09FE5CF0200FA00009FE510FF2FE192
:1000A0004102000000FC81000000A0E1FEFFFFEA29
:1000B0000000A0E1FEFFFFEA70B57F4C0A2120009E
:1000C00000F044FD0D000A21200000F03FFD040077
:1000D000052D00D3641C80207849C8700120C871A8
:1000E0002004000E48700C700320C870C720887070
:1000F000402048707248C06B0321090208437049D0
:10010000C8630800406B891388436D494863080041
:10011000006A491308436A49086270BD674B18704A
:10012000C046664A527920231A42FAD07047C04628
:1001300010B564A000F082FD01210903480000F021
:10014000E4E90400002C02D062A000F077FD002456
:1001500002E065490C55641C402CFAD163A000F004
:100160006DFD40226049D00100F0F0E90400002C50
:1001700002D058A000F062FD60A000F05FFD4022B8
:100180005949D00100F09EE900240BE06007400FC0
:1001900002D15DA000F052FD5348015D5BA000F06C
:1001A0004DFD641C402CF1D157A000F047FD10BD5F
:1001B00010B5002000F040EA56A000F03FFD0121FC
:1001C0000903480100F0E8E90400002C03D055A021
:1001D00000F034FD02E059A000F030FD002402E000
:1001E00041490C55641C402CFAD15AA000F026FD60
:1001F00040223D49D00200F0E8E90400002C03D081
:1002000058A000F01BFD02E05CA000F017FD61A00B
:1002100000F014FD40223449D00200F0F2E904005D
:10022000002C03D05FA000F009FD02E064A000F004
:1002300005FD502000F000EA33A000F0FFFC10BDE7
:100240001F48806A382108431D4988620800006AF7
:10025000382108431A4908620800C06A3821084357
:100260001749C862642000F0F6F81548806A382102
:10027000084313498862FFF71FFF57A000F0DEFC18
:10028000194800F0F8E860A000F0D8FC002407E06E
:100290001548015D5FA000F0D1FC601C0406240E2F
:1002A000082CF5DB18A000F0C9FCFFF741FFFFF7B1
:1002B0007FFFC046FEE700003D04000000D0400084
:1002C00080004000456570726F6D204572617365F6
:1002D0003A0A0000202020202A2A2A4572726F72D2
:1002E0002A2A2A0A00000000040081004565707275
:1002F0006F6D2057726974653A0A00004565707227
:100300006F6D20526561643A0A0000002530327832
:1003100020000000666C6173682045726173653A65
:100320000A000000202020202A2A2A4572617365D5
:10033000204572726F722A2A2A0A0000202020208B
:100340002A2A2A206572617365206F6B2A2A2A0A7D
:1003500000000000666C6173682057726974653A2A
:100360000A000000202020202A2A2A2057726974BF
:1003700065204572726F722A2A2A0A0020202020E6
:100380002A2A2A207772697465206F6B2A2A2A0A22
:1003900000000000666C61736820207665726966F3
:1003A000793A0A00202020202A2A2A2076657269BC
:1003B0006679204572726F722A2A2A0A00000000AC
:1003C000202020202A2A2A20766572696679206FEB
:1003D0006B2A2A2A0A00000045646974204461746B
:1003E0006520616E642054696D652069733A20410F
:1003F00075672032352032303135202C2031313AAA
:1004000031363A30300A0000636869702069643A16
:1004100020000000252D3278200000005720012107
:1004200089050870A82008701420C87202208872FC
:10043000BC204872802008710020087070470100BD
:1004400004E0182000E0401E0028FCD10A00491EEC
:10045000002AF6D17047010004E0054800E0401E84
:100460000028FCD10A00491E002AF6D1704700007E
:10047000465F000010402DE90040A0E1980100FA1D
:10048000010050E3010000CA0400A0E1A30000FA4B
:100490001080BDE810402DE9910100FA010050E301
:1004A000000000CAA90000FB1080BDE810402DE943
:1004B0008B0100FA010050E3000000CAA70000FA17
:1004C0001080BDE870402DE90040A0E10160A0E18E
:1004D0000250A0E1050084E0070A50E30000009A02
:1004E0007080BDE87E0100FA010050E3030000CAFD
:1004F0000520A0E10610A0E10400A0E1C20000FA7E
:100500000000A0E1F5FFFFEA70402DE90050A0E1F6
:100510000140A0E1040085E0070A50E30100009AD1
:10052000FD00A0E37080BDE86D0100FA010050E31A
:10053000030000CA0410A0E10500A0E1C60000FA13
:10054000F7FFFFEAFE00A0E3F5FFFFEA70402DE9A8
:100550000040A0E10160A0E10250A0E1050084E0BC
:10056000070A50E30100009AFD00A0E37080BDE897
:100570005B0100FA010050E3040000CA0520A0E17D
:100580000610A0E10400A0E1B90000FAF6FFFFEABE
:10059000FE00A0E3F4FFFFEA70402DE90040A0E177
:1005A0000150A0E14E0100FA010050E3030000CA2F
:1005B0000510A0E10400A0E1C80000FB7080BDE8C8
:1005C000FE00A0E3FCFFFFEA70402DE90040A0E13F
:1005D0000150A0E10260A0E1410100FA010050E3F6
:1005E000040000CA0620A0E10510A0E10400A0E17B
:1005F000C00000FB7080BDE8FE00A0E3FCFFFFEA46
:1006000070402DE90040A0E10150A0E10260A0E1AE
:10061000330100FA010050E3040000CA0620A0E103
:100620000510A0E10400A0E1F80000FA7080BDE828
:10063000FE00A0E3FCFFFFEA10402DE90040A0E12E
:10064000270100FA010050E3020000CA0400A0E103
:100650002C0100FA1080BDE8FE00A0E3FCFFFFEAD9
:1006600000210122920591760721917611000876EA
:100670007047C04601208005807E80210842F9D164
:1006800000200121890588767047C046012189052F
:10069000897E80221142F9D10121890508767047AF
:1006A000C04601208005807E80210842F9D10120CA
:1006B0008005007E704700B503001902080EFFF7A1
:1006C000E4FF1904080EFFF7E0FF1806000EFFF71D
:1006D000DCFF00BD00B503000620FFF7C1FFFFF7F8
:1006E000C8FF1800FFF7BCFF00BD10B5FFF7C1FF42
:1006F00000240FE00520FFF7B3FFFFF7D1FFFFF75E
:10070000CFFF0300FFF7B5FFD807C00F01D10020CE
:1007100010BD641C0520C0048442EBD3FF20F7E722
:1007200070B504004B20FFF79BFF0020FFF7C3FFCD
:10073000FFF7B6FFFFF7B4FF25000726C046FFF717
:10074000AFFFA8553000761E0028F8D1FFF791FFC3
:1007500070BD00B5B920FFF783FFFFF78AFF00BD2A
:1007600000B5AB20FFF77CFF002302E0FFF781FF1D
:100770005B1C322BFADB00BDF7B504000D00EF4F18
:10078000200038404519ED192800B8430500200025
:10079000B84304000298844201D3FE20FEBD6019D4
:1007A0000299884201D9FA20F8E76004400C15D17B
:1007B00010E05220FFF78EFF2000FFF77CFFFFF7CD
:1007C00094FF0600002E01D03000E7E70120C003AF
:1007D00024182D1A0120C0038542EAD210E02020FF
:1007E000FFF778FF2000FFF766FFFFF77EFF0600A8
:1007F000002E01D03000D1E70120000324182D1A6B
:10080000012000038542EAD20020C7E7F7B50400C3
:100810001500019F0F20C00324180120C00484424A
:1008200000D3FEBD0120C004061BB54200D935002F
:100830000B20FFF715FF2000FFF73DFFFFF730FF0C
:10084000FFF72EFF03E0FFF72BFF38707F1C280017
:100850006D1E0028F7D1FFF70CFFE2E730B504006A
:100860000D000122D20429000F20C0032018FFF739
:1008700083FF30BDF7B504000D000F20C00324181E
:100880000120C004844201D3FE20FEBD029820183E
:100890000121C904884201D9FA20F6E72E001BE0A5
:1008A0000220FFF717FF2000FFF705FFC046307852
:1008B000761CFFF7EAFE641C0298401E029000D1ED
:1008C00002E02006000EF2D1C046FFF70EFF07003F
:1008D000002F01D03800D8E702980028E0D100208E
:1008E000D3E730B504000D000F22D2032900012008
:1008F00080042018FFF740FF30BDF7B584B0040036
:100900001500059803908E480440012080042418A7
:100910000F20C003844202D3FE2007B0F0BD60194F
:100920000F21C903884201D9FA20F6E7AD08854FA7
:100930008548009068E00220FFF7CCFE2000FFF71A
:10094000BAFEC04603980068029001900398001D0B
:10095000039002987840029008210198084204D040
:1009600001214907029848400290009902980840E6
:100970000290012189030198084204D001218904D1
:10098000029808430290012189040198084204D08A
:100990000121890302980843029001214906019828
:1009A000084204D00121C90602980843029001219F
:1009B000C9060198084204D001214906029808435B
:1009C000029002990806000EFFF75FFE02990904E3
:1009D000080EFFF75AFE02990902080EFFF755FEAE
:1009E0000299080EFFF751FE241D681E050000D174
:1009F00002E02006000EA5D1C046FFF776FE0600F5
:100A0000002E01D0300088E7002D94D1002084E72B
:100A1000F7B583B004001500049E0120800424185B
:100A20000F20C003844202D3FE2006B0F0BDAD0803
:100A300044480190444800900B20FFF711FE20002D
:100A4000FFF739FEFFF72CFEFFF72AFE41E0FFF724
:100A500027FE0200FFF724FE00020243FFF720FEFC
:100A600000040243FFF71CFE000602431700029237
:100A70003A000198424017000820029A024202D030
:100A80000120400747400098074001218903029850
:100A9000084202D001208004074301218904029802
:100AA000084202D001208003074301214906029831
:100AB000084202D00120C00607430121C90602985E
:100AC000084202D001204006074302CEB94200D0BE
:100AD00003E028006D1E0028B9D1C046FFF7C9FD0C
:100AE000681CA2E700B53520FFF7BAFDFFF7D8FD77
:100AF000FFF7D6FDC3100020012189058876072065
:100B000058404007400F00BD10B504000120FFF71A
:100B1000E1FD7C2121400800FFF7B7FD002C04D047
:100B200020210C4201D1422100E002210806000EE2
:100B3000FFF7ABFDFFF7D9FD10BD0000FF0F000070
:100B4000FCFFFF0F80800001FFBFFBF50B000100E1
:100B50000020202230B5012409E00D00D5409D423F
:100B600005D31D009540491B2500954040191500EF
:100B7000521E002DF1DC30BDF0B506001FB4002080
:100B800082B005004024019100901BE001992200F1
:100B90000F00300000F040F8049A059B801A99413C
:100BA00010D310001900220000F026F8361A8F41E9
:100BB0000197009F22000120002100F01DF8381845
:100BC0004D4100902000641E0028DFDC019B00984E
:100BD0002900320007B0F0BD054C064D03E02000AF
:100BE0000FC898471034AC42F9D3FFF756EA00001B
:100BF0001411000034110000202A10B504DB01009C
:100C0000203A9140002010BD914020239C1A0300FF
:100C1000E3401943904010BD202A10B504DB0800C2
:100C2000203AD040002110BD0B00D340D0402024FA
:100C3000A21A91400843190010BD00000FB410B56E
:100C4000044B054A029803A900F024F810BC08BC24
:100C500004B018471D01000000008100020000EAF6
:100C6000043090E4042042E2043081E4000052E3C6
:100C7000FAFFFF1A1EFF2FE11EFF2FE10000A0E385
:100C8000000052E30420421204008114FBFFFF1A0B
:100C90001EFF2FE1FFB591B005000F000026F2E026
:100CA000252876D10024FD496D1C0123009402946F
:100CB0002A781800203A904002000A4202D00443E9
:100CC0006D1CF5E728782A280ED00222287801002A
:100CD0003039092915D800990A235943144330396A
:100CE00040186D1C0090F1E701CF0090002805DA54
:100CF0000120400304430098404200900220044336
:100D00006D1C28782E2815D1042004436D1C2878EA
:100D10002A280AD101CF6D1C02900BE002990A2209
:100D20005143303940186D1C029028780100303949
:100D30000929F3D928786C2810D006DC4C281AD061
:100D400068280ED06A2817D104E0742813D07A28B6
:100D500012D110E00120400504430CE001210905F7
:100D600001E0032109050C436978814203D1012088
:100D70006D1C000524186D1C28786E2886461FD02F
:100D80000DDC632833D005DC00287ED0582812D132
:100D9000BCE010E0642801D069280CD17FE0732802
:100DA0002ED004DC6F2871D0702804D1B0E07528F3
:100DB0006DD078286CD0149A13999047761C61E016
:100DC0006002400F022807D003280AD004283868A0
:100DD0000AD03F1D066055E001CFF1170660416063
:100DE00050E001CF06804DE03F1D06704AE001CF84
:100DF000694608740020487404A80390012003E0A9
:100E000001CF03900020C04361070FD5002101E00E
:100E10000199491C029A0191914213DA8142F7DB50
:100E2000019A0399895C0029F2D10BE0002101E0CD
:100E30000199491C81420191FADB019A0399895C6D
:100E40000029F5D101990098139A401A0090149B3B
:100E5000210000F049F901998019461807E003982C
:100E600003990078491C149A0391139990470198AB
:100E7000401E0190F3D2149B139A0098210000F0B9
:100E800023F986196D1C287803E005E049E03BE072
:100E90003CE0002800D003E7300015B0F0BD0A2088
:100EA0000021049060020591410F022905D001CF75
:100EB000C2170329944607D00AE0FF1DFF08FF0070
:100EC00079683868083708E000040014C2179446AF
:100ED000042903D100060016C1178C4600218C4559
:100EE000624604DA404291418C462D2102E0210500
:100EF00004D52B216A461176012103E0E10701D0D8
:100F00002021F7E7019155E00A200BE0102009E0CD
:100F10001020049000210420044308200591029031
:100F200003E008200021059104906002410F02298E
:100F300005D0002201CF0329944607D00AE0FF1D07
:100F4000FF08FF0079683868083708E00004000CE3
:100F500000229446042903D10006000E00218C468D
:100F600000210191210725D5714670292BD0049AC3
:100F7000059B10214A401A4309D16146014306D01E
:100F800030216A4611767146517602210191049A08
:100F9000059B08214A401A430CD16146014301D107
:100FA000610707D530216A46117601210191029926
:100FB000491E02917246582A39A100D03DA10391E1
:100FC0000FA90F9110E040216A4611760121DDE75B
:100FD000059B049A6146FFF7CFFD039B8C469B5C03
:100FE0000F9A521E0F92137061460143F0D10F9871
:100FF00007A9081A20300390600703D501200004D8
:10100000844301E001200290039A0299002091425A
:1010100000DD881A81180290019809180098401A7A
:101020000090E00306D4149B139A0098210000F06E
:101030005BF88619002008E0049906A8405C149A21
:10104000139990470498761C401C0199049088429B
:10105000F2DBE0030CD5149B139A0098210000F0FA
:1010600043F8861904E0149A139930209047761CAF
:101070000299481E00290290F5DC08E00F980F99AC
:101080000078491C0F91149A13999047761C039984
:10109000481E00290390F1DCEDE60000092801005C
:1010A000303132333435363738394142434445469E
:1010B0000000000030313233343536373839616260
:1010C0006364656600000000F8B5040017001E00A8
:1010D0000025880404D405E039002020B0476D1CA9
:1010E000641EF9D52800F8BDFFB581B004001E00CC
:1010F00000253027C80300D42027880404D505E044
:1011000003993800B0476D1C641EF9D5280005B05E
:10111000F0BD000034110000000081000400000058
:101120005C0C000038110000040081001400000075
:081130007C0C0000000000002F
:0400000500000000F7
:00000001FF
