:1035440012011001FF8055084843E05500010000B6
:103554000001090220000101008032090400000278
:10356400FF80550007058202400000070502024063
:02357400000055
:0335B800012100EE
:103576008E858F848C8F8D8EE58630E60B75869AC8
:0B358600E5866440547FFF227F402256
:1034CF008E278F28E4F51AF51BE51B65197004E5A7
:1034DF001A6518602B1232D8FF852882852783E45E
:1034EF00936F60037FFF220528E52870020527747C
:1034FF000129F9E43AFA051BE51B70CD051A80C9BD
:02350F007F003B
:013511002297
:0F35A900900048EFF0E4A3F075D50253D4FC2254
:1032F100900088E0247F70030233A314700302332B
:10330100A71470030233DD240360030233E7900046
:1033110089E0C313750D00F50E90008BE0FE90005F
:103321008AE0FDEDFFE48F128E11F510F50F75A106
:103331005575A1AA43B10CFBFAEB650E7003EA6562
:103341000D6051EB25E0FFEA33FE748D2FF5827499
:10335100003EF583E0FCEB25E0FFEA33FE748C2FA1
:10336100F58274003EF583E0FFEFFDAE11AF12125E
:103371003576C9EFC9E5122402F512E43511F511CC
:10338100E43510F510E4350FF50FE970070BBB00BC
:10339100010A80A575A15575A1AA53B1F3CFE9CF53
:1033A1008046E4FF804290008BE0FE90008AE0FDC1
:1033B100EDFFE48F128E11F510F50F900089E0C337
:1033C10013750D00F50EAF127B017A00798CE07553
:1033D1001800F5191234CFC9EFC9800C75A15575C4
:0B33E100A1AA43B110227FFE1235A903
:0133EC0022BE
:1030040020D9030231C230DF030231BFE5D9543F76
:1030140070030231BC24E0700302316A14603E1470
:10302400603024F26042242E60030231BF20DE03AC
:103034000231BF85DB0CAF0C7E0078887C007D01FB
:103044007B017A0079081232B27526021232F1023B
:1030540031BFE5D454FC4402F5D40231BFE5D25467
:10306400FC4402F5D20231BF85DB0CE50C64086038
:1030740003023146900006E0F51DA3E07007E51D4C
:10308400D3947F4003751D7FE4F50C900000E05459
:10309400606003023146900001E0F51CE51C24FB4E
:1030A400607C24FD700302312A14700302313C2435
:1030B400036003023144900003E024FE60110470B5
:1030C4001C751EFF751F35752044750C1280117513
:1030D4001EFF751F35752056750C208003750CFF77
:1030E400E51DD3950C4003850C1DE51DC3940840D4
:1030F400047F088002AF1D8F0C7E0078007C007D69
:1031040001AB1EAA1FA9201232B2C3E51D950CF50E
:103114001DE50C2520F520E4351FF51F80279000C0
:1031240002E0F51D801F900000E521F0E51DC39429
:10313400014012750C01800D900002E0F52180051C
:103144008000750CFFE50CB4FF08751CFF75DCCF1F
:103154008069E50CD394085005850CDD8003E4F503
:10316400DD75DCC08055E51C24FB603D147044E52E
:103174001DC3940840047F088002AF1D8F0C7E009D
:1031840078007C007D01AB1EAA1FA9201232B2C3B5
:10319400E51D950CF51DE50C2520F520E4351FF5FE
:1031A4001F850CDD63DC408012E5E35480451DF58A
:1031B400E38005E4F5DD800075DC02C2D92230D855
:1031C4001375DC0275D21075D412E4F5E3C2DAC2C9
:0D31D400D9C2D82230DA03C2DA2275D8FF42
:0131E10022CB
:10351200C2EAE4F5E275EA4075EB0C75ED0075EC74
:103522000075E50075E40875DC0275D21075D412D9
:10353200F5E375D18075E22943D10175D8FF75E1B4
:0235420007225E
:10359100EF7803C333CE33CED8F9FFEF4E60080086
:0835A100EF1F70F71E80F422F9
:10347900E4F508F509C2AFF5261235120509E50983
:1034890070020508050BE50B7002050AD3941EE5C9
:103499000A9400400CE4F50AF50BE5D860031230F4
:1034A90004E50964207004E508644E7004F508F524
:1034B900097F017E001235912090C175A15575A132
:0634C900AA43B11080B619
:030000000233EDDB
:0C33ED00787FE4F6D8FD758128023434A6
:1031E200E709F608DFFA8046E709F208DFFA803ECF
:1031F20088828C83E709F0A3DFFA8032E309F608BC
:10320200DFFA8078E309F208DFFA807088828C8323
:10321200E309F0A3DFFA806489828A83E0A3F608D7
:10322200DFFA805889828A83E0A3F208DFFA804CB1
:1032320080D280FA80C680D4806980F28033801088
:1032420080A680EA809A80A880DA80E280CA8033F1
:1032520089828A83ECFAE493A3C8C582C8CCC58369
:10326200CCF0A3C8C582C8CCC583CCDFE9DEE78039
:103272000D89828A83E493A3F608DFF9ECFAA9F0B8
:10328200EDFB2289828A83ECFAE0A3C8C582C8CC0E
:10329200C583CCF0A3C8C582C8CCC583CCDFEADE27
:1032A200E880DB89828A83E493A3F208DFF980CC89
:1032B20088F0EF60010E4E60C388F0ED2402B40482
:1032C2000050B9F582EB2402B4040050AF23234529
:0632D200822390323273EA
:1032D800BB010689828A83E0225002E722BBFE02F4
:0932E800E32289828A83E4932227
:1033F900023479E493A3F8E493A34003F68001F23D
:1034090008DFF48029E493A3F85407240CC8C333D4
:10341900C4540F4420C8834004F456800146F6DFA3
:10342900E4800B01020408102040809035B8E47E46
:10343900019360BCA3FF543F30E509541FFEE49398
:10344900A360010ECF54C025E060A840B8E493A35F
:10345900FAE493A3F8E493A3C8C582C8CAC583CA8A
:10346900F0A3C8C582C8CAC583CADFE9DEE780BE42
:0135BB00000F
:00000001FF
