:100A54007374617274202E2E2E0A002530325820B1
:100A6400204144435F4441544131202530345820CF
:100A7400200A001201100100000008315107200073
:100A8400000000000109022900010104A023090457
:100A940000000203000005092100010001222200D8
:100AA40007058203400018070502034000180600EA
:100AB400FF0901A101090215002600FF75089540F0
:100AC4008106090215002600FF750895409106C0AD
:0A0C430075A15575A1AA75A1FF2245
:0E0C1C00EF4E600905A1EF1F70F61E80F32257
:100BF400AD07AC06ED4C600E7FE87E03120C1CEDD5
:070C04001D70F11C80EE22BF
:0D0C2A0043C60143C40843C50C43CE10224D
:1009BF00C29FD29EC29DC2CDC2CC4387809000D22F
:1009CF001208F000000082E47B0AFAF9F89000D2D6
:1009DF00E0FCA3E0FDA3E0FEA3E0FF1208529000AD
:1009EF00D6EBF09000D2E0FCA3E0FDA3E0FEA3E085
:1009FF00FFE47B0AFAF9F81208529000D21208E4C9
:100A0F009000D6E0C39405401F9000D2E0FCA3E015
:100A1F00FDA3E0FEA3E02401FFE43EFEE43DFDE480
:100A2F003CFC9000D21208E4E589540F4420F5896C
:100A3F0043C9A09000D2A3A3A3E0F404F58DD28EF6
:040A4F00D299D29CCA
:010A53002280
:080C4D003098FDC298AF992216
:080C55008F993099FDD299221C
:100BC100E4F5E253E27F43E229F5E353E4BF53E264
:0B0BD100BF53E4FB43E43043E4012287
:100C0B0043E10443E10243E10143D81FD2EAD2AFEF
:010C1B0022B6
:100B4B0090244C7400F0A37410F0902447E04404FC
:100B5B00F0E04408F0E054FEF075D412A37400F0FA
:0F0B6B00A37400F0902446E054F3F075DC0222EE
:100BA1009000D2EFF07E0078507C007D017B017ACD
:100BB1000079901207DA9000D2E0F5D553D4FC22E7
:030043000203AB0A
:0D03AB00C0E0C0F0C083C082C0D075D00893
:1003B80020D9030206BFE5D9543F70030206AF24D3
:1003C800E0700302063E24F06015240E6003020666
:1003D800BB75D500E5D454FC4402F5D40206BB90A5
:1003E80000D0E5D1F0E06408600302061290000630
:1003F800E09000FDF0900007E070099000FDE0D368
:10040800947F40069000FD747FF09000D0E4F09057
:100418000000E054606003020612900001E09000C2
:10042800FEF0B40B004003020610900439F82828A7
:10043800730205F302054202061002057D0206104A
:1004480002050F02045A02061002051A02053702B5
:100458000618900003E024FE601E24E0603024218A
:10046800704890010974FFF0A3740AF0A37477F040
:100478009000D07412F0803890010974FFF0A374D2
:100488000AF0A37489F09000D07429F080229001BA
:100498000974FFF0A3740AF0A374B2F09000D0744A
:1004A80022F090010C7401F080069000D074FFF0E7
:1004B8009000D0E0FF9000FDE0D39F4002EFF09065
:1004C80000FDE0FFC3940840047F0880009000D03E
:1004D800EFF07E0078007C007D01900109E0FBA32D
:1004E800E0FAA3E0F91207DA9000FDE0FF9000D0EF
:1004F800E0FEC3EF9E9000FDF0EEFF90010AE48F4E
:10050800F0120800020618900002E09000FDF002C8
:1005180006189000FAE0900000F09000FDE0C39407
:100528000150030206189000D07401F002061890DA
:100538000002E09000FAF0020618900000E0541F54
:100548006402702E900004E024FE601D2481600E79
:1005580014701CE5D454BC4402F5D4020618E5D244
:1005680054BC4402F5D202061853D473020618028A
:100578000612020612900000E0541FFD701B900046
:1005880003E0FE900002E0FBEB64014E7009900A64
:10059800909320E57B80738071ED6402704B90002E
:1005A80003E0FE900002E0FDED4E703B900005E098
:1005B800FE900004E0FDEDFFEE702AEF24FE6011CE
:1005C8002481601714701EE5D454BF4403F5D48009
:1005D8003FE5D4547F440CF5D48035E5D254BF446C
:1005E80003F5D2802B80238021801F900000E4F047
:1005F800A3F09000FDE0FFC394029000D040057482
:1006080002F0800CEFF0800880009000D074FFF0BA
:100618009000D0E0FFB4FF0C9000FE74FFF075DC92
:10062800CF0206BBEFD3940850048FDD800375DD3D
:100638000075DCC0807D9000FEE024FB60531470E0
:100648005E9000FDE0FFC3940840047F088000909E
:1006580000D0EFF07E0078007C007D01900109E079
:10066800FBA3E0FAA3E0F91207DA9000FDE0FF909F
:1006780000D0E0FEC3EF9E9000FDF0EEFF90010A6F
:10068800E48FF01208009000D0E0F5DD63DC4080D4
:1006980022E5E35480FF9000FDE04FF5E380037509
:1006A800DD0075DC02800C9000D0E5D1F075DD002E
:1006B80075DC00C2D9804030D81475DC0275D210C0
:1006C80075D41275E300C2DAC2D9C2D8802930DAEB
:1006D80023C2DAE5DA30E21FE5A220E7FB75A1556F
:1006E80075A1AA75EB8143870275A15575A1AA75F5
:0706F800EB00800375D8FF41
:0B06FF00D0D0D082D083D0F0D0E03209
:100BDC00E4F5B943F60475EF0253F2F053F2CF4348
:080BEC00F7047F64FE020C1CFB
:100003008FF37F0A7E00120C1C43F2807F057E0073
:10001300120C1C53F27FE5F130E4FB43F110900026
:10002300FFE5F5F0A3E5F4F09000FFE0FCA3E0FDAD
:09003300EC900090F0A3EDF02226
:100AD4007F1E7E00120BF41209BF7BFF7A0A795441
:100AE4001200B1120BDC9000FFE5F5F0A3E5F4F081
:100AF400120BC1120B4B120C0BE4F5D3F5D590007D
:100B0400FCF090010CF090010CE060FA2080F77F7B
:100B1400011200037BFF7A0A795FE5F15403FF9029
:100B240000D5E4F0A3EFF09000FFE0FFA3E0900015
:100B3400D7CFF0A3EFF01200B17F02120BA17F64B4
:070B44007E00120BF480BFDC
:03000000020C37B8
:0C0C3700787FE4F6D8FD758121020AD414
:10070A00E709F608DFFA8046E709F208DFFA803ED1
:10071A0088828C83E709F0A3DFFA8032E309F608BE
:10072A00DFFA8078E309F208DFFA807088828C8326
:10073A00E309F0A3DFFA806489828A83E0A3F608DA
:10074A00DFFA805889828A83E0A3F208DFFA804CB4
:10075A0080D280FA80C680D4806980F2803380108B
:10076A0080A680EA809A80A880DA80E280CA8033F4
:10077A0089828A83ECFAE493A3C8C582C8CCC5836C
:10078A00CCF0A3C8C582C8CCC583CCDFE9DEE7803C
:10079A000D89828A83E493A3F608DFF9ECFAA9F0BB
:1007AA00EDFB2289828A83ECFAE0A3C8C582C8CC11
:1007BA00C583CCF0A3C8C582C8CCC583CCDFEADE2A
:1007CA00E880DB89828A83E493A3F208DFF980CC8C
:1007DA0088F0EF60010E4E60C388F0ED2402B40485
:1007EA000050B9F582EB2402B4040050AF2323452C
:0607FA00822390075A73F0
:10080000C5F0F8A3E028F0C5F0F8E5821582700283
:060810001583E038F02220
:1008160075F008758200EF2FFFEE33FECD33CDCC99
:1008260033CCC58233C5829BED9AEC99E58298401C
:100836000CF582EE9BFEED9AFDEC99FC0FD5F0D6F9
:10084600E4CEFBE4CDFAE4CCF9A88222B800C1B923
:100856000059BA002DEC8BF084CFCECDFCE5F0CB61
:10086600F97818EF2FFFEE33FEED33FDEC33FCEB9A
:1008760033FB10D703994004EB99FB0FD8E5E4F955
:10088600FA227818EF2FFFEE33FEED33FDEC33FC42
:10089600C933C910D7059BE99A4007EC9BFCE99A36
:1008A600F90FD8E0E4C9FAE4CCFB2275F010EF2F7B
:1008B600FFEE33FEED33FDCC33CCC833C810D7077B
:1008C6009BEC9AE899400AED9BFDEC9AFCE899F8B6
:0E08D6000FD5F0DAE4CDFBE4CCFAE4C8F92249
:0C08E400ECF0A3EDF0A3EEF0A3EFF02287
:1008F000A8828583F0D083D08212090712090712DB
:100900000907120907E473E493A3C583C5F0C583FF
:10091000C8C582C8F0A3C583C5F0C583C8C582C851
:0109200022B4
:10004600E51024D5F582E43400F583E0051022900E
:1000560000D23007039000D5E475F0011209790249
:1000660009212000E97F2ED2008018EF540F24903A
:10007600D43440D4FF30040BEF24BFB41A0050032D
:100086002461FFE511600215110514E514700205DF
:100096001330070E9000D2E475F001120979EF02D1
:1000A6000967020B7A7403D2078003E4C207F510CE
:1000B6009000D2120990E4F511F513F514E51160DC
:1000C600077F2012008980F57512FFC201C200C2A7
:1000D60002C203C205C206C208120055FF700D30E7
:1000E60007057F0012009AAF14AE1322B4255FC233
:1000F600D5C204120055FF24D0B40A00501A75F078
:100106000A781130D50508B6FF0106C6A426F620E2
:10011600D5047002D20380D924CFB41A00EF50045C
:10012600C2E5D20402029BD20180C6D20080C0D2B0
:100136000280BCD2D580BAD20580B47F2012008955
:100146002002077401B5110040F1120046FF1200AB
:10015600890200C3D208D2068095120046FB12001F
:1001660046FA120046F94A4B7006796C7A037BFF11
:1001760020022EE511602A7E008E82758300120908
:100186003A60060EEE651270F0C2D5EBC0E0EAC02A
:10019600E0E9C0E0EE1202E2D0E0F9D0E0FAD0E009
:1001A600FB120921FF60AAEBC0E0EAC0E0E9C0E06B
:1001B600120089D0E02401F9D0E03400FAD0E0FB47
:1001C600E5120460DCD512D980877BFF7A0279DEDE
:1001D600D202809C791080027908C206C208800883
:1001E600D2D5790A8004790AC2D5E512047002F5DF
:1001F60012E4FAFDFEFF120046FC7B0820011312F2
:100206000046FD7B1030000A120046FE120046FF33
:100216007B20EC3382D592D55013C3E43000069F81
:10022600FFE49EFEE42001039DFDE49CFCE4CBF884
:10023600C201EC700CCFCECDCCE824F8F870F38078
:1002460017C3EF33FFEE33FEED33FDEC33FCEB3338
:10025600FB994002FB0FD8E9EB300105F8D0E0C46A
:1002660048B201C0E00AEC4D4E4F78207B0070C2C8
:10027600EAB5120040BCC0E01202E4D0F0D0E020A3
:100286000104C4C0E0C4B201C0F0120072D0F0D5BF
:10029600F0EB0200C312099901605301DA580131EB
:1002A6004C012D4201DE4F01E64401E64901464379
:0802B60001EC5501D04601D016
:1002BE004501D047038C5001352D01392E015C2BA1
:1002CE00013D23015A2003752A00F5480000015410
:1002DE003F3F3F00790AA2D5200314300509B9101B
:1002EE00020404B9080104A2D5200602500104201C
:1002FE0002689202B511005034C0E07F203003191D
:10030E007F30A20272067205500F12033BC202C268
:10031E0006C205C2087F30800F300503E9C0E01227
:10032E000089300503D0E0F9D0E0B511CC300517C7
:10033E007F30B9100C1200897F583004077F788007
:10034E0003B908031200893002057F2D0200897F50
:10035E00202008F87F2B2006F322920280CF286EF1
:10036E00756C6C2900D2011200463001F8C201787A
:10037E001130D50108F60200F52D504349581200F0
:10038E00462403B405004001E49003879312007ADB
:0D039E00743A12007AD2037511040201DADC
:10092100BB010689828A83E0225002E722BBFE02D4
:09093100E32289828A83E4932207
:10093A00BB010CE58229F582E5833AF583E0225072
:10094A0006E92582F8E622BBFE06E92582F8E222BC
:0D095A00E58229F582E5833AF583E49322D6
:10096700BB010689828A83F0225002F722BBFE016F
:02097700F32269
:10097900F8E0FBA3A3E0F925F0F0E5821582700207
:070989001583E0FA38F022AB
:09099000EBF0A3EAF0A3E9F02268
:10099900D083D082F8E4937012740193700DA3A3ED
:1009A90093F8740193F5828883E473740293686001
:0609B900EFA3A3A380DF01
:100B7A00EFB40A07740D120B85740A309811A899FC
:100B8A00B8130CC2983098FDA899C298B811F630DB
:070B9A0099FDC299F59922B3
:00000001FF
