:030A0100010B00E6
:1009AE00750B32D2AFC2A9758901758CFE850B8A83
:0309BE00D28C22B6
:03000300020901EE
:0D090100C0E0C0F0C083C082C0D075D0003F
:10090E007F2212097F1209C1EF24F6602624087097
:10091E00227F2812097F1209C18F09750800E50888
:10092E00C3950950131209C1740D2508F8A60705C1
:08093E000880EB7F2312097F02
:0B094600D0D0D082D083D0F0D0E032BF
:03000B000209F1F6
:0909F100758CFE850B8AB2B6324A
:10088C007812E6B40A00506C90089BF82828730282
:10089C0008B90208C10208C90208D10208D9020825
:1008AC00E10208E90208F10208F90208FD7813E6F2
:1008BC0024FF9290227813E624FF9291227813E67B
:1008CC0024FF9292227813E624FF9293227813E667
:1008DC0024FF9294227813E624FF9295227813E653
:1008EC0024FF9296227813E624FF929722E4F59047
:0508FC00227590FF22AF
:10099A007812E614600604700AC2A922D2A9781352
:0409AA00E6F50B2241
:100951001209E47F1512097F7F021209D4C288D2DD
:10096100A8D2AF1209AE780DE670FB7811E61460DB
:0E097100080470F212088C80ED12099A80E8DA
:0609FA00E4FF0FBF02FC48
:010A000022D3
:0C09E400E4FFE4FE0EBEFAFC0FBFC8F6F4
:0109F00022E4
:10097F00AE071209FA8E80D2B7D2B4C2B3C2B5D2C3
:0B098F00B5D2B3C2B77580FF0209FAB1
:1009D4008F80C2B7C2B3C2B5D2B5D2B37580FF227D
:1009C1007580FFC2B7C2B3C2B4AF80D2B4D2B3751F
:0209D10080FFA5
:0109D3002201
:03000000020800F3
:0C080000787FE4F6D8FD75818C02084773
:10080C00020951E493A3F8E493A34003F68001F2A8
:10081C0008DFF48029E493A3F85407240CC8C333ED
:10082C00C4540F4420C8834004F456800146F6DFBC
:10083C00E4800B0102040810204080900A01E47E41
:10084C00019360BCA3FF543F30E509541FFEE493B1
:10085C00A360010ECF54C025E060A840B8E493A378
:10086C00FAE493A3F8E493A3C8C582C8CAC583CAA3
:10087C00F0A3C8C582C8CAC583CADFE9DEE780BE5B
:010A040000F1
:00000001FF
