:10021B0075A15575A1AAE5B954F84404F5B9E4F5EF
:02022B00A1220E
:0E023F00EF4E600905A1EF1F70F61E80F3223E
:10000300CDEFCDCCEECCED4C600E7FE87E0312023B
:090013003FED1D70F11C80EE228E
:04027B0043C6102244
:10010C00C29FD29EC29DC2CDC2CC438780E4751CD7
:10011C000D751B03F51AF5197B0AFAF9F8AF1CAE2D
:10012C001BAD1AAC1912007ACFEBCF8F1DAF1CAEE2
:10013C001BAD1AAC19E47B0AFAF9F812007A8F1C81
:10014C008E1B8D1A8C19E51DC394054011EF2401EB
:10015C00F51CE43EF51BE43DF51AE43CF519E58984
:10016C00540F4420F58943C9A0E51CF404F58DD245
:05017C008ED299D29C17
:01018100225B
:080033003098FDC298AF99223C
:080263008F993099FDC2992228
:0A025900C2C7D2C5D2C475C2B222DA
:08026B0030C0FDC2C0AFC1228A
:080273008FC130C1FDD2C12290
:10001C0075A15575A1AAEF600543B101800353B1D9
:07002C00FEE4F5A1F5FF223F
:03027F008FFF22CC
:10022D007597FF7FF47E0112000363B0FFE4F59034
:02023D0080F14E
:10018200E4FFF518FE7D05E5C354F84E04F5C3CC33
:10019200EDCC1DEC600EE5C330E7FBACC4EC540FB4
:1001A2002FFF80EBEF75F0058424F0FDE434075552
:1001B200C5FCE5C45DFDEE25E02410F8C6ECC608DA
:0901C200C6EDC60EBE04BED2E972
:0101CB002211
:10020700EFC39406500BE5C354F84F04F5C37F00C2
:04021700227FFF2221
:03003B000201CCF3
:0701CC00C0E0C0D075D008AF
:1001D300AFC4AEC5E5C35407FDD39403400553C371
:1001E300F8800205C3ED25E02410F8E6FA08E624BA
:0F01F300ECFBEA34FFFAC3EF9BEE9A50028D1833
:05020200D0D0D0E03275
:0300000002024DAC
:0C024D00787FE4F6D8FD75811D02022DBB
:10003E0075F008758200EF2FFFEE33FECD33CDCC79
:10004E0033CCC58233C5829BED9AEC99E5829840FC
:10005E000CF582EE9BFEED9AFDEC99FC0FD5F0D6D9
:10006E00E4CEFBE4CDFAE4CCF9A88222B800C1B903
:10007E000059BA002DEC8BF084CFCECDFCE5F0CB41
:10008E00F97818EF2FFFEE33FEED33FDEC33FCEB7A
:10009E0033FB10D703994004EB99FB0FD8E5E4F935
:1000AE00FA227818EF2FFFEE33FEED33FDEC33FC22
:1000BE00C933C910D7059BE99A4007EC9BFCE99A16
:1000CE00F90FD8E0E4C9FAE4CCFB2275F010EF2F5B
:1000DE00FFEE33FEED33FDCC33CCC833C810D7075B
:1000EE009BEC9AE899400AED9BFDEC9AFCE899F896
:0E00FE000FD5F0DAE4CDFBE4CCFAE4C8F92229
:00000001FF
