:100046005743485F4346472054585420007573620F
:1000560000436F6E6669670A0073757370656E6438
:100066000A00457272457030526571436F64653D92
:10007600253032580A004572724570305265715308
:10008600697A650A00457272456E647020494E545D
:100096000A0072657365740A0053757370656E6441
:1000A6000A004177616B650A00556E6B6E6F776E5D
:1000B600205553425F494E545F46473A30582530E3
:1000C60032780A007374617274202E2E2E0A001282
:1000D600011001000000084433333500010102001D
:1000E6000109022000010100A032090400000208F3
:1000F6000650000705010240000007058102400086
:1001060000040309040E037700630068002E0063F1
:10011600006E000C03430048003500350034000033
:10012600008002021F0000007763682E636E2020A5
:10013600C7DFBAE3B5E7D7D355C5CCB7BDB0B8006E
:10014600312E31300000003F000002000B00000895
:100156000000004000000200EB3C904D53444F531A
:10016600352E3000020106000200024000F80100B0
:10017600010001000000000000000000800029C30B
:10018600A520D84E4F204E414D45202020204641E7
:100196005431322020200000000000000000000042
:1001A6000000000000000000000000000000000049
:1001B6000000000000000000000000000000000039
:1001C6000000000000000000000000000000000029
:1001D6000000000000000000000000000000000019
:1001E6000000000000000000000000000000000009
:1001F60000000000000000000000000000000000F9
:1002060000000000000000000000000000000000E8
:1002160000000000000000000000000000000000D8
:1002260000000000000000000000000000000000C8
:1002360000000000000000000000000000000000B8
:1002460000000000000000000000000000000000A8
:100256000000000000000000000000000000000098
:100266000000000000000000000000000000000088
:100276000000000000000000000000000000000078
:100286000000000000000000000000000000000068
:100296000000000000000000000000000000000058
:1002A6000000000000000000000000000000000048
:1002B6000000000000000000000000000000000038
:1002C6000000000000000000000000000000000028
:1002D6000000000000000000000000000000000018
:1002E6000000000000000000000000000000000008
:1002F60000000000000000000000000000000000F8
:1003060000000000000000000000000000000000E7
:1003160000000000000000000000000000000000D7
:1003260000000000000000000000000000000000C7
:1003360000000000000000000000000000000000B7
:1003460000000000000000000000000000000000A7
:1003560000000000000055AAF8FFFFFF0F00000094
:100366000000000000000000000000000000000087
:100376000000000000000000000000000000000077
:100386000000000000000000000000000000000067
:100396000000000000000000000000000000000057
:0E1D8C0041008E00C112C113C114410121009B
:101CF500E4F5E253E27F43E229F5E353E2BF53D132
:101D0500FB75D18043D10175EF0075EE0875EAC00A
:101D150075D21275ED0075EC0075DC02F5DDF5D3B5
:101D250043E10443E10243E10143D81FD2EAD2AFC4
:011D3500228B
:101520009000A3E0120FB9157B0016440315461274
:1015300016E51A157B1E16B12515822815822A1567
:101540007B3B0000172590008F74FFF0A37401F01F
:10155000A37426F0E47F24FEFDFC9000D4E0F8A301
:10156000E0F9A3E0FAA3E0FBD3120F58400A900081
:10157000D4120F88000000240216AFC213C2120258
:1015800017179000AAE0FFE4FCFDFE7808120F692F
:10159000C8ECC8C9EDC9CAEECACBEFCBA3E0FFEBDC
:1015A0004FFFEAFEE9FDE8FCE4FB7A02F9F8120ECF
:1015B0003B9000D4120F7C9000A6E0FFE4FCFDFEFF
:1015C0007810120F69ECC0E0EDC0E0EEC0E0EFC0B3
:1015D000E09000A5E0FFE4FCFDFE7818120F69D052
:1015E000E0FBD0E0FAD0E0F9D0E0F8EF4BFFEE4AB4
:1015F000FEED49FDEC48FCECC0E0EDC0E0EEC0E0E3
:10160000EFC0E09000A7E0FFE4FCFDFE7808120FB9
:1016100069D0E0FBD0E0FAD0E0F9D0E0F8EF4BFB86
:10162000EE4AFAED49F9EC48F8A3E0FFEB4FFFEA88
:10163000FEE9FDE8FC90011D120F7C900121740170
:10164000F00217179000947470F0E4A3F0900092E9
:10165000E0900096F0E4A3F0A3F0A3F0A3F0A3744D
:101660000AF0E4A3F0A3F0A3F0A3F0900118E09037
:1016700000A0F0E4A3F0A3F0A3F0A3F0A3F0900087
:101680008F04F0A37400F0A37494F0E47F12FEFDC5
:10169000FC9000D4E0F8A3E0F9A3E0FAA3E0FBD3C8
:1016A000120F58400A9000D4120F880000001280D8
:1016B00066E47F08FEFDFC9000D4E0F8A3E0F9A307
:1016C000E0FAA3E0FBD3120F58400A9000D4120FA7
:1016D000880000000890008F74FFF0A37401F0A34D
:1016E000744AF08032E47F0CFEFDFC9000D4E0F8F8
:1016F000A3E0F9A3E0FAA3E0FBD3120F58400A904D
:1017000000D4120F880000000C90008F74FFF0A32B
:101710007401F0A37452F0E4900093F0900092F002
:10172000900118F0229000927405F09000A3E090D0
:101730000118B423057420F080037424F090009302
:0E1740007401F030120443D2032243D20C2273
:101A650090008F7401F0A37400F0A37494F0C21475
:101A7500C2129000947455F0A37453F0A37442F00D
:101A8500A37453F0900119E0900098F090011AE0CA
:101A9500900099F090011BE090009AF090011CE0F5
:101AA50090009BF09000D7E090009CF09000D6E06D
:101AB50090009DF09000D5E090009EF09000D4E05D
:101AC50090009FF0900093E09000A0F0E4FF90005C
:101AD5008FE0FBA3E0FAA3E0F9120DBDFE74482FD9
:101AE500F582E43400F583EEF0900090E475F001A2
:0E1AF500120E250FEFB40DD675D30D53D2FC93
:011B030022BF
:10191F00900094E0645560030219BEA3E064536025
:10192F00030219BCA3E0644260030219BAA3E06486
:10193F0043707C90009CE09000D7F090009DE09069
:10194F0000D6F090009EE09000D5F090009FE090C0
:10195F0000D4F0900098E0900119F0900099E09079
:10196F00011AF090009AE090011BF090009BE0901C
:10197F00011CF09000D4E0FCA3E0FDA3E0FEA3E087
:10198F00FFEC4D4E4F601A9000A0E030E703C3808C
:10199F0001D392139000A0E030E703D38001C392EC
:1019AF0012D214E4900121F002152080028000432E
:0319BF00D203222E
:10174E00E4900124F0A3F0900121E0700302184E02
:10175E009000D4A3A3E0FEA3E0FFEE5401FEE4FD4F
:10176E00FCFBFAF9F8C3120F58600302184EFFFE85
:10177E00FDFC90011DE0F8A3E0F9A3E0FAA3E0FB65
:10178E00C3120F58701090008F74FFF0A37401F005
:10179E00A3745EF0804DE47F06FEFDFC90011DE01B
:1017AE00F8A3E0F9A3E0FAA3E0FBC3120F5860150B
:1017BE00E47F07FEFDFC90011DE0F8A3A3A3E0C3A8
:1017CE00120F58701090008F74FFF0A37403F0A3E3
:1017DE00745EF0800E90008F74FFF0A37405F0A37A
:1017EE00745EF0E47F08FEFDFC90011DE0F8A3E0BE
:1017FE00F9A3E0FAA3E0FBC3120F58700590012481
:10180E0004F0E47F28FEFDFC90011DE0F8A3E0F952
:10181E00A3E0FAA3E0FBC3120F5870059001250454
:10182E00F090011DE0FCA3E0FDA3E0FEA3E0240187
:10183E00FFE43EFEE43DFDE43CFC90011D120F7CF6
:10184E00E47F40FEFDFC9000D4E0F8A3E0F9A3E0B5
:10185E00FAA3E0FBD3120F58402A9001237440F0F4
:10186E009000D4E0FCA3E0FDA3E0FEA3E09440FFD3
:10187E00EE9400FEED9400FDEC9400FC9000D4126A
:10188E000F7C80179000D4A3A3A3E0900123F090C7
:10189E0000D4120F8800000000C212E4FF90012352
:1018AE00E0FEEFC39E502890008FE0FBA3E0FAA36A
:1018BE00E0F9120DBDFE74482FF582E43400F58375
:1018CE00EEF0900090E475F001120E250F80CE9090
:1018DE000124E0601F78487C007D017BFF7A00794F
:1018EE00467E007F0C120D979000627402F09000FD
:1018FE00647440F0900125E0600D7B017A00794818
:10190E007D40E4FF121CA4900123E0F5D353D2FCDA
:01191E0022A6
:1019C200900123E5DBF0900121E060499000D4A36F
:1019D200A3E0FEA3E0FFEE5401FEE4FDFCFBFAF9F6
:1019E200F8C3120F58702E900008E0B466277809E9
:1019F2007C007D017BFF7A0079537E007F03121108
:101A020065EF70117B017A0079089001297440F02A
:101A1200E4FF121C259000D4E0FCA3E0FDA3E0FE4D
:101A2200A3E0FFEFC0E0900123E0FBD0E0FFC3EFB3
:101A32009BFFEE9400FEED9400FDEC9400FC900000
:101A4200D4120F7CE4FFFEFDFC9000D4E0F8A3E08A
:101A5200F9A3E0FAA3E0FBC3120F587005C21312F8
:021A62001A6503
:011A6400225F
:0300430002075E53
:0D075E00C0E0C0F0C083C082C0D075D008DC
:10076B0020D903020C4FE5D9543F7003020C3A1405
:10077B00602C24E17003020BC424F0700302080EFA
:10078B00240F6003020C42301202806B301404C23F
:10079B0014806AE5D254FC4402F5D2020C4B20DEE5
:1007AB0003020C4B3013061219C2020C4BAFDBEFDA
:1007BB007003020C4B900122E4F0900122E0FE6FDB
:1007CB00602074082EF582E43400F583E0FD749408
:1007DB002EF582E43400F583EDF0900122E004F075
:1007EB0080D812191F900093E06003020C4B30135A
:1007FB0003020C4B30120612174E020C4B121A65E9
:10080B00020C4B900122E5DBF0E064086003020B65
:10081B008F900007E0FE900006E0FDEDFF90008951
:10082B00EEF0A3EFF0900122E4F0900001E09000D5
:10083B0088F0900000E05460604D900088E064FE0A
:10084B006003020B1E90008B74FFF0A37401F0A3E6
:10085B007425F09001227401F0E0FF7E00D390002C
:10086B008AE09F900089E09E4005EEF0A3EFF090A8
:10087B000089E0FEA3E0FFC39408EE940040057FDF
:10088B0008020983020983900088E0B40B0040033F
:10089B00020B759008A5F8282873020B420209FC7D
:1008AB00020B75020A73020B750209BE0208C6021F
:1008BB000B750209CE0209EB020B26900003E02414
:1008CB00FE601D1460302402707B90008B74FFF06F
:1008DB00A37400F0A374D5F09001227412F0806B16
:1008EB0090008B74FFF0A37400F0A374E7F09001F9
:1008FB00227420F08055900002E0603324FE6019D2
:10090B0004704290008B74FFF0A37401F0A3740B7E
:10091B00F0900122740EF0803290008B74FFF0A3E4
:10092B007401F0A37419F0900122740CF0801C90E8
:10093B00008B74FFF0A37401F0A37407F0900122F5
:10094B007404F0800690012274FFF0900122E0FF06
:10095B007E00D390008AE09F900089E09E4005EED8
:10096B00F0A3EFF0900089E0FEA3E0FFC39408EE44
:10097B00940040047F088000900122EFF07E007805
:10098B00007C007D0190008BE0FBA3E0FAA3E0F973
:10099B00120D97900122E0FF7E00C390008AE09F2A
:1009AB00F0900089E09EF090008CEE8FF0120E25F7
:1009BB00020B9D900002E0FF900089E4F0A3EFF0A2
:1009CB00020B9D90008EE0900000F0C390008AE037
:1009DB009401900089E094005003020B9D020B3AA6
:1009EB00900002E090008EF07BFF7A007957020BAB
:1009FB009A900000E0541FFD7020900003E0FE90E1
:100A0B000002E0FBEB64014E700D9000EE9330E5BD
:100A1B0003020B9D020B1E020B1EED64027046902F
:100A2B000004E014602B14601224816014147032E3
:100A3B00E5D454BC4402F5D4020B9D53D473020B82
:100A4B009DE5D254BC4402F5D2201403020B9D80C9
:100A5B000953D273201403020B9DC214121A6502A0
:100A6B000B9D020B1E020B1E900000E0541F7041E9
:100A7B00900003E0FE900002E0FDED64014E702F4C
:100A8B009000EE9330E5267BFF7A00795F121226F9
:100A9B00E5A220E7FB75A15575A1AA75A98143872E
:100AAB000275A15575A1AA75A900020B9D806480E2
:100ABB0062900000E0541F64027058900003E0FE47
:100ACB00900002E0FDED4E7048900005E0FE9000B6
:100ADB0004E0FDEDFFEE7037EF14602B1460122471
:100AEB00816019147029E5D454BF4403F5D4020B6B
:100AFB009DE5D4547F440CF5D4020B9DE5D254BF35
:100B0B004403F5D2020B9DE5D2547F440CF5D28001
:100B1B0002800090012274FFF08077900000E4F0D7
:100B2B00C390008AE09401900089E09400406390A8
:100B3B0001227401F0805B900000E0541F70087478
:100B4B0002F0A3E4F08007900000E4F0A3F0900023
:100B5B0089E0FEA3E0FFC39402EE940090012240D3
:100B6B00057402F0802CEFF0802890012274FFF0C6
:100B7B00FB7A007968900088E0FF90014EE4F0A3C7
:100B8B00EFF0800B90012274FFF0FB7A00797C125E
:100B9B001226900122E0FFB4FF0C90008874FFF046
:100BAB0075DCCF020C4BEFD3940850048FDD800320
:100BBB0075DD0075DCC0020C4B900088E024FB60F7
:100BCB0057147063900089E0FEA3E0FFC39408EE16
:100BDB00940040047F088000900122EFF07E0078A3
:100BEB00007C007D0190008BE0FBA3E0FAA3E0F911
:100BFB00120D97900122E0FFFD7C00C390008AE06C
:100C0B009DF0900089E09CF090008CEC8DF0120E22
:100C1B00258FDD63DC408028900089A3E0FFE5E3AE
:100C2B0054804FF5E3800375DD0075DC0280117590
:100C3B00DD0063DC8080097BFF7A00798B12122642
:100C4B00C2D9806D30D81A7BFF7A007998121226A0
:100C5B0075DC0275D21275E300C2DAC2D9C2D88034
:100C6B005030DA37C2DAE5DA30E2257BFF7A0079E9
:100C7B009F121226E5A220E7FB75A15575A1AA7557
:100C8B00A98143870275A15575A1AA75A900802179
:100C9B007BFF7A0079A812122680167BFF7A0079E7
:100CAB00AFAFD890014EE4F0A3EFF012122675D837
:010CBB00FF39
:0B0CBC00D0D0D082D083D0F0D0E03246
:101D3600121D687F057E0012002A121B047BFF7AA3
:0B1D46000079CA121226121CF580FE64
:101D680075A15575A1AAE5B954F84405F5B9E4F586
:021D7800A122A6
:101D7A00EF4E600D05A105A105A1EF1F70F21E80AF
:021D8A00EF2246
:10002A00AD07AC06ED4C600E7FE87E03121D7AED3B
:07003A001D70F11C80EE2295
:041DC90043C61022DB
:101B0400C29FD29EC29DC2CDC2CC43878090014B5E
:101B1400120F8800000208E47B0AFAF9F890014BDE
:101B2400E0FCA3E0FDA3E0FEA3E0FF120EC69001DB
:101B34004FEBF090014BE0FCA3E0FDA3E0FEA3E03B
:101B4400FFE47B0AFAF9F8120EC690014B120F7CDF
:101B540090014FE0C39405401F90014BE0FCA3E0CB
:101B6400FDA3E0FEA3E02401FFE43EFEE43DFDE42A
:101B74003CFC90014B120F7CE589540F4420F589FD
:101B840043C9A090014BA3A3A3E0F404F58DD28E26
:041B9400D29CD29974
:011B9800222A
:081DA9003098FDC298AF9922A9
:081DB1008F993099FDC29922BF
:0E1D9B00C2C7D2C5D2C475C2CCD2ECD2AF2220
:081DB90030C0FDC2C0AFC12221
:081DC1008FC130C1FDC2C12237
:101D510075A15575A1AAEF600543B101800353B187
:071D6100FEE4F5A1F5FF22ED
:031DCD008FFF2263
:0E1CA400900126EDF0A3EBF0A3EAF0A3E9F027
:101CB200D2AE7585C0EF25E0FFE4FE900126E0FD7F
:101CC200EEC39D5029EE25E02FF58475868EE586BC
:101CD20030E1037FFF22900127E0FBA3E0FAA3E0BB
:101CE200F98E82758300E58E120E030E80CDC2AE90
:021CF200AF063B
:011CF40022CD
:0B1C2500900126EBF0A3EAF0A3E9F029
:101C3000D2AE75A15575A1AA43B104E4F5A1EF7523
:101C4000F002A42400FEE5F034C090012AF0A3CEF7
:101C5000F0E4FF900129E0FEEFC39E5038A3E0FCC2
:101C6000A3E0FD8C858D84E02402F090012AE0340D
:101C700000F0900126E0FBA3E0FAA3E0F98F827563
:101C80008300120DD6758F00F58EE58630E603755C
:101C9000869A0F80BE75A15575A1AA53B1F3E4F5DC
:031CA000A1C2AE30
:011CA300221E
:03000000021B9947
:0C1B9900787FE4F6D8FD758122021BE085
:100CC700E709F608DFFA8046E709F208DFFA803E0F
:100CD70088828C83E709F0A3DFFA8032E309F608FC
:100CE700DFFA8078E309F208DFFA807088828C8364
:100CF700E309F0A3DFFA806489828A83E0A3F60818
:100D0700DFFA805889828A83E0A3F208DFFA804CF1
:100D170080D280FA80C680D4806980F280338010C8
:100D270080A680EA809A80A880DA80E280CA803331
:100D370089828A83ECFAE493A3C8C582C8CCC583A9
:100D4700CCF0A3C8C582C8CCC583CCDFE9DEE78079
:100D57000D89828A83E493A3F608DFF9ECFAA9F0F8
:100D6700EDFB2289828A83ECFAE0A3C8C582C8CC4E
:100D7700C583CCF0A3C8C582C8CCC583CCDFEADE67
:100D8700E880DB89828A83E493A3F208DFF980CCC9
:100D970088F0EF60010E4E60C388F0ED2402B404C2
:100DA7000050B9F582EB2402B4040050AF23234569
:060DB7008223900D17736A
:100DBD00BB010689828A83E0225002E722BBFE0234
:090DCD00E32289828A83E4932267
:100DD600BB010CE58229F582E5833AF583E02250D2
:100DE60006E92582F8E622BBFE06E92582F8E2221C
:0D0DF600E58229F582E5833AF583E4932236
:100E0300F8BB010DE58229F582E5833AF583E8F025
:100E1300225006E92582C8F622BBFE05E92582C8D1
:020E2300F222B9
:100E2500C5F0F8A3E028F0C5F0F8E5821582700258
:060E35001583E038F022F5
:100E3B00E88FF0A4CC8BF0A42CFCE98EF0A42CFC56
:100E4B008AF0EDA42CFCEA8EF0A4CDA8F08BF0A4D4
:100E5B002DCC3825F0FDE98FF0A42CCD35F0FCEB33
:100E6B008EF0A4FEA9F0EB8FF0A4CFC5F02ECD39F8
:0F0E7B00FEE43CFCEAA42DCE35F0FDE43CFC2265
:100E8A0075F008758200EF2FFFEE33FECD33CDCC1F
:100E9A0033CCC58233C5829BED9AEC99E5829840A2
:100EAA000CF582EE9BFEED9AFDEC99FC0FD5F0D67F
:100EBA00E4CEFBE4CDFAE4CCF9A88222B800C1B9A9
:100ECA000059BA002DEC8BF084CFCECDFCE5F0CBE7
:100EDA00F97818EF2FFFEE33FEED33FDEC33FCEB20
:100EEA0033FB10D703994004EB99FB0FD8E5E4F9DB
:100EFA00FA227818EF2FFFEE33FEED33FDEC33FCC8
:100F0A00C933C910D7059BE99A4007EC9BFCE99ABB
:100F1A00F90FD8E0E4C9FAE4CCFB2275F010EF2F00
:100F2A00FFEE33FEED33FDCC33CCC833C810D70700
:100F3A009BEC9AE899400AED9BFDEC9AFCE899F83B
:0E0F4A000FD5F0DAE4CDFBE4CCFAE4C8F922CE
:100F5800EB9FF5F0EA9E42F0E99D42F0E89C45F0EF
:010F68002266
:100F6900E8600FEFC333FFEE33FEED33FDEC33FCE6
:030F7900D8F1228A
:0C0F7C00ECF0A3EDF0A3EEF0A3EFF022E8
:100F8800A8828583F0D083D082120F9F120F9F1200
:100F98000F9F120F9FE473E493A3C583C5F0C58325
:100FA800C8C582C8F0A3C583C5F0C583C8C582C8B3
:010FB8002216
:100FB900D083D082F8E4937012740193700DA3A3C7
:100FC90093F8740193F5828883E4737402936860DB
:060FD900EFA3A3A380DFDB
:1011BB00E515244EF582E43401F583E00515229004
:1011CB00014B30100390014EE475F00112119B029C
:1011DB000DBD2009E97F2ED2098018EF540F249002
:1011EB00D43440D4FF300D0BEF24BFB41A0050039E
:1011FB002461FFE516600215160519E51970020545
:10120B001830100E90014BE475F00112119BEF0298
:10121B0011890200037403D2108003E4C210F51588
:10122B0090014B1211B2E4F516F518F519E516609D
:10123B00077F201211FE80F57517FFC20AC209C283
:10124B000BC20CC20EC20FC2111211CAFF700D30AD
:10125B0010057F0012120FAF19AE1822B4255FC212
:10126B00D5C20D1211CAFF24D0B40A00501A75F062
:10127B000A781630D50508B6FF0106C6A426F62057
:10128B00D5047002D20C80D924CFB41A00EF5004CD
:10129B00C2E5D20D021410D20A80C6D20980C0D288
:1012AB000B80BCD2D580BAD20E80B47F201211FE37
:1012BB00200B077401B5160040F11211BBFF121180
:1012CB00FE021238D211D20F80951211BBFB1211F4
:1012DB00BBFA1211BBF94A4B700679E17A147BFF0A
:1012EB00200B2EE516602A7E008E82758300120D70
:1012FB00D660060EEE651770F0C2D5EBC0E0EAC003
:10130B00E0E9C0E0EE121457D0E0F9D0E0FAD0E0FB
:10131B00FB120DBDFF60AAEBC0E0EAC0E0E9C0E044
:10132B001211FED0E02401F9D0E03400FAD0E0FB3A
:10133B00E5170460DCD517D980877BFF7A147953C6
:10134B00D20B809C791080027908C20FC2118008E1
:10135B00D2D5790A8004790AC2D5E517047002F553
:10136B0017E4FAFDFEFF1211BBFC7B08200A1312D7
:10137B0011BBFD7B1030090A1211BBFE1211BBFF12
:10138B007B20EC3382D592D55013C3E43009069FF2
:10139B00FFE49EFEE4200A039DFDE49CFCE4CBF8F5
:1013AB00C20AEC700CCFCECDCCE824F8F870F380E9
:1013BB0017C3EF33FFEE33FEED33FDEC33FCEB33B2
:1013CB00FB994002FB0FD8E9EB300A05F8D0E0C4DB
:1013DB0048B20AC0E00AEC4D4E4F78207B0070C239
:1013EB00EAB5170040BCC0E0121459D0F0D0E02091
:1013FB000A04C4C0E0C4B20AC0F01211E7D0F0D5A1
:10140B00F0EB021238120FB912D553134F5812A624
:10141B004C12A24213534F135B44135B4912BB4351
:08142B001361551345461345FA
:101433004513454715015012AA2D12AE2E12D12B7A
:1014430012B22312CF2014EA2A126A48000012C9EA
:101453003F3F3F00790AA2D5200C14300E09B91082
:10146300020404B9080104A2D5200F02500104208C
:101473000B68920BB516005034C0E07F20300C1976
:101483007F30A20B720F720E500F1214B0C20BC238
:101493000FC20EC2117F30800F300E03E9C0E0127D
:1014A30011FE300E03D0E0F9D0E0B516CC300E17A4
:1014B3007F30B9100C1211FE7F58300D077F7880F2
:1014C30003B908031211FE300B057F2D0211FE7FB5
:1014D300202011F87F2B200FF322920B80CF286E50
:1014E300756C6C2900D20A1211BB300AF8C20A7853
:1014F3001630D50108F602126A2D504349581211CD
:10150300BB2403B405004001E49014FC931211EFD3
:0D151300743A1211EFD20C75160402134F3A
:100FDF00E3F5F009E208B5F06BDFF58067E3F5F0B4
:100FEF0009E608B5F05EDFF5805A87F009E608B527
:100FFF00F052DFF6804E87F009E208B5F046DFF6D3
:10100F00804288828C8387F009E0A3B5F036DFF643
:10101F00803288828C8387F009E493A3B5F025DFB3
:10102F00F5802188828C83E3F5F009E0A3B5F014F5
:10103F00DFF5801088828C83E3F5F009E493A3B584
:10104F00F002DFF402110E808780E9809080D48057
:10105F003E8015806E807E809D80B7808D80A380BE
:10106F00518074803C02111A89828A83ECFAE493CE
:10107F00F5F0A3C8C582C8CCC583CCE493A3C8C57B
:10108F0082C8CCC583CCB5F076DFE3DEE180708912
:10109F00828A83E493F5F0A3E208B5F062DFF4806F
:1010AF005E89828A83E0F5F0A3E608B5F051DFF59B
:1010BF00804D89828A83E0F5F0A3E208B5F040DF26
:1010CF00F5803C89828A83E493F5F0A3E608B5F0B6
:1010DF002EDFF4802A8002805789828A83ECFAE41B
:1010EF0093F5F0A3C8C582C8CCC583CCE0A3C8C50F
:1010FF0082C8CCC583CCB5F006DFE4DEE280007F8A
:10110F00FFB5F0020F2240027F012289828A83EC11
:10111F00FAE0F5F0A3C8C582C8CCC583CCE0A3C85C
:10112F00C582C8CCC583CCB5F0D5DFE5DEE380CF73
:10113F0089828A83ECFAE0F5F0A3C8C582C8CCC5D2
:10114F0083CCE493A3C8C582C8CCC583CCB5F0AF1C
:10115F00DFE4DEE280A988F0EF60010E4E60ABEDB8
:10116F002402B404005098F582EB2402B40400501A
:0A117F008E2323458223901056733F
:101BA500021D36E493A3F8E493A34003F68001F203
:101BB50008DFF48029E493A3F85407240CC8C33341
:101BC500C4540F4420C8834004F456800146F6DF10
:101BD500E4800B0102040810204080901D8CE47EF7
:101BE500019360BCA3FF543F30E509541FFEE49305
:101BF500A360010ECF54C025E060A840B8E493A3CC
:101C0500FAE493A3F8E493A3C8C582C8CAC583CAF6
:101C1500F0A3C8C582C8CAC583CADFE9DEE780BEAE
:011D9A000048
:10118900BB010689828A83F0225002F722BBFE0145
:02119900F3223F
:10119B00F8E0FBA3A3E0F925F0F0E58215827002DD
:0711AB001583E0FA38F02281
:0911B200EBF0A3EAF0A3E9F0223E
:10000300EFB40A07740D12000E740A309811A89900
:10001300B8130CC2983098FDA899C298B811F6305D
:0700230099FDC299F5992235
:00000001FF
