:100DB80073746172740A0012011001000000083D8A
:100DC8004107210000000000010902220001010082
:100DD800A0320904000001030101000921110100EA
:100DE80001223E000705810308000A0000000000F8
:100DF80000000000000000000000000000000000EB
:100E08000000000005010906A101050719E029E70E
:100E18001500250175019508810295017508810164
:100E280095037501050819012903910295057501B6
:100E380091019506750826FF00050719002991817B
:020E480000C0E8
:10100F0048004C0000000000000000410058004163
:07101F0000590041005600DA
:100F5700C2EAE4F5E275ED0075EC0075EF0075EE99
:100F67000A75EA6775DC0275D242F5E375D18075BB
:0E0F7700E22943D10175D8FF75E107D2EA22C5
:100F8500E4900057F0FE7F08FD7B017A00794C1252
:020F95000C59F5
:100F9700780A7C007D017B017A00794C7E007F080E
:0A0FA700120B1275D30853D2FC227E
:0300430002005662
:0D005600C0E0C0F0C083C082C0D075D008EB
:1000630020D9030203B8E5D9543F70030203942453
:10007300E0700302032314601924F16029240E6045
:10008300030203B675D500E5D454FC4402F5D4024B
:1000930003B675D300E5D254FC4402F5D290005761
:1000A3007401F00203B6900079E5DBF0E0640860C8
:1000B300030202F6900006E090005BF0900007E078
:1000C300700990005BE0D3947F400690005B747FDF
:1000D300F0900079E4F0900001E090005CF0900073
:1000E30000E05460601A90005CE01424FD400302B9
:1000F30002FC24FB24FD40030202FC80000202F602
:1001030090005CE0B40B0040030202F4900116F887
:100113002828730202D70202270202F402026102B4
:1001230002F40201F40201370202F40201FF0202A7
:100133001C0202FC900003E024FE601E24E06030F9
:100143002421705090007574FFF0A3740DF0A37414
:10015300BFF09000797412F0804090007574FFF046
:10016300A3740DF0A374D1F0900079743BF0802A4E
:10017300900004E0701E90007574FFF0A3740EF0FD
:10018300A3740CF0900079743EF09000787401F041
:10019300D2EC800690007974FFF0900079E0FF9034
:1001A300005BE0D39F4002EFF090005BE0FFC3945D
:1001B3000840047F088000900079EFF07E0078000B
:1001C3007C007D01900075E0FBA3E0FAA3E0F91247
:1001D3000B1290005BE0FF900079E0FEC3EF9E906E
:1001E300005BF0EEFF900076E48FF0120B38020212
:1001F300FC900002E090005BF00202FC900054E0EF
:10020300900000F090005BE0C3940150030202FCF5
:100213009000797401F00202FC900002E090005417
:10022300F00202FC900000E0541F6402702D900065
:1002330004E014601D2480600E14701CE5D454BCCB
:100243004402F5D40202FCE5D254BC4402F5D202C6
:1002530002FC53D2730202FC0202F60202F6900081
:1002630000E0541FFD701B900003E0FE900002E0CD
:10027300FBEB64014E7009900DD89320E57B8073EE
:100283008071ED6402704B900003E0FE900002E089
:10029300FDED4E703B900005E0FE900004E0FDEDA7
:1002A300FFEE702AEF24FE60112481601714701E84
:1002B300E5D454BF4403F5D4803FE5D4547F440CC4
:1002C300F5D48035E5D254BF4403F5D2802B802387
:1002D3008021801F900000E4F0A3F090005BE0FF1A
:1002E300C3940290007940057402F0800CEFF08013
:1002F30008800090007974FFF0900079E0FFB4FF6C
:100303000C90005C74FFF075DCCF0203B6EFD3945E
:100313000850048FDD800375DD0075DCC00203B671
:1003230090005CE024FB605314705E90005BE0FF80
:10033300C3940840047F088000900079EFF07E00AA
:1003430078007C007D01900075E0FBA3E0FAA3E058
:10035300F9120B1290005BE0FF900079E0FEC3EF0F
:100363009E90005BF0EEFF900076E48FF0120B3866
:10037300900079E0F5DD63DC408038E5E35480FFED
:1003830090005BE04FF5E3800375DD0075DC0280D0
:1003930022900079E5DBF090005CE0B4090F900057
:1003A30079E0B40108900000E090005AF075DD0098
:1003B30075DC00C2D930D81275DC0275D21075D441
:1003C3001275E300C2DAC2D9C2D830DA04C2DA80C5
:0403D3000375D8FFD7
:0B03D700D0D0D082D083D0F0D0E03234
:03005300020F1B7E
:100F1B00C0E0C083C082C0D075D01030C023C2C027
:100F2B00900059E0FF04F0745D2FF582E43400F576
:100F3B0083E5C1F0900058E004F0A3E0B41002E4A4
:0C0F4B00F0C2C1D0D0D082D083D0E03200
:1007470090007AEFF0E490004CF0EFC394614036EC
:1007570090007AE0D3947A502D90005AE030E11D52
:10076700E4900057F090004E7439F0120F97900004
:1007770057E060FA120F85900057E060FA90007A10
:10078700E024A3020A3B90007AE0FFC39441403380
:10079700EFD3945A502D90005AE020E11DE49000C9
:1007A70057F090004E7439F0120F97900057E060A1
:1007B700FA120F85900057E060FA90007AE024C3A0
:1007C700020A3B90007AE0FFC39431400CEFD394C8
:1007D700395006E024ED020A3B90007AE0FFB4307E
:1007E7000790004E7427F022EFD3942F400302089E
:1007F700B6EFB4200790004E742CF022EFB4210816
:1008070090004E741E0209ACEFB4220890004E749B
:10081700340209ACEFB4230890004E74200209ACEF
:10082700EFB4240890004E74210209ACEFB42508F8
:1008370090004E74220209ACEFB4260890004E7463
:10084700240209ACEFB4270790004E7434F022EF6E
:10085700B4280890004E74260209ACEFB42908901A
:10086700004E74270209ACEFB42A0890004E742595
:100877000209ACEFB42B0890004E742E0209ACEFBE
:10088700B42C0790004E7436F022EFB42D07900079
:100897004E742DF022EFB42E0790004E7437F022DD
:1008A700EF642F6003020A4190004E7438F022EF84
:1008B700D3943F5058EFB43A0790004E74338044B6
:1008C70090007AE0FFB43B0790004E7433F022EFBC
:1008D700B43C0790004E7436802A90007AE0FFB44B
:1008E7003D0790004E742EF022EFB43E0790004E65
:1008F7007437801090007AE0643F6003020A4190E9
:10090700004E7438F090004CE04402F02290007AD8
:10091700E0FFB4400890004E741F0209ACEFC39487
:100927005B404CEFD394605046EFB45B0790004EAA
:10093700742FF022EFB45C0790004E7431F022EF71
:10094700B45D0790004E7430F022EFB45E0790005C
:100957004E74238050EFB45F0790004E742D80458E
:10096700EF64606003020A4190004E7435F022EF95
:10097700C3947B4047EFD3947F5041EFB47B0790FC
:10098700004E742F801FEFB47C0790004E743180A7
:1009970014EFB47D0790004E74308009EFB47E0DDC
:1009A70090004E7435F090004C7402F022EF647F93
:1009B7006003020A4190004E744CF022EFC394800A
:1009C7004020EFD39487501AEF540F90007AF0E04D
:1009D700FF7401C8EFC8088002C333D8FC90004CED
:1009E700F02290007AE0FFC394D7400BEFD394DA5C
:1009F7005005E02478803D90007AE0FFC394B04032
:100A07000BEFD394B35005E02478802890007AE068
:100A1700FFC394D1400BEFD394D55005E0247880E1
:100A27001390007AE0FFC394C1400FEFD394CD50E9
:0B0A370009E02478F0E090004EF0226F
:10000300900058E014F0900056E0245DF582E4344B
:1000130000F583E0FF120747900056E004F0E0C3C9
:1000230094104002E4F0E4900057F0120F97900010
:0E00330057E060FA120F85900057E060FA2245
:100ED600120FD87F057E00121027120D237BFF7A92
:100EE6000D79B812044D120F57120046D2AF75E9AC
:100EF60010E4F5D3900057F0900078F090005A0473
:100F0600F0900078E060FA900058E0D3940040F149
:050F160012000380EC55
:100FD80075A15575A1AA53B9BF43B98075A15575B7
:0E0FE800A1AAE5B954F84403F5B9E4F5A12235
:100FF600EF7802CEC313CE13D8F9FFEF4E60090582
:09100600A1EF1F70F61E80F32219
:10102700AD07AC06ED4C600E7FE87E03120FF6EDC0
:071037001D70F11C80EE2288
:0410900043C6102221
:100D2300C29FD29EC29DC2CDC2CC43878090007A1F
:100D3300120C2800000186E47B0AFAF9F890007A85
:100D4300E0FCA3E0FDA3E0FEA3E0FF120B8A90000A
:100D53007EEBF090007AE0FCA3E0FDA3E0FEA3E0CD
:100D6300FFE47B0AFAF9F8120B8A90007A120C1C42
:100D730090007EE0C39405401F90007AE0FCA3E05E
:100D8300FDA3E0FEA3E02401FFE43EFEE43DFDE419
:100D93003CFC90007A120C1CE589540F4420F58921
:100DA30043C9A090007AA3A3A3E0F404F58DD28EE7
:040DB300D299D29C63
:010DB7002219
:081070003098FDC298AF9922EF
:081078008F993099FDC2992205
:0A004600C2C7D2C5D2C475C2D922C8
:0810800030C0FDC2C0AFC12267
:081088008FC130C1FDD2C1226D
:10103E0075A15575A1AAEF600543B101800353B1A7
:07104E00FEE4F5A1F5FF220D
:030050008FFF22FD
:0A10660075A15575A1AA43B110222F
:10105500ABE243E2B07F017E00121027AF038FE2BF
:011065002268
:03000000020E4AA3
:0C0E4A00787FE4F6D8FD758121020E913E
:100A4200E709F608DFFA8046E709F208DFFA803E96
:100A520088828C83E709F0A3DFFA8032E309F60883
:100A6200DFFA8078E309F208DFFA807088828C83EB
:100A7200E309F0A3DFFA806489828A83E0A3F6089F
:100A8200DFFA805889828A83E0A3F208DFFA804C79
:100A920080D280FA80C680D4806980F28033801050
:100AA20080A680EA809A80A880DA80E280CA8033B9
:100AB20089828A83ECFAE493A3C8C582C8CCC58331
:100AC200CCF0A3C8C582C8CCC583CCDFE9DEE78001
:100AD2000D89828A83E493A3F608DFF9ECFAA9F080
:100AE200EDFB2289828A83ECFAE0A3C8C582C8CCD6
:100AF200C583CCF0A3C8C582C8CCC583CCDFEADEEF
:100B0200E880DB89828A83E493A3F208DFF980CC50
:100B120088F0EF60010E4E60C388F0ED2402B40449
:100B22000050B9F582EB2402B4040050AF232345F0
:060B32008223900A927379
:100B3800C5F0F8A3E028F0C5F0F8E5821582700248
:060B48001583E038F022E5
:100B4E0075F008758200EF2FFFEE33FECD33CDCC5E
:100B5E0033CCC58233C5829BED9AEC99E5829840E1
:100B6E000CF582EE9BFEED9AFDEC99FC0FD5F0D6BE
:100B7E00E4CEFBE4CDFAE4CCF9A88222B800C1B9E8
:100B8E000059BA002DEC8BF084CFCECDFCE5F0CB26
:100B9E00F97818EF2FFFEE33FEED33FDEC33FCEB5F
:100BAE0033FB10D703994004EB99FB0FD8E5E4F91A
:100BBE00FA227818EF2FFFEE33FEED33FDEC33FC07
:100BCE00C933C910D7059BE99A4007EC9BFCE99AFB
:100BDE00F90FD8E0E4C9FAE4CCFB2275F010EF2F40
:100BEE00FFEE33FEED33FDCC33CCC833C810D70740
:100BFE009BEC9AE899400AED9BFDEC9AFCE899F87B
:0E0C0E000FD5F0DAE4CDFBE4CCFAE4C8F9220D
:0C0C1C00ECF0A3EDF0A3EEF0A3EFF0224B
:100C2800A8828583F0D083D082120C3F120C3F1229
:100C38000C3F120C3FE473E493A3C583C5F0C5834E
:100C4800C8C582C8F0A3C583C5F0C583C8C582C816
:010C58002279
:1003E200E518247DF582E43400F583E005182290B7
:1003F200007A30070390007DE475F001120CDD02F3
:100402000C852000E97F2ED2008018EF540F249033
:10041200D43440D4FF30040BEF24BFB41A0050038D
:100422002461FFE51960021519051CE51C7002051F
:100432001B30070E90007AE475F001120CDDEF021A
:100442000CCB020FB17403D2078003E4C207F51884
:1004520090007A120CF4E4F519F51BF51CE519600D
:10046200077F2012042580F5751AFFC201C200C25F
:1004720002C203C205C206C2081203F1FF700D30A8
:1004820007057F00120436AF1CAE1B22B4255FC2E3
:10049200D5C2041203F1FF24D0B40A00501A75F039
:1004A2000A781930D50508B6FF0106C6A426F6203B
:1004B200D5047002D20380D924CFB41A00EF5004BD
:1004C200C2E5D204020637D20180C6D20080C0D271
:1004D2000280BCD2D580BAD20580B47F2012042516
:1004E2002002077401B5190040F11203E2FF120461
:1004F2002502045FD208D20680951203E2FB1203A2
:10050200E2FA1203E2F94A4B700679087A077BFF96
:1005120020022EE519602A7E008E82758300120C5D
:100522009E60060EEE651A70F0C2D5EBC0E0EAC01E
:10053200E0E9C0E0EE12067ED0E0F9D0E0FAD0E0C9
:10054200FB120C85FF60AAEBC0E0EAC0E0E9C0E064
:10055200120425D0E02401F9D0E03400FAD0E0FB07
:10056200E51A0460DCD51AD980877BFF7A06797A8E
:10057200D202809C791080027908C206C2088008E3
:10058200D2D5790A8004790AC2D5E51A047002F537
:100592001AE4FAFDFEFF1203E2FC7B0820011312AB
:1005A20003E2FD7B1030000A1203E2FE1203E2FFB7
:1005B2007B20EC3382D592D55013C3E43000069FE2
:1005C200FFE49EFEE42001039DFDE49CFCE4CBF8E5
:1005D200C201EC700CCFCECDCCE824F8F870F380D9
:1005E20017C3EF33FFEE33FEED33FDEC33FCEB3399
:1005F200FB994002FB0FD8E9EB300105F8D0E0C4CB
:1006020048B201C0E00AEC4D4E4F78207B0070C228
:10061200EAB51A0040BCC0E0120680D0F0D0E0205B
:100622000104C4C0E0C4B201C0F012040ED0F0D57F
:10063200F0EB02045F120CFD04FC5305765804CD66
:100642004C04C942057A4F05824405824904E243BB
:08065200058855056C46056C96
:10065A0045056C4707285004D12D04D52E04F82BE4
:10066A0004D92304F62007112A049148000004F053
:10067A003F3F3F00790AA2D5200314300509B9107B
:10068A00020404B9080104A2D5200602500104207C
:10069A0002689202B519005034C0E07F2030031975
:1006AA007F30A20272067205500F1206D7C202C22A
:1006BA0006C205C2087F30800F300503E9C0E01288
:1006CA000425300503D0E0F9D0E0B519CC30051780
:1006DA007F30B9100C1204257F583004077F7880C8
:1006EA0003B908031204253002057F2D0204257F71
:1006FA00202008F87F2B2006F322920280CF286E52
:10070A00756C6C2900D2011203E23001F8C201783B
:10071A001930D50108F60204912D504349581203A5
:10072A00E22403B405004001E4900723931204165F
:0D073A00743A120416D203751904020576F4
:100C5900EF4E6012EF60010EEDBB010B89828A83B2
:100C6900F0A3DFFCDEFA2289F05007F709DFFCA9BF
:0C0C7900F022BBFEFCF309DFFCA9F02216
:100E5600020ED6E493A3F8E493A34003F68001F2CE
:100E660008DFF48029E493A3F85407240CC8C3339D
:100E7600C4540F4420C8834004F456800146F6DF6C
:100E8600E4800B010204081020408090100FE47EDD
:100E9600019360BCA3FF543F30E509541FFEE49361
:100EA600A360010ECF54C025E060A840B8E493A328
:100EB600FAE493A3F8E493A3C8C582C8CAC583CA53
:100EC600F0A3C8C582C8CAC583CADFE9DEE780BE0B
:0110260000C9
:100C8500BB010689828A83E0225002E722BBFE026D
:090C9500E32289828A83E49322A0
:100C9E00BB010CE58229F582E5833AF583E022500B
:100CAE0006E92582F8E622BBFE06E92582F8E22255
:0D0CBE00E58229F582E5833AF583E493226F
:100CCB00BB010689828A83F0225002F722BBFE0108
:020CDB00F32202
:100CDD00F8E0FBA3A3E0F925F0F0E58215827002A0
:070CED001583E0FA38F02244
:090CF400EBF0A3EAF0A3E9F02201
:100CFD00D083D082F8E4937012740193700DA3A386
:100D0D0093F8740193F5828883E473740293686099
:060D1D00EFA3A3A380DF99
:100FB100EFB40A07740D120FBC740A309811A89986
:100FC100B8130CC2983098FDA899C298B811F630A0
:070FD10099FDC299F5992278
:00000001FF
