:1029AF0075A15575A1AAE5B954F84404F5B9E4F534
:0229BF00A12253
:0E29D200EF4E600905A1EF1F70F61E80F32284
:10298100AD07AC06ED4C600E7FE87E031229D2ED57
:072991001D70F11C80EE2215
:042A2D0043C610226A
:1022DD00C29FD29EC29DC2CDC2CC43878090008644
:1022ED0012179700000082E47B0AFAF9F890008635
:1022FD00E0FCA3E0FDA3E0FEA3E0FF1216F99000C1
:10230D008AEBF0900086E0FCA3E0FDA3E0FEA3E0E5
:10231D00FFE47B0AFAF9F81216F990008612178B72
:10232D0090008AE0C39405401F900086E0FCA3E076
:10233D00FDA3E0FEA3E02401FFE43EFEE43DFDE449
:10234D003CFC90008612178BE589540F4420F589CB
:10235D0043C9A0900086A3A3A3E0F404F58DD28E0B
:04236D00D299D29C93
:012371002249
:082A00003098FDC298AF992245
:082A08008F993099FDC299225B
:0A29EC00C2C7D2C5D2C475C2F322DF
:082A100030C0FDC2C0AFC122BD
:082A18008FC130C1FDC2C122D3
:1029980075A15575A1AAEF600543B101800353B134
:0729A800FEE4F5A1F5FF229A
:032A31008FFF22F2
:101F5A00537461727420404368697049443D253066
:101F6A0032580A00576169742044657669636520AE
:101F7A00496E0A00456E756D416C6C526F6F744400
:101F8A00657620657272203D20253032580A002578
:101F9A006300456E756D416C6C487562506F727462
:101FAA0020657272203D20253032580A005175652D
:101FBA007279204D6F7573652040253034580A00B8
:101FCA004D6F75736520646174613A20007825301D
:101FDA00325820000A004D6F757365206572726F62
:101FEA007220253032780A004D6F757365206E6F46
:101FFA0020696E7465727275707420656E64706F94
:10200A00696E740A005175657279204B6579626F41
:10201A006172642040253034580A00253032582035
:10202A0020006B6579626F61726420646174613A41
:10203A0020006B6579626F617264206572726F72DB
:10204A0020253032780A006B6579626F61726420EC
:10205A006E6F20696E7465727275707420656E6435
:10206A00706F696E740A00485542206572726F7209
:10207A0020253032780A0048554220253032642023
:10208A006E6F20696E7465727275707420656E6405
:10209A00706F696E740A00524F4F5448554220259A
:1020AA00303264206E6F74204855420A00517565BB
:1020BA007279205072696E746572204025303458E6
:1020CA000A005072696E746572206572726F7220AE
:1020DA00253032780A005175657279205553425F6E
:1020EA004445565F434C4153535F48494420402579
:1020FA003034580A008006000100001200800600F1
:10210A0002000004000005020000000000000900AF
:10211A000000000000010B000000000000020100A6
:10212A000000000000A00600290000090081060046
:0D213A00220000FF00A10000000000F103E2
:042A28004100E60083
:100003001229AF1222DD7BFF7A1F795AAFA190002C
:10001300ACE4F0A3EFF012123D1227F1C2097BFF0B
:100023007A1F796E0206C6E4900081F030D80FC2C1
:10003300D81225B7900081EFF0BF1502D20930091D
:100043001FC2091226D2900081EFF060137BFF7A62
:100053001F797EE0FF9000ACE4F0A3EFF012123DB5
:100063003098C41229F6900080EFF07BFF7A1F7955
:10007300999000ACF012123D900080E0B4451D123F
:10008300260A900081EFF060137BFF7A1F799CE0D2
:10009300FF9000ACE4F0A3EFF012123D900080E07B
:1000A30024BA70030206CC24FE700302034C24FD21
:1000B30070030201FB24FB70030205812403600328
:1000C30002002A7F331224EF900084EEF0A3EFF0B6
:1000D300F47002EEF4700302002A7BFF7A1F79B7F3
:1000E300900084E0FFA3E09000ACCFF0A3EFF01208
:1000F300123D900084E0FCA3E0FDEC900080F0CF83
:10010300EDCF900082EFF0122695900082E060110F
:1001130075F005A424D1F582E43400F583E0FF8073
:10012300059000EBE0FF900083EFF0540F700302A3
:1001330001EFE0FE547F4490FFEE30E7047DC08082
:10014300027D00E4FBFA122147900081EFF0600387
:100153000201D6900083E06480F0900082E0FF60AB
:1001630015A3E0FEEF75F005A424D1F582E4340075
:10017300F583EEF08008900083E09000EBF09000B0
:1001830082E5DBF0E070030203447BFF7A1F79CA48
:1001930012123DE4900080F0900082E0FF90008016
:1001A300E0FEC39F50257BFF7A1F79D774002EF59D
:1001B30082E43400F583E0FF9000ACE4F0A3EFF0B9
:1001C30012123D900080E004F080CD7BFF7A1F790E
:1001D300DE801F900081E0FF642A60197BFF7A1F95
:1001E30079E09000ACE4F0A3EFF080067BFF7A1F88
:1001F30079F212123D0203447F231224EF9000840C
:10020300EEF0A3EFF0F47002EEF4700302002A7B29
:10021300FF7A20790F900084E0FFA3E09000ACCF39
:10022300F0A3EFF012123D900084E0FCA3E0FDEC9C
:10023300900080F0CFEDCF900082EFF012269590E2
:100243000082E0601175F005A424D1F582E4340046
:10025300F583E0FF80059000EBE0FF900083EFF073
:100263007BFF7A2079259000ACF012123D90008339
:10027300E0FE540F700302033BEE547F4490FFEE05
:1002830030E7047DC080027D00E4FBFA1221479031
:100293000081EFF06003020322900083E06480F0AA
:1002A300900082E0FF6015A3E0FEEF75F005A42443
:1002B300D1F582E43400F583EEF08008900083E00A
:1002C3009000EBF0900082E5DBF0E060747B017A54
:1002D3000079001222267BFF7A20792C12123DE44A
:1002E300900080F0900082E0FF900080E0FEC39FCA
:1002F30050257BFF7A1F79D774002EF582E43400F2
:10030300F583E0FF9000ACE4F0A3EFF012123D9010
:100313000080E004F080CD7BFF7A1F79DE801F90A0
:100323000081E0FF642A60197BFF7A20793C90000A
:10033300ACE4F0A3EFF080067BFF7A207951121230
:100343003D7F011229C102002A7F231224EF90006E
:1003530084EEF0A3EFF0F47002EEF4700302048C69
:100363007BFF7A20790F900084E0FFA3E09000AC3C
:10037300CFF0A3EFF012123D900084E0FCA3E0FD68
:10038300EC900080F0CFEDCF900082EFF012269535
:10039300900082E0601175F005A424D1F582E43465
:1003A30000F583E0FF80059000EBE0FF900083EF12
:1003B300F07BFF7A2079259000ACF012123D90007B
:1003C30083E0FE540F7003020483EE547F4490FFD6
:1003D300EE30E7047DC080027D00E4FBFA12214782
:1003E300900081EFF0600302046A900083E0648070
:1003F300F0900082E0FF6015A3E0FEEF75F005A426
:1004030024D1F582E43400F583EEF0800890008374
:10041300E09000EBF0900082E5DBF0E0606B7BFFA7
:100423007A20792C12123DE4900080F0900082E053
:10043300FF900080E0FEC39F50257BFF7A1F79D792
:1004430074002EF582E43400F583E0FF9000ACE401
:10045300F0A3EFF012123D900080E004F080CD7B1A
:10046300FF7A1F79DE801F900081E0FF642A601904
:100473007BFF7A20793C9000ACE4F0A3EFF0800698
:100483007BFF7A20795112123DE4900080F09000B6
:1004930080E0C39401400302002A9000E7E0640374
:1004A30060030205679000EAE064096003020567E0
:1004B300FF1226959000ECE0900083F0540F700338
:1004C300020557E0FE547F4490FFEE30E7047DC001
:1004D30080027D00E4FBFA122147900081EFF07067
:1004E3005A900083E06480F09000ECF0900082E585
:1004F300DBF0E07003020578121D56E4900080F0F3
:10050300900082E0FF900080E0FEC39F50257BFFB8
:100513007A1F79D774002EF582E43400F583E0FF67
:100523009000ACE4F0A3EFF012123D900080E004E1
:10053300F080CD7BFF7A1F79DE8037900081E0FF6A
:10054300642A60317BFF7A2079719000ACE4F0A3D8
:10055300EFF0801E7BFF7A207981900080E090008D
:10056300ACF0800E7BFF7A2079A1900080E09000B0
:10057300ACF012123D900080E004F0020491309040
:100583000302002A7E007F407D007B017A007940D0
:100593001217C8900040741BF0A37440F0A3741D9D
:1005A300F0A37455F0A37442F0A37402F0A374187B
:1005B300F0A3741DF0A37476F0A37430F0E4A3F0F9
:1005C300A37430F0E4A3F0A37418F07F071224EFB0
:1005D300900084EEF0A3EFF0F47002EEF4700302E7
:1005E300002A7BFF7A2079B7900084E0FFA3E09094
:1005F30000ACCFF0A3EFF012123D900084E0FCA317
:10060300E0FDEC900080F0CFEDCF900082EFF01290
:100613002695900082E0601175F005A424D1F5823F
:10062300E43400F583E0FF80059000EBE0FF9000E9
:1006330083EFF07BFF7A2079259000ACF012123D16
:10064300900083E0FE540F700302002A75D740EE3A
:10065300547F4410FFEE30E7047DC080027D0074B8
:10066300FFFBFA122147900081EFF0703C9000836A
:10067300E06480F07E007F407D007B017A0079405A
:100683001217C875D740900083E0FE547F4410FFD3
:10069300EE30E7047DC080027D0074FFFBFA122177
:1006A30047900081EFF002002A900081E0FF642A66
:1006B300700302002A7BFF7A2079CC9000ACE4F02F
:1006C300A3EFF012123D02002A7F031224EF9000E1
:1006D30084EEF0A3EFF0F47002EEF4700302002A4C
:1006E3007BFF7A2079E0900084E0FFA3E09000ACE8
:1006F300CFF0A3EFF012123D900084E0FCA3E0FDE5
:10070300EC900080F0900082EDF0E4900084F0A380
:10071300F0900082E0FF122695900082E0600D7554
:10072300F005A424D1F582E43400800E900084E027
:10073300FEA3E024EBF58274003EF583E0FF900016
:1007430083EFF07BFF7A2079259000ACE4F0A3EFF0
:10075300F012123D900083E0FE540F700302082F45
:10076300EE547F4490FFEE30E7047DC080027D00AD
:10077300E4FBFA122147900081EFF06003020816B0
:10078300900083E06480F0900082E0FF6015A3E0B6
:10079300FEEF75F005A424D1F582E43400F583EE71
:1007A300F08015900083E0FFA3E0FCA3E024EBF5C9
:1007B3008274003CF583EFF0900082E5DBF0E060AB
:1007C300747B017A0079001222267BFF7A20792C30
:1007D30012123DE4900080F0900082E0FF900080D0
:1007E300E0FEC39F50257BFF7A1F79D774002EF557
:1007F30082E43400F583E0FF9000ACE4F0A3EFF073
:1008030012123D900080E004F080CD7BFF7A1F79C7
:10081300DE801F900081E0FF642A60197BFF7A204D
:10082300793C9000ACE4F0A3EFF080067BFF7A20E4
:10083300795112123D900085E004F0700690008417
:10084300E004F0C3900085E09404900084E09400F9
:0D08530050030207147F011229C102002A80
:100E67005553422064657620696E0A005553422027
:100E7700646576206F75740A005345545F504F526E
:100E87005420202530325820202530325820005257
:100E97006573657420726F6F7420687562202531E1
:100EA700642320706F72740A0044697361626C6511
:100EB70020726F6F7420687562202531642320705B
:100EC7006F72742062656361757365206F66206455
:100ED7006973636F6E6E6563740A00476574446572
:100EE7007644657363723A200078253032582000C3
:100EF7000A0047657443666744657363723A200066
:100F07005553422D4469736B2052656164790A0019
:100F17005553422D5072696E74204F4B0A0055533A
:100F2700422D5072696E742052656164790A0041DE
:100F37006E616C797A65486964496E74456E647050
:100F470020253032780A004374726C5365745573E8
:100F570062436F6E66696720253032780A004765FD
:100F6700744849445265706F72743A200055534271
:100F77005F4445565F434C4153535F4849442052B1
:100F8700656164790A005553422D4B6579626F613B
:100F970072642052656164790A005553422D4D6F82
:100FA7007573652052656164790A004765744875F1
:100FB7006244657363723A20004578742D48554240
:100FC70020506F72745F2531642320706F776572CC
:100FD700206F6E206572726F720A004578742D4813
:100FE700554220506F72745F253164232020636C53
:100FF70065617220636F6E6E656374696F6E2065DD
:1010070072726F720A004578742D48554220506FEE
:1010170072745F2531642309636C65617220636FA5
:101027006E6E656374696F6E206572726F720A0007
:1010370064765F636C7320253032780A0069665FD7
:10104700636C7320253032780A00535542202530CF
:1010570032780A00496E6974526F6F74446576205E
:10106700457272203D20253032580A00456E756D55
:10107700416C6C526F6F744465760A00526F6F74DF
:10108700487562496E64657820253032780A0049D0
:101097006E69742064657620404578744875622DC2
:1010A700706F72745F253164200054686973207013
:1010B700726F6772616D20646F6E2774207375702D
:1010C700706F7274204C6576656C203220485542EB
:1010D7000A00496E69744465764F6E48756220450B
:1010E7007272203D20253032580A00456E756D48D2
:1010F7007562506F72740A00466F756E642066756C
:101107006C6C20737065656420646576696365201F
:101117006F6E20706F7274202531640A00466F75F8
:101127006E64206C6F7720737065656420646576E4
:10113700696365206F6E20706F7274202531640AB1
:1011470000526573657420706F727420616E64203D
:101157007468656E207761697420696E0A0044655A
:1011670076696365206F6E20706F72742065727286
:101177006F720A00446576696365206F6E20706F31
:101187007274202531642072656D6F7665640A007C
:10119700456E756D416C6C487562506F72740A00CC
:1011A700456E756D416C6C487562506F7274206541
:1011B7007272203D20253032580A00210A000000B3
:0B11C7000000002109000200000100F0
:082A2000E49000E7F0A3F022AE
:1025B700E49000A8F0E5DA30E0259000E7E0600558
:1025C700E5D120E038122A209000E77401F07BFF64
:1025D7007A0E796712123D9000A87415F0801E904C
:1025E70000E7E0C394014015122A207BFF7A0E7999
:1025F7007312123D9000A8E070037416F09000A8C3
:02260700E0FFF2
:0126090022AE
:0C29E000EF547FFFE5E354804FF5E32245
:1029C100EF600753E2BF53D27F2243E24043D280FC
:0129D10022E3
:102822009000D17408F0E4FF1229E07F011229C15F
:10283200E5D154FB4402F5D17F0A7E00122981536F
:0C284200D1FD7FFA7E001229D2C2D822FC
:10270E009000E7E0C3940150037401F0E5DA30E085
:10271E0026E5D120E015E5DA30E1047F0080027F66
:10272E00019000E9EFF0700343D10443E20175D24A
:0A273E004043D1017F00227F1622E4
:10269500AE07EE602975F005A424CEF582E434007A
:1026A500F583E0FF1229E0EE75F005A424CFF5824D
:1026B500E43400F583E0FF701043D280800B900076
:0D26C500E8E0FF1229E0A3E0FF1229C12286
:102967007F907E0120D909EF1F70011EEF4E70F492
:0929770030D9047F0080027FFECC
:012980002234
:0B2147009000A5EFF0A3EAF0A3EBF07E
:10215200AF058FD68FD4E4F5DD9000A5E0F5D5C2AA
:10216200D97F907E0120D909EF1F70011EEF4E70BA
:10217200F4E4F5D520D9037FFE2230D823C2D81249
:1021820025B7EFB41502D2099000E7E0FE70037F95
:102192001622EEB401037F15227FC87E001229D2D7
:1021A20030D96730DE037F0022E5D9540FFFB40E29
:1021B200028043EFB40A299000A6E0FCA3E0FD4CA4
:1021C2007003EF803EC3ED94FFEC94FF500E90003D
:1021D200A7E024FFF09000A6E034FFF015DD802D8B
:1021E2009000A5E0C4540F24F7600D24FC60042481
:1021F2000C7014EF6017800BEFB40304640B600DD6
:10220200EF600A4420FF227FFE2275D8FF7F0F7EF7
:10221200001229D205DDAFDDEFC394035003022182
:032222005B7F20BF
:012225002296
:0A1AD1007E007F407B017A00798FD0
:0B1ADB00900098EBF0A3EAF0A3E9F004
:101AE600E4A3F0A3F0AA06A9077B0190009F04F0E7
:101AF600A3EAF0A3E9F0900098E0F9A3E0FAA3E0E6
:101B06009000A2C9F0A3EAF0A3E9F07FC87E001214
:101B160029D29000A2E0FBA3E0FAA3E0F9EA494B40
:101B26006004E412169575D7087B107A27E4FD7FCA
:101B3600D012214790009DEFF06003E0FF2275D69A
:101B4600D075D4D075D701900047E0FE900046E0EE
:101B5600FDEDFF90009BEEF0A3EFF04E7003021D2B
:101B66002390009FE0FBA3E0FAA3E0F9EA494B705B
:101B760003021D23900040E020E703021C3490007E
:101B86009BE07002A3E07003021C2E7FC87E001249
:101B960029D27B107A27ADD47F9012214790009DE1
:101BA600EFF0E0FF600122AFDB90009BE0FCA3E0DA
:101BB600FDD39FEC94004004AFDB8002AF0590009C
:101BC6009EEFF0E0FFC390009CE09FF090009BE04A
:101BD6009400F09000A2E0FBA3E0FAA3E0F9EA4942
:101BE6004B6004EF121673E4FF90009EE06F6028CE
:101BF60074002FF582E43400F583E0FE90009FE048
:101C0600FBA3E0FAA3E0F9EE1216959000A0E475A6
:101C1600F0011216A70F80D1E5DB600C9000D1E031
:101C26001455DB7003021B84E4F5D7021D239000D4
:101C36009BE07002A3E07003021D237FC87E0012A2
:101C460029D29000D1E0FFFD90009BE0FAA3E0FBD3
:101C5600C39DEA940040028002AF038FD790009F95
:101C6600E0FBA3E0FAA3E0F990000112164664092E
:101C760070379000E6E06401F012169590009FE040
:101C8600FBA3E0FAA3E0F912162DFF9000ACE4F0F6
:101C9600A3EFF09000E6E0FF9000AEE4F0A3EFF0D3
:101CA6007BFF7A0E798012123DE4FFEF65D760283C
:101CB60090009FE0FBA3E0FAA3E0F912162DFE7454
:101CC600402FF582E43400F583EEF09000A0E47531
:101CD600F0011216A70F80D37B107A27ADD67F109E
:101CE60012214790009DEFF0E0FF600122AFD7C3BD
:101CF60090009CE09FF090009BE09400F09000A282
:101D0600E0FBA3E0FAA3E0F9EA494B7003021C34B6
:101D16009000A2A3A3E5D7121673021C347FC87ED7
:101D2600001229D2E5D760047F9080027F107B10D5
:101D36007A277DC012214790009DEFF06003E0FFF7
:0F1D460022E5D77002FF22E5DB7002FF227F1734
:011D5500226B
:1028F100E4FD8F828E83E493FC74402DF582E434F1
:0F29010000F583ECF00FBF00010E0DEDB408E3FD
:0129100022A4
:102748009000D17408F07E207FFF1228F17E007F70
:10275800407B017A00798F121ADBEF60012290002A
:1027680047E09000D1F0902105E493FF90008FE0BE
:09277800C39F50037F17227F006C
:012781002235
:10255C007E217F071228F1121AD1EF6001229021FF
:10256C000DE493FE90008FE0C39E50037F172290E2
:10257C000042E090008FF07E217F071228F190003E
:10258C008FE0900046F0121AD1EF60012290210DDD
:10259C00E493FF90008FE0FEC39F4009900042E05F
:0A25AC00FFEE9F50037F17227F000F
:0125B6002202
:0527BB0090008FEFF01B
:1027C0007E217F0F1228F190008FE0900042F07B75
:1027D000007A007900E4FFFE121ADBEF600122901C
:1027E000008FE0FF1229E07F0A7E001229817F001E
:0127F00022C6
:0529110090008AE0FFC8
:10291600AB077E217F171228F1900042EBF07B0077
:0B2926007A007900E4FFFE121ADB22A9
:10293100AB077E217F271228F1900044EBF07B004A
:0B2941007A007900E4FFFE121ADB228E
:10294C00AB077E217F1F1228F1900042EBF07B0039
:0B295C007A007900E4FFFE121ADB2273
:0523FE0090008EEFF0DD
:1024030078907C007D017BFF7A1179C27E007F0882
:1024130012160790008EE0900094F0E4FF74902F62
:10242300F582E43400F583E0FE74402FF582E43452
:1024330000F583EEF00FEFB408E37E007F407B01ED
:102443007A00798F121ADB7E217F371228F19000F0
:102453008EE0900044F07E007F407B017A00798F0C
:10246300121ADBEF600122902105E493FF90008FA5
:0A247300E0C39F50037F17227F0093
:01247D00223C
:10284E007E217F2F1228F17E007F407B007A007957
:10285E0008121ADBEF600122902135E493FFE508A0
:09286E00C39F50037F17227F0075
:01287700223E
:05265600900087E0FF89
:10265B0090004074A3F0A3E4F0A3F0A3F0A3EFF079
:10266B00A3E4F0A37404F0A3E4F07E007F407B01AD
:10267B007A00798E121ADBEF60012290008EE0C394
:09268B00940450037F17227F0024
:012694002223
:07287800900087E0FF7D04E2
:10287F009000407423F0A37403F0A3EDF0A3E4F0F1
:10288F00A3EFF0A3E4F0A3F0A3F0FBFAF9FFFE121D
:03289F001ADB221F
:0528A200900087E0FF3B
:1028A7009000407423F0A37401F0A3EDF0A3E4F0CB
:1028B700A3EFF0A3E4F0A3F0A3F0FBFAF9FFFE12F5
:0328C7001ADB22F7
:102782007E217F3F1228F17E007F407B017A007913
:102792008E121ADBEF600122902146E493FE902113
:1027A20045E493FDEDFFC390008FE09F90008EE023
:0827B2009E50037F17227F00F7
:0127BA0022FC
:04247E007E007F401D
:10248200E4F9FC8F828E83A3A3E0FBECC39B505A3A
:10249200EF2CF582E43EF583A3E064057038EF2C5F
:1024A200F582E43EF583A3A3A3E0540364037026FC
:1024B200EF2CF582E43EF583A3A3E030E718540F36
:1024C200FBAA010974EB2AF582E43400F583EBF0F0
:1024D200E9C394045014EF2CF582E43EF583E0FD49
:0C24E200D394105005ED2CFC8099AF0144
:0124EE0022CB
:05086000900086EFF09E
:10086500E4A3F07BFF7A0E79969000ACF0A3EFF04D
:1008750012123DE4900088F0900087E0FFA3E0C3EA
:100885009F501E7F2C7E01122981900087E0D39412
:100895000A4006900089E0FF22900088E004F0807D
:1008A500D7122822E4900088F0A3F07F017E001281
:1008B500298112270EEF700E900088F0A3E004F056
:1008C500E0D39419500C900088E004F0E0C39464E0
:1008D50040D9900088E06019122A207BFF7A0E79B2
:1008E500B0900086E0FF9000ACE4F0A3EFF01212A8
:1008F5003DE4FF1226957BFF7A0E79E212123D1236
:100905002748900089EFF06003020E3D900088F0C3
:10091500902105E493FF900088E0FEC39F50257B5E
:10092500FF7A0E79F074402EF582E43400F583E009
:10093500FF9000ACE4F0A3EFF012123D900088E0C8
:1009450004F080CC7BFF7A0E79F712123D900044BB
:10095500E090008BF0902111E493FF900086E02F4A
:10096500FF1227BB900089EFF06003020E3D902136
:100975001193FF900086E02F9000E8F07BFF7A0E40
:1009850079F912123D12255C900089EFF06003029F
:100995000E3D900045E090008AF0900044E0900004
:1009A5008DF0E4900088F0900042E0FF900088E030
:1009B500FEC39F50257BFF7A0E79F074402EF58299
:1009C500E43400F583E0FF9000ACE4F0A3EFF0120F
:1009D500123D900088E004F080CD7BFF7A0E79F718
:1009E50012123D90004EE090008CF090008BE0706C
:1009F50028A3E064087022122911900089EFF060A5
:100A050003020E3D9000E77403F09000EA7408F0CD
:100A15007BFF7A0F7907020C1390008BE0600302CD
:100A25000AE3A3E064076003020AE390004FE06471
:100A3500016003020AE37BFF7A0F791712123D90DA
:100A45000053E0FFB4050BA3E0FE60069000EBF059
:100A5500801CEFB40518900054E0FF7C0060047D15
:100A65000180027D00ED4C70059000ECEFF09000E8
:100A75005AE0FFB40510900054E0600A90005BE076
:100A85009000EBF0801EEFB4051A900054E07E0054
:100A950060047F0180027F00EF4E700890005BE0EC
:100AA5009000ECF0122911900089EFF06003020E1E
:100AB5003DA3E0FF12294C900089EFF012278290A8
:100AC5000089EFF06003020E3D9000E77403F0909B
:100AD50000EA7407F07BFF7A0F7925020C1390006A
:100AE5008BE06003020C22A3E064036003020C2286
:100AF50090004FE0D394014003020C227BFF7A0F54
:100B05007936900089E0FF9000ACE4F0A3EFF01295
:100B1500123D12247E900089EFF0900050E0900085
:100B25008CF0122911900089EFF07BFF7A0F794E36
:100B35009000ACE4F0A3EFF012123D900089E06064
:100B450003020E3D7BFF7A0F796512123DE490009A
:100B55008BF090008DE0FE90008BE0FFC39E504E21
:100B65001223FE900089EFF0703C900088F0900011
:100B750088E0FFC3944050257BFF7A0E79F07440DE
:100B85002FF582E43400F583E0FF9000ACE4F0A398
:100B9500EFF012123D900088E004F080D17BFF7ADF
:100BA5000E79F712123D90008BE004F080A49000BE
:100BB500E77403F090008CE0640170269000EA74FD
:100BC50023F090008DE0D39401400F7BFF7A0F79DD
:100BD5007412123D9000EA7403F07BFF7A0F798D51
:100BE500802C90008CE06402702A9000EA7433F047
:100BF50090008DE0D39401400F7BFF7A0F7974123A
:100C0500123D9000EA7403F07BFF7A0F79A112126E
:100C15003D020E3690008974FBF0020E3D90008B6C
:100C2500E064096003020DD112247E900089EFF083
:100C3500540F9000ECF07BFF7A0F79B212123D123F
:100C4500284E900089EFF06003020E3D900088F079
:100C5500900040E0FF900088E0FEC39F50257BFF99
:100C65007A0E79F074402EF582E43400F583E0FFC6
:100C75009000ACE4F0A3EFF012123D900088E00480
:100C8500F080CD7BFF7A0E79F712123D900042E09D
:100C95009000EBF0D3940440037404F012291190F2
:100CA5000089EFF06003020E3D9000E77403F090B9
:100CB50000EA7409F09000887401F09000EBE0FF01
:100CC500900088E0D39F503BE0FF75F005A424CD4C
:100CD500F582E43400F583E4F07D0812287F900066
:100CE50089EFF060167BFF7A0F79C0900088E0FFEE
:100CF5009000ACE4F0A3EFF012123D900088E00400
:100D0500F080B89000887401F09000EBE0FE900050
:100D150088E0FFD39E502A7D101228A7900089EF06
:100D2500F060167BFF7A0F79E2900088E0FF900073
:100D3500ACE4F0A3EFF012123D900088E004F080DF
:100D4500C89000887401F09000EBE0FE900088E008
:100D5500FFD39E507512265B900089EFF060167BDD
:100D6500FF7A10790D900088E0FF9000ACE4F0A3C5
:100D7500EFF012123D900040E06046900088E0FFE1
:100D850075F005A424CDF582E43400F583E0640311
:100D9500602F7D0412287F900089EFF06003E0FF4B
:100DA500227F017E00122981900088E0FF12265BD8
:100DB500900089EFF06003E0FF22900040E020E41E
:100DC500E0900088E004F0020D4C80657BFF7A100E
:100DD500793790008BE0FF9000ACE4F0A3EFF012C0
:100DE500123D7BFF7A10794490008CE0FF9000ACB7
:100DF500E4F0A3EFF012123D7BFF7A1079519000D9
:100E05004FE0FF9000ACE4F0A3EFF012123D122981
:100E150011900089EFF070209000E77403F09000C6
:100E25008BE0FF6002800590008CE0FF9000E7EF0B
:100E3500F07F011229C11F227BFF7A10795B900098
:100E450089E0FF9000ACE4F0A3EFF012123D9000B2
:100E5500E77402F07F011229C1900087E004F002D7
:020E650008780B
:1026D200E4780FF67BFF7A10797312123D7BFF7A52
:1026E200107983780FE6FF9000ACE4F0A3EFF012CC
:1026F200123D9000E7E0B40110780FE6FF12086087
:0B270200780EEFF66003E6FF227F0078
:01270D0022A9
:05183A00900089EFF0B1
:10183F007BFF7A1079969000ACE4F0A3EFF01212D0
:10184F003D900089E0FE70037FFE22AF06122695C1
:10185F007BFF7A0E79E212123D12274890008BEF30
:10186F00F06003E0FF22900044E090008DF09000C4
:10187F0089E02410FF90008CF01227BB90008BEFB3
:10188F00F06003E0FF2290008CE0FF900089E0758C
:10189F00F005A424CEF582E43400F583EFF07BFF4E
:1018AF007A0E79F912123D12255C90008BEFF060E1
:1018BF0003E0FF22900045E090008CF0E490008A56
:1018CF00F0900042E0FF90008AE0FEC39F50257B1E
:1018DF00FF7A0E79F074402EF582E43400F583E040
:1018EF00FF9000ACE4F0A3EFF012123D90008AE0FD
:1018FF0004F080CD7BFF7A0E79F712123D90004EE7
:10190F00E090008EF090008DE07047A3E0640870C7
:10191F004190008CE0FF12291690008BEFF06003CE
:10192F00021A9C900089E0FF75F005A424CDF58282
:10193F00E43400F5837403F0EF75F005A424D0F5BB
:10194F0082E43400F5837408F07BFF7A0F79070285
:10195F001A0A90008DE06003021A12A3E06403607C
:10196F0003021A1290004FE0D394014003021A129F
:10197F0012247E90008BEFF0900089E075F005A4A3
:10198F0024D1F582E43400F583EFF0900050E0901D
:10199F00008EF090008CE0FF12291690008BEFF074
:1019AF006003021A9C900089E0FF75F005A424CD16
:1019BF00F582E43400F5837403F090008EE0B401F7
:1019CF0019EF75F005A424D0F582E43400F5837483
:1019DF0023F07BFF7A0F798D802190008EE0B40287
:1019EF0020900089E075F005A424D0F582E434003E
:1019FF00F5837433F07BFF7A0F79A112123D021A2F
:101A0F0095803990008DE064097039900089E075F8
:101A1F00F005A424D0F582E43400F5837409F07B3B
:101A2F00FF7A1079B112123D90008AE0FF7D01120A
:101A3F0028A790008BEFF06003E0FF2290008B74DB
:101A4F00FBF0804990008CE0FF12291690008BEF7D
:101A5F00F0703A900089E0FF75F005A424CDF5826F
:101A6F00E43400F5837403F090008DE0FE60028093
:101A7F000590008EE0FEEF75F005A424D0F582E40A
:101A8F003400F583EEF07F011229C11F227BFF7A0C
:101A9F001079D990008BE0FF9000ACE4F0A3EFF049
:101AAF0012123D900089E075F005A424CDF582E473
:101ABF003400F5837402F07F011229C190008BE08E
:011ACF00FF17
:011AD00022F3
:101D56007BFF7A1079F212123D9000877401F090A1
:101D660000EBE0FF900087E0D39F4003021F57E49B
:101D7600FF122695122656900088EFF06003E0FFCA
:101D860022900040E030E007900042E020E00B9017
:101D96000042E064106003021EBA900087E0FF75FF
:101DA600F005A424CDF582E43400F5837401F0EF48
:101DB60075F005A424CEF582E43400F583E4F01230
:101DC600265B900088EFF06003E0FF22900041E080
:101DD60030E1047F0080027F01900087E0FE75F00D
:101DE60005A424CFF582E43400F583EFF0EE75F018
:101DF60005A424CFF582E43400F583E07BFF600779
:101E06007A1079FFEE80087A117924900087E0FF36
:101E16009000ACE4F0A3EFF012123D7FC87E0012F2
:101E26002981122878900088EFF06003E0FF227B7A
:101E3600FF7A11794812123D7F017E001229811224
:101E46002656900088EFF06003E0FF22900040E005
:101E560020E4E57F647E001229817D141228A29079
:101E66000088EFF07D101228A2900088EFF0600342
:101E7600E0FF22122656900088EFF06003E0FF2272
:101E8600900040E020E013900087E075F005A42460
:101E9600CDF582E43400F583E4F0900087E0FF128C
:101EA600183A900088EFF06003E0FF227F011229C4
:101EB600C1021F4E900042E030E13D900087E0FFF6
:101EC6007D111228A77BFF7A11796512123D12281F
:101ED60078900088EFF06003E0FF227F017E001219
:101EE6002981122656900088EFF06003E0FF2290C9
:101EF6000040E020E4E58050900040E020E049907A
:101F06000087E0FF75F005A424CDF582E43400F5E2
:101F160083E0C3940140117BFF7A11797B9000AC7A
:101F2600E4F0A3EFF012123D900087E0FF75F00594
:101F3600A424CDF582E43400F583E4F0900042E079
:101F460030E0057D101228A7900087E004F0021DFE
:031F5600657F00A4
:011F59002265
:10260A007BFF7A11799712123DE4900086F09000D0
:10261A00E7E0C3940340289000EAE064097020FFD1
:10262A00122695121D56EF60117BFF7A1179A79039
:10263A0000ACE4F0A3EFF012123D7F011229C19021
:0B264A000086E004F0E0B402C57F0051
:012655002262
:0224EF00A9073B
:1024F100E4FF9000EAE0FDB5010E9000E7E0C3942F
:10250100034005EF7F00FE22ED640970439000E770
:10251100E0C39403403A7D019000EBE0FEEDD39ED1
:10252100502EED75F005A424D0F582E43400F58336
:10253100E0697019ED75F005A424CDF582E434004D
:10254100F583E0C394034005EFFEEDFF220D80C843
:0A2551000FEF6402709C7EFF7FFF15
:01255B00225D
:0B222600900086EBF0A3EAF0A3E9F0C3
:1022310078897C007D017BFF7A1179CA7E007F0855
:10224100121607900086E0FBA3E0FAA3E0F99000E4
:1022510001121646FF12162D4FFF9000031216466B
:102261004FFF9000041216464FFF900005121646CC
:102271004FFF9000061216464FFF900007121646B8
:1022810070047E0180027E00EE4FFF900086E0FB2D
:10229100A3E0FAA3E0F9900002121646B453047EBB
:1022A1000180027E00EE5F6030E4FF74892FF582C9
:1022B100E43400F583E0FE74402FF582E43400F548
:1022C10083EEF00FEFB408E37E007F407B017A00DC
:0B22D1007991121ADBEF6001227F0000
:0122DC0022DF
:1027F100C2EA75E28053D17FE4F5E375EB4875E5F4
:102801000075E40075E70075E640F5D4F5D675E28C
:102811008875D8FFFF122A200FEFB402F875E10383
:012821002294
:0300000002237266
:0C237200787FE4F6D8FD7581210223B9C4
:10153700E709F608DFFA8046E709F208DFFA803E96
:1015470088828C83E709F0A3DFFA8032E309F60883
:10155700DFFA8078E309F208DFFA807088828C83EB
:10156700E309F0A3DFFA806489828A83E0A3F6089F
:10157700DFFA805889828A83E0A3F208DFFA804C79
:1015870080D280FA80C680D4806980F28033801050
:1015970080A680EA809A80A880DA80E280CA8033B9
:1015A70089828A83ECFAE493A3C8C582C8CCC58331
:1015B700CCF0A3C8C582C8CCC583CCDFE9DEE78001
:1015C7000D89828A83E493A3F608DFF9ECFAA9F080
:1015D700EDFB2289828A83ECFAE0A3C8C582C8CCD6
:1015E700C583CCF0A3C8C582C8CCC583CCDFEADEEF
:1015F700E880DB89828A83E493A3F208DFF980CC51
:1016070088F0EF60010E4E60C388F0ED2402B40449
:101617000050B9F582EB2402B4040050AF232345F0
:0616270082239015877379
:10162D00BB010689828A83E0225002E722BBFE02BB
:09163D00E32289828A83E49322EE
:10164600BB010CE58229F582E5833AF583E0225059
:1016560006E92582F8E622BBFE06E92582F8E222A3
:0D166600E58229F582E5833AF583E49322BD
:10167300BB010989828A83F8E028F022500327F707
:1016830022BBFE05F8E328F3228A838982F8E493D8
:0216930028220B
:10169500BB010689828A83F0225002F722BBFE0134
:0216A500F3222E
:1016A700C5F0F8A3E028F0C5F0F8E58215827002CE
:0616B7001583E038F0226B
:1016BD0075F008758200EF2FFFEE33FECD33CDCCE4
:1016CD0033CCC58233C5829BED9AEC99E582984067
:1016DD000CF582EE9BFEED9AFDEC99FC0FD5F0D644
:1016ED00E4CEFBE4CDFAE4CCF9A88222B800C1B96E
:1016FD000059BA002DEC8BF084CFCECDFCE5F0CBAC
:10170D00F97818EF2FFFEE33FEED33FDEC33FCEBE4
:10171D0033FB10D703994004EB99FB0FD8E5E4F99F
:10172D00FA227818EF2FFFEE33FEED33FDEC33FC8C
:10173D00C933C910D7059BE99A4007EC9BFCE99A80
:10174D00F90FD8E0E4C9FAE4CCFB2275F010EF2FC5
:10175D00FFEE33FEED33FDCC33CCC833C810D707C5
:10176D009BEC9AE899400AED9BFDEC9AFCE899F800
:0E177D000FD5F0DAE4CDFBE4CCFAE4C8F92293
:0C178B00ECF0A3EDF0A3EEF0A3EFF022D1
:10179700A8828583F0D083D0821217AE1217AE12BB
:1017A70017AE1217AEE473E493A3C583C5F0C583E0
:1017B700C8C582C8F0A3C583C5F0C583C8C582C89C
:0117C70022FF
:1011D200E50924ACF582E43400F583E005092290A8
:1011E20000A93007039000ACE475F0011217F40275
:1011F200162D2000E97F2ED2008018EF540F249084
:10120200D43440D4FF30040BEF24BFB41A0050038F
:101212002461FFE50A6002150A050DE50D7002055D
:101222000C30070E9000A9E475F0011217F4EF02DA
:1012320016950228CA7403D2078003E4C207F5098F
:101242009000A912180BE4F50AF50CF50DE50A60F9
:10125200077F2012121580F5750BFFC201C200C272
:1012620002C203C205C206C2081211E1FF700D30AC
:1012720007057F00121226AF0DAE0C22B4255FC205
:10128200D5C2041211E1FF24D0B40A00501A75F03D
:101292000A780A30D50508B6FF0106C6A426F6204C
:1012A200D5047002D20380D924CFB41A00EF5004BF
:1012B200C2E5D204021427D20180C6D20080C0D275
:1012C2000280BCD2D580BAD20580B47F201212151A
:1012D2002002077401B50A0040F11211D2FF121266
:1012E2001502124FD208D20680951211D2FB1211AA
:1012F200D2FA1211D2F94A4B700679F87A147BFFAE
:1013020020022EE50A602A7E008E82758300121664
:101312004660060EEE650B70F0C2D5EBC0E0EAC087
:10132200E0E9C0E0EE12146ED0E0F9D0E0FAD0E0CD
:10133200FB12162DFF60AAEBC0E0EAC0E0E9C0E0B4
:10134200121215D0E02401F9D0E03400FAD0E0FB0B
:10135200E50B0460DCD50BD980877BFF7A14796AB0
:10136200D202809C791080027908C206C2088008E5
:10137200D2D5790A8004790AC2D5E50B047002F548
:101382000BE4FAFDFEFF1211D2FC7B0820011312BE
:1013920011D2FD7B1030000A1211D2FE1211D2FFBF
:1013A2007B20EC3382D592D55013C3E43000069FE4
:1013B200FFE49EFEE42001039DFDE49CFCE4CBF8E7
:1013C200C201EC700CCFCECDCCE824F8F870F380DB
:1013D20017C3EF33FFEE33FEED33FDEC33FCEB339B
:1013E200FB994002FB0FD8E9EB300105F8D0E0C4CD
:1013F20048B201C0E00AEC4D4E4F78207B0070C22B
:10140200EAB50B0040BCC0E0121470D0F0D0E0206E
:101412000104C4C0E0C4B201C0F01211FED0F0D584
:10142200F0EB02124F12181412EC5313665812BD4D
:101432004C12B942136A4F13724413724912D243C7
:08144200137855135C46135C9E
:10144A0045135C4715185012C12D12C52E12E82BF0
:10145A0012C92312E62015012A128148000012E05F
:10146A003F3F3F00790AA2D5200314300509B9107D
:10147A00020404B9080104A2D5200602500104207E
:10148A0002689202B50A005034C0E07F2030031986
:10149A007F30A20272067205500F1214C7C202C22E
:1014AA0006C205C2087F30800F300503E9C0E0128A
:1014BA001215300503D0E0F9D0E0B50ACC30051793
:1014CA007F30B9100C1212157F583004077F7880CC
:1014DA0003B908031212153002057F2D0212157F77
:1014EA00202008F87F2B2006F322920280CF286E54
:1014FA00756C6C2900D2011211D23001F8C2017840
:10150A000A30D50108F60212812D504349581211AA
:10151A00D22403B405004001E49015139312120675
:0D152A00743A121206D203750A0402136609
:0A29F6003098FDAF99C2987E0022D0
:1017C800EF4E6012EF60010EEDBB010B89828A8338
:1017D800F0A3DFFCDEFA2289F05007F709DFFCA945
:0C17E800F022BBFEFCF309DFFCA9F0229C
:10237E00020003E493A3F8E493A34003F68001F272
:10238E0008DFF48029E493A3F85407240CC8C33360
:10239E00C4540F4420C8834004F456800146F6DF2F
:1023AE00E4800B0102040810204080902A28E47E6D
:1023BE00019360BCA3FF543F30E509541FFEE49324
:1023CE00A360010ECF54C025E060A840B8E493A3EB
:1023DE00FAE493A3F8E493A3C8C582C8CAC583CA16
:1023EE00F0A3C8C582C8CAC583CADFE9DEE780BECE
:012A2C0000A9
:1017F400F8E0FBA3A3E0F925F0F0E582158270027E
:071804001583E0FA38F02221
:09180B00EBF0A3EAF0A3E9F022DE
:10181400D083D082F8E4937012740193700DA3A363
:1018240093F8740193F5828883E473740293686077
:06183400EFA3A3A380DF77
:1028CA00EFB40A07740D1228D5740A309811A89922
:1028DA00B8130CC2983098FDA899C298B811F6306E
:0728EA0099FDC299F5992246
:00000001FF
