:04000000020059326F
:01000B0032C2
:0100130032BA
:01001B0032B2
:0100230032AA
:01002B0032A2
:01003300329A
:01003B003292
:0300430002019126
:01004B003282
:0300530002073E63
:1B00B20078717600787276007873760078747600787576007876760002005692
:0300560002077826
:2000CD0075E20053E27F43E22975E30053E2BF53D1FB75D18043D1012243E10443E10243C1
:2000ED00E10143D81FD2EAD2AF2275EE4075EF0075E48075E50075EBCC75D41275D21275E9
:20010D00EC0075ED0075EA4075DC0222AD82AE83AFF0E4F518F519F51AF51B8D828E838FA4
:20012D00F0120AFDFC8C1874012DFAE43EFB8F048A828B838CF0120AFDFA8A1974022DFAD4
:20014D00E43EFB8F048A828B838CF0120AFDFA8A1A74032DFDE43EFE8D828E838FF0120A19
:20016D00FDFD8D1B851826851927851A28851B2990424075F00FE4120A28AC82C3E49CF5A4
:20018D00C2D2EC22C020C0E0C0F0C082C083C007C006C005C004C003C002C001C000C0D04F
:2001AD0075D00020D9030206CC743F55D9FFFEBE0003020693BF02028038BF200302061A64
:2001CD00BF2102800DBF22028016BF3002803C0206CA75D30074FC55D24402F5D20206CAED
:2001ED0075D50074FC55D44402F5D4787676000206CA20DE030206CA7874A6DB7875760027
:20020D0074F355D44408F5D40206CAAEDB7F00BE0805BF000280030205EE900007E0FE7F5A
:20022D0000900006E07C004FF508EC4EF5097E007F00900001E0F50A900000E0FD5460604D
:20024D00787420B50A030205F27421B50A02800A7422B50A030205F28058750D00750E01BB
:20026D00750F00C3E5089408E509940040067C087D008004AC08AD098C068D07850D268587
:20028D000E27850F288E298F2A90000075F000C007C006120A8DD006D007E508C39EF508CD
:2002AD00E5099FF509EE250DF50DEF350EF50E0205F27EFF7F000205F2E50A24F550030204
:2002CD0005E8E50A240B83F582E50A240F83F583E473C80AE8B7E8D9F5E8E601F2050405A2
:2002ED000405030205030405900003E0FDBD0102800ABD02028014BD0372801E750D1D75DF
:20030D000E0B750F807C127D008065750D2F750E0B750F807C437D008056900002E0700F7D
:20032D00750D72750E0B750F807C047D008041900002E0FBBB010F750D9E750E0B750F8082
:20034D007C0A7D00802A900002E0FBBB020F750D8A750E0B750F807C147D008013750D7674
:20036D00750E0B750F807C147D0080047CFF7D00C3EC9508ED950950048C088D09C3E50850
:20038D009408E509940040067C087D008004AC08AD098C068D07850D26850E27850F288E1B
:2003AD00298F2A90000075F000C007C006120A8DD006D007E508C39EF508E5099FF509EEB2
:2003CD00250DF50DEF350EF50E0205F2900002E0FD8D087509000205F2900000E50CF0C3FF
:2003ED00E5089401E509940050030205F27E017F000205F2900002E0F50C0205F2900000AD
:20040D00E0541F7033900003E0FC7D00900002E0FB7A004205EA4204BD0116BC0013900B51
:20042D0036E493FD30E5030205F27EFF7F000205F27EFF7F000205F2900000E0FD53051F26
:20044D007C00BD025EBC005B900004E0FDBD01028044BD0202802EBD03028018BD81028061
:20046D002ABD82028014BD833374BC55D64402F5D60205F253D6730205F274BC55D4440264
:20048D00F5D40205F253D4730205F274BC55D24402F5D20205F253D2730205F27EFF7F0010
:2004AD000205F27EFF7F000205F2900000E0541F704D900003E0FC7D00900002E0FB7A00CE
:2004CD004205EA4204BD0130BC002D900B36E493FD30E51DE5A220E7FB75A15575A1AA7521
:2004ED00A9C143870275A15575A1AA75A9000205F27EFF7F000205F27EFF7F000205F290FD
:20050D000000E0FD53051F7C00BD0205BC000280030205C2900003E0FC7D00900002E0FBD7
:20052D007A004205EA4204ED4C60030205BC900005E0FC7D00900004E0FB7A004205EA4214
:20054D0004BD0105BC00028058BD0205BC0002803CBD0305BC00028020BD8105BC0002804F
:20056D0036BD8205BC0002801ABD833DBC003A74BF55D64403F5D6806C747F55D6440CF56A
:20058D00D6806274BF55D44403F5D48058747F55D4440CF5D4804E74BF55D24403F5D28067
:2005AD0044747F55D2440CF5D27EFF7F0080367EFF7F0080307EFF7F00802A900000E4F051
:2005CD00900001F0C3E5089402E509940040067E027F008010AE08AF09800A7EFF7F00807C
:2005ED00047EFF7F00BEFF0CBF0009750AFF75DCCF0206CAC374089EE49F40088EDD75DC89
:20060D00C00206CA75DD0075DCC00206CA7405B50A02805A7406B50A65C3E5089408E5091A
:20062D00940040067E087F008004AE08AF09850D26850E27850F288E298F2A90000075F049
:20064D0000C007C006120A8DD006D007E508C39EF508E5099FF509EE250DF50DEF350EF58B
:20066D000E8EDDAEDC7F006306408EDC804FE5E35480FFE508FE4FF5E375DC02803F75DDF8
:20068D000075DC0280377420B50A2C30DE2F75260075270075280085DB29752A00900100FA
:2006AD0075F000120A8D90010075F00012011975DD0085DCDC800675DD0043DC02C2D930AA
:2006CD00D82975DC0275D21275D41275E300C2DAC2D9C2D8787176007872760078737600BC
:2006ED0078747600750C007876760010DA028021E5DA30E21FE5A220E7FB75A15575A1AA75
:20070D0075A9C143870275A15575A1AA75A900800375D8FFD0D0D000D001D002D003D0044F
:20072D00D005D006D007D083D082D0F0D0E0D02032C0E0C007C000C0D075D00030C023786C
:20074D007186077871EF04F6EF2431F8A6C17873E6787304F67871B64000400478717600E1
:20076D00C2C0D0D0D000D007D0E0327F00C00712085F9000051208871208A912096B120071
:20078D00CD1200F71200E6D00775DD0075D30075D500E50C60FC7874E6602C787586067827
:2007AD0075EE04F6EE2480F582E43400F583E0F582C00712097ED0077874E6787414F67868
:2007CD0074E6700353D4F37873E660010F7876E670C07873E6FE60BAEE24D84005EF249B1A
:2007ED0050B07F00787286047D008E027B00EA2CFCEB3DFDC374409C74808DF063F080954E
:20080D00F05009787286057440C39DFE7873E6C39EF67872E62431FD8D2675270075284085
:20082D008E29752A009000C075F000C007C006120A8DD006D0077872EE26F67872B64000E9
:12084D004004787276008ED553D4FC7876760102079F62
:200B1D001201100102000008861A225700010102030109024300020100A032090400000138
:200B3D000202010005240010010524010000042402020524060001070581030800FF09042F
:200B5D000100020A000000070502024000000705820240000004030904140332003000318D
:200B7D000037002D0032002D00320035001403430048003500350034005F004300440043C5
:120B9D00000A035F6CCF82816C526000E1000000000895
:20085F0075A15575A1AA74F855B94405F5B975A10022AE82AF83EE4F600D05A105A105A1A7
:20087F001EBEFF011F80EF22AE82AF83EE4F60159003E8C007C006120871D006D0071EBE9D
:20089F00FF011F80E72243C61022C29FD29EC29DC2CDC2CC438780752111752204E4F52381
:2008BF00F52475260AF527F528F5298521828522838523F0E5241209A5AC828C2575260ACD
:2008DF00E4F527F528F5298521828522838523F0E524120A2885822185832285F023F52484
:2008FF0074FB25255019AC21AD22AE23AF2474012CF521E43DF522E43EF523E43FF524749E
:20091F000F55894420F58943C9A0AF21C3E49FF58DD28ED299D29C2210980280FB85998285
:20093F002285829910990280FB22AE82AF8310990280FB8E998E828F832210980280FBAEC8
:20095F00997F008E828F832243C62022C2C7D2C5D2C475C2982210C00280FB85C18222856E
:20097F0082C110C10280FB22AF8275A15575A1AAEF600543B101800353B1FE75A10075FFF1
:06099F0000228582FF2208
:2009A500F9E52645274528452960777800C308E52920E73BE52625E0F526E52733F527E512
:2009C5002833F528E52933F529E5829526E5839527E5F09528E9952950D4C3E52913F52996
:2009E500E52813F528E52713F527E52613F526E5829526FCE5839527FDE5F09528FEE995F4
:200A0500294007F98EF08D838C82C3E52913F529E52813F528E52713F527E52613F526D841
:030A2500CEE922F5
:200A2800FB7A20E4FCFDFEFFE5822582F582E58333F583E5F033F5F0EB33FB4017DAE98007
:200A480042E5822582F582E58333F583E5F033F5F0EB33FBEC33FCED33FDEE33FEEF33FF36
:200A6800EC9526ED9527EE9528EF95294013EC9526FCED9527FDEE9528FEEF9529FF438210
:050A880001DABEEB22C3
:06008800E478FFF6D8FD4C
:200A8D00AD82AE83AFF08D2B8E2C8F2D85262E85272F852830A829A92A8803890418B8FF00
:200AAD000119EB4C6025852E82852F838530F0120AFDFCA385822E85832F8D828E838FF07F
:150ACD00EC120AE2A3AD82AE8380CE852B82852C83852DF022AF
:200066007907E94400601B7A01900BA8780075A001E493F2A308B8000205A0D9F4DAF27585
:02008600A0FFD9
:1B0AE20020F71130F6138883A88220F509F6A8837583002280FEF280F5F02213
:20008E007800E84400600A790075A001E4F309D8FC7800E84400600C7900900100E4F0A370
:0400AE00D8FCD9FAA7
:0D005900758176120B19E5826003020056D6
:1C0AFD0020F71430F6148883A88220F507E6A88375830022E280F7E49322E02208
:040B190075820022BF
:00000001FF
