:0423CF007F02DFFEAC
:0123D30022E7
:0823BF0090BDF1EFF00223CF05
:0B232A00AF46AE45AD44AC4312027755
:0623350090BCF0EFF02265
:0523A1007F281223BF9C
:0623A60090BCF0E0FF22F4
:1022F700E4FEEEC39F5014E4FDFC0DBD00010CC3CA
:0B230700ED94E8EC940340F20E80E738
:0123120022A8
:03235D001223BF89
:0B23600020B2FD7F221223BF1223A633
:01236B00224F
:102262007F011223BF1223A6AE07EEC394A250032E
:102272007F00227F151223BF7F061223357EFF12B5
:0C22820023A6BF51037F0122DEF57F0080
:01228E00222D
:0D236C007F5112235DBF14037F01227F000B
:012379002241
:102230007F531223BF7B017A7479F2122360EF641B
:1022400014701C1223A1AE07EE60111223A6EF1228
:102250000049740129F9E43AFA1E80EC7F01227FDB
:01226000007D
:01226100225A
:101E54008F408E3F8D3E8C3DE4FFE4FDFC780812FC
:101E6400028AC004C005C006C007E540FFE4FEFDC9
:101E7400FC781812028AD003D002D001D000EF4BB4
:101E8400FFEE4AFEED49FDEC48FCC004C005C00667
:101E9400C007E4FFFEFDE53DFC7818120277D0038D
:101EA400D002D001D000EF4BFFEE4AFEED49FDEC2D
:101EB40048FCC004C005C006C007E4FFFEE53EFDC3
:101EC400E4FC7808120277D003D002D001D000EFEE
:101ED4004BF540EE4AF53FED49F53EEC48F53DAF94
:071EE40040AE3FAD3EFC22C1
:0923B600EFFAEEFFEAFCAE04228E
:081EEB008F468E458D448C43A7
:101EF3007F541223BFAF46122335780812232A7862
:101F03001012232AAF46AE45AD44AC4378181202F3
:101F130077122335AF47122335E54775F008A4FD43
:101F2300ACF0ED4C60391223608F4BE54B641D70B0
:101F33002E1223A1AE07EE601A1223A6AB48AA49BC
:101F4300A94AEF1200497401254AF54AE43549F5D7
:101F530049DEE67F551223BFED1D70C61C80C3ED1D
:101F63004C700D1223608F4BE54BB414037F012299
:021F73007F00ED
:011F75002249
:081DAF008F4A8E498D488C47D4
:101DB7007F561223BFAF4A122335AF4AAE49AD480B
:101DC700AC477808120277122335AF4AAE49AD48BF
:101DD700AC477810120277122335AF4AAE49AD48A7
:101DE700AC477818120277122335AF4B122335E52B
:101DF7004B75F008A4FDACF0ED4C603D1223608FED
:101E07004FE54F641E70327F2B1223BF7E407F4009
:101E1700122335AB4CAA4DA94E120003FF122335EE
:101E27007401254EF54EE4354DF54DDEE67F57122C
:101E370023BFED1D70C21C80BFED4C700D122360D7
:0C1E47008F4FE54FB414037F01227F0091
:011E5300226C
:0E237A007F5A12235DBF14037F01227F0022D1
:10233B007F591223BF122360BF14037F01227F003A
:01234B00226F
:0323D4007F012264
:1021DB00EF24FEFFEE34FFFEE48F408E3FF53EF51D
:1021EB003D9000AEE0FFE4FCFDFEAB40AA3FA93EF4
:1021FB00A83D1201498F408E3F8D3E8C3D9000E4EF
:10220B00E0FCA3E0FDA3E0FEA3E02540F540EE35A6
:10221B003FF53FED353EF53EEC353DF53DAF40AE80
:04222B003FAD3EFC89
:01222F00228C
:1022BA00EF25E0FFEE33FE9000ACE0FCA3E0FD1258
:0E22CA00008F9000DEE0FCA3E02FFFEC3EFE54
:0122D80022E3
:10228F00EF25E0FFEE33AB07FA9000ACE0FCA3E0E4
:10229F00FDAE0212008F9000ACE0FCA3E0FD120037
:0A22AF007DC3EB9FFBEA9EFEAF0328
:0122B9002202
:042105008E368F374C
:102109001222BA8E388F39AF37AE3612228F8E3AF5
:102119008F3B90005DE065387004A3E06539602865
:10212900AE38AF39E4FCFD75470175480175497052
:10213900754AF2121EEBEF70057EFF7FFF229000B9
:102149005DE538F0A3E539F074F3253BF582747049
:10215900353AF583E0753600F537753700F536748D
:10216900F2253BF5827470353AF583E02537F5376A
:08217900E43536F536FEAF3700
:01218100223B
:041CCE008E3B8F3C7E
:101CD200D3E53C9401E53B94005003021DACE53C86
:101CE20094F0E53B94FF4003021DACAF3CAE3B12C7
:101CF20022BA8E3D8F3EAF3CAE3B12228F8E3F8F7B
:101D020040AE3DAF3EE4FCFD7547017548017549A3
:101D120074754AF2121EEBEF602F74F32540F582C0
:101D22007474353FF583E0753B00F53C753C00F576
:101D32003B74F22540F5827474353FF583E0253C0F
:101D4200F53CE4353BF53B80037F002274F22540ED
:101D5200F5827474353FF583E4F074F32540F5821F
:101D62007474353FF583E4F0AE3DAF3EFCFD754B38
:101D720001754C01754D74754EF2121DAFEF700274
:101D8200FF229000B6E0253EFF9000B5E0353DFE13
:101D9200E4FCFD754B01754C01754D74754EF212E4
:0C1DA2001DAFEF6003021CD2FF227F0186
:011DAE002212
:081BDC008F128E118D108C0F89
:101BE4009000AEE0FF7E009000ACE0FCA3E0FD12AC
:101BF400007D8E138F1490004AE0FFA3E090005004
:101C0400CFF0A3EFF0AE13AF14E4FCFDAB12AA11B6
:101C1400A910A80FD3120266403AAE13AF14AB0753
:101C2400AA06E5129BF512E5119AF511E510940048
:101C3400F510E50F9400F50F900050E0FEA3E0FFCF
:101C4400122105900050EEF0A3EFF0BEFFB7BFFFE6
:101C5400B47F00229000ACE0FEA3E0FBAA06E4F906
:101C6400F8AF12AE11AD10AC0F1201D4900058EFC2
:101C7400F0900050E0FEA3E0FF1221DBA804A905C8
:101C8400AA06AB07900058E0FFE4FCFDFEEB2FFF33
:101C9400EE3AFEED39FDEC38FC900052120341900F
:101CA4000058E0FF7E009000ACE0FCA3E0FD1200D1
:101CB4007DC3E5129FFFE5119E900056F0A3EFF05F
:091CC400E490005DF0A3F07F0143
:011CCD0022F4
:101A7F00E4F532F5339000DCE0FCA3E0FDA3E0FEDB
:101A8F00A3E0F5398E388D378C369000B5E0FEA384
:101A9F00E0FFE4FCFD9000DCE0F8A3E0F9A3E0FA3E
:101AAF00A3E02FFFEA3EFEED39FDEC38FCAB39AA7F
:101ABF0038A937A836C31202664003021BD8AF39C4
:101ACF00AE38AD37AC367547017548017549747539
:101ADF004AF2121EEBEF7003FEFF22E4F534F535E8
:101AEF00D39000ADE095359000ACE09534500302F3
:101AFF001BA274F22535F58274743534F583E070CA
:101B0F007C74F32535F58274743534F583E0706D8C
:101B1F0074F22535F58274743534F58374FFF074DF
:101B2F00F32535F58274743534F58374FFF0AF39CE
:101B3F00AE38AD37AC36754B01754C01754D7475BC
:101B4F004EF2121DAFEF7003FEFF229000B5E0FEC4
:101B5F00A3E0FFEF2539FFEE3538FEE43537FDE41E
:101B6F003536FC754B01754C01754D74754EF2127F
:101B7F001DAFEF7003FEFF22AE32AF33220533E508
:101B8F00337002053274022535F535E43534F534FA
:101B9F00021AEFE53325E0FFE53233FE9000ACE0AB
:101BAF00FCA3E0FD12008FE4FCFD9000DCE0F8A345
:101BBF00E0F9A3E0FAA3E02FF539EA3EF538ED3965
:0C1BCF00F537EC38F536021A99E4FEFFF9
:011BDB0022E7
:0409AF008E368F37BA
:1009B300E4F5389000DCE0FCA3E0FDA3E0FEA3E057
:1009C300FF9070E8E0F8A3E0F9A3E0FAA3E0FBC32B
:1009D3001202667032C39070EDE094039070ECE005
:1009E300940050239070E8E0FCA3E0FDA3E0FEA395
:1009F300E0FF754701754801754972754AF2121E89
:100A0300EBEF7003FEFF229000DCE0F8A3E0F9A314
:100A1300E0FAA3E0FB9070E8E0FCA3E0FDA3E0FEB6
:100A2300A3E0C39BF542EE9AF541ED99F540EC98AE
:100A3300F53F9000ACE0FEA3E0FFE4FCFDAB42AA6F
:100A430041A940A83F1201498F428E418D408C3FFE
:100A5300E47B02FAF9F81201D48F428E418D408C67
:100A63003F9070ECE0C313FEA3E0132542F53AEE8A
:100A73003541F5399000B5E0FEA3E0FFE4FCFD90BD
:100A830000DCE0F8A3E0F9A3E0FAA3E02FFFEA3EDD
:100A9300FEED39FDEC38FC9070E8E0F8A3E0F9A333
:100AA300E0FAA3E0FBC31202664003020B98900036
:100AB300ACE0FEA3E0FF9070ECE0FCA3E0FDC39F7D
:100AC300EC9E506E74F22DF58274723CF583E070E7
:100AD3004874F32DF58274723CF583E0703B90709B
:100AE300ECE0FEA3E0FF24F2F58274723EF583741A
:100AF300FFF074F32FF58274723EF58374FFF09068
:100B030070EDE02402F09070ECE03400F0AF21EFE0
:100B13004440F52175380180199070EDE02402F00E
:100B23009070ECE03400F0053AE53A7002053902C2
:100B33000AB1E5386401605D9070E8E0FCA3E0FD74
:100B4300A3E0FEA3E0FF1221829070E8E0FCA3E0A3
:100B5300FDA3E0FEA3E02401FFE43EFEE43DFDE44B
:100B63003CFC9070E8120341E49070ECF0A3F09029
:100B730070E8E0FCA3E0FDA3E0FEA3E0FF754701FE
:100B8300754801754972754AF2121EEBEF60030254
:100B93000A77FEFF22E5387003FEFF22AF37AE3639
:100BA3001222BA8E3B8F3CAF37AE3612228F8E3D68
:100BB3008F3EAE3BAF3CE4FCFD9070E8E0F8A3E071
:100BC300F9A3E0FAA3E0FBC31202666078AE3BAF81
:100BD3003CE4FCFD754701754801754974754AF29B
:100BE300121EEB74F2253EF5827474353DF583E5F0
:100BF3003AF0E539FF74F3253EF5827474353DF51B
:100C030083EFF0AE3BAF3CE4FCFD754B01754C014B
:100C1300754D74754EF2121DAFEF7003FEFF2290F7
:100C230000B6E0253CFF9000B5E0353BFEE4FCFD5B
:100C3300754B01754C01754D74754EF2121DAFEF76
:100C4300702AFEFF2274F2253EF5827472353DF55B
:100C530083E53AF0E539FF74F3253EF58274723586
:100C63003DF583EFF0AF21EF4440F521AE39AF3AC4
:010C7300225E
:102182008F468E458D448C43AF21EFC41313540305
:1021920030E045AF46754B01754C01754D72754E79
:1021A200F2121DAFEF60319000B5E0FEA3E0FFEF49
:1021B2002546FFEE3545FEE43544FDE43543FC7526
:1021C2004B01754C01754D72754EF2121DAFEF60E9
:0921D20007AF21EF54BFF52122F3
:1011530012236CEF7002FF22752501752674752723
:10116300F29000AC7402F0A3E4F01223D4EF700207
:10117300FF2212237AEF7002FF2212233BEF700249
:10118300FF22122230EF7002FF22754701754801DA
:10119300754974754AF27F007E007D007C00121E43
:1011A300EBEF7002FF229074F2E0FF64EB6004EF58
:1011B300B4E90C9000A412034D000000008015ABAD
:1011C30025AA26A9279001C61202BD121E5490001B
:1011D300A4120341752801752974752AF29000A49D
:1011E300E0FCA3E0FDA3E0FEA3E0FF754701754823
:1011F30001754974754AF2121EEBEF7002FF22ABC0
:1012030028AA29A92A90000B1200E4FFAEF01223AA
:10121300B69000ACEEF0A3EFF0AB28AA29A92A9070
:10122300000D12001C9000AEF090001012001C90F4
:1012330000AFF09000111200E4FFAEF01223B6905D
:1012430000B0EEF0A3EFF0AB28AA29A92A9000136F
:101253001200E4FFAEF01223B69000B2EEF0A3EF5B
:10126300F0AB28AA29A92A9000161200E4FFAEF0D9
:101273001223B69000B5EEF0A3EFF0AB28AA29A98C
:101283002A9000201202BD121E549000BF12034187
:10129300AB28AA29A92A90000E12001CFFE4FCFD2A
:1012A300FE9000A4E0F8A3E0F9A3E0FAA3E02FFF87
:1012B300EE3AFEED39FDEC38FC9000DC120341AA56
:1012C30029A92A90000E12001CFFE4FCFDFEC004B5
:1012D300C005C006AB079000B6E025E0FF9000B55F
:1012E300E033FE9000A4E0F8A3E0F9A3E0FAA3E062
:1012F3002FFFEA3EFEED39FDEC38FCD002D001D0E1
:1013030000EF2BFFEE3AFEED39FDEC38FC9000E0E8
:101313001203419000B6E025E0FF9000B5E033FEF4
:10132300E4FCFD9000DCE0F8A3E0F9A3E0FAA3E01D
:101333002FFFEA3EFEED39FDEC38FCEF2420FFE4FD
:101343003EFEE43DFDE43CFC9000E4120341E490E6
:0C1353000049F0AF20EF4410F5207F01AE
:01135F00226B
:0823C700AF20EFC45401FF2216
:10155B00AF20EFC4540F20E009900061E4F0A30426
:10156B00805CE4F508F509F50DF50E9000B0E0C4CC
:10157B00F854F0C868FEA3E0C4540F48FFC3E50E4F
:10158B009FE49E4003021706E4FCFDFE9000E0E0A2
:10159B00F8A3E0F9A3E0FAA3E0250EFFEE3AFEED87
:1015AB0039FDEC38FC754701754801754974754A6E
:1015BB00F2121EEBEF700B900061F0A3740AF07F38
:1015CB000022E4F50AF50BD39000ADE0950B9000EB
:1015DB00ACE0950A50030216FB74F2250BF58274EE
:1015EB0074350AF583E0FF7006750D010216FBEFEB
:1015FB0064E570030216EDEF20E0030216A574FDFF
:10160B00250BF5827474350AF583E0F4600302163A
:10161B00A574F2250BF5827474350AF583E0540F2B
:10162B00F909E4F50CE975F020A4FFC3E50C9FE57F
:10163B00F06480F8748098503AE50CFD7C00250B23
:10164B00FFEC350AFE74F22FF58274743EF583E0DD
:10165B00FBE509AE087805C333CE33CED8F92DFFA1
:10166B00EE3CFE74E82FF58274003EF583EBF0053B
:10167B000C80B2E924FFFFE434FFFEEF7805C3339F
:10168B00CE33CED8F9250BF50BEE350AF50AE92545
:10169B0009F509E43508F5088048E4F50CE50CFD7F
:1016AB007C00250BFFEC350AFE74F22FF582747467
:1016BB003EF583E0FBE509AE087805C333CE33CEA8
:1016CB00D8F92DFFEE3CFE74E82FF58274003EF541
:1016DB0083EBF0050CE50CB420C30509E50970029A
:1016EB0005087420250BF50BE4350AF50A0215D213
:1016FB00E50D64016005050E021576E509AE087867
:10170B0005C333CE33CED8F9FF1223B6900063EE68
:10171B00F0A3EFF0E509AE087805C333CE33CED88E
:0C172B00F99000A0F0EE90009FF07F010C
:01173700228F
:061360008B328A33893450
:10136600AF20EFC4540F20E00A900061E4F0A3041C
:101376000214B5E4900049F0F5399000B0E0C4F8E5
:1013860054F0C868FEA3E0C4540F48FFC3E5399F74
:10139600E49E4003021493E4FCFDFE9000E0E0F8B6
:1013A600A3E0F9A3E0FAA3E02539FFEE3AFEED3912
:1013B600FDEC38FC754701754801754974754AF2AC
:1013C600121EEBEF700A900061F0A3740A0214B5C6
:1013D600E4F535F536D39000ADE095369000ACE0F7
:1013E6009535500302148874F22536F582747435E7
:1013F60035F583E0700A900061F0A374110214B50C
:10140600E4F537AB32AA33A93485378275830012E7
:10141600001CFFE5377C002536FDEC3535FC74F203
:101426002DF58274743CF583E0B507090537E53779
:10143600D3940A40CEE537D3940A4038E4F5377E94
:1014460000E5362537FFEE3535FE74F22FF582744A
:10145600743EF583E0FF74632537F582E43400F5C6
:1014660083EFF00537E537B420D59000497401F0D5
:10147600F538800E74202536F536E43535F5350217
:1014860013DBE5386401600505390213809000B06E
:10149600E0C4F854F0C868FEA3E0C4540F48FFC384
:1014A600E5399FE49E400C900061E4F0A37411F0CE
:1014B6007F00227B017A0079638B3A8A3B893C90D4
:1014C600001A1200E4FFAEF01223B690004AEEF0C6
:1014D600A3EFF0AB3AAA3BA93C90001C1202BD1246
:1014E6001E5490004C12034190004AE0FFA3E09086
:1014F6000050CFF0A3EFF090004AE0FEA3E0FF1209
:1015060021DB900052120341E4900056F0A3F0A3B1
:10151600F090005DF0A3F090005912034D0000001A
:10152600009000DCE0FCA3E0FDA3E0FEA3E0FF905A
:1015360070E81203419000DCE0FCA3E0FDA3E0FEAE
:10154600A3E0FF9070EE1203419070ECE4F0A374F8
:0415560002F07F011F
:01155A00226E
:0A0C74008E258F268B278A288929F8
:100C7E00AF20EFC4540F20E00A900061E4F0A3040B
:100C8E00020EB4900049E0700A900061F0A3741453
:100C9E00020EB4E4900049F0752A0190009FF0A373
:100CAE00F0D3E5269400E5259470400B900061E4A6
:100CBE00F0A37412020EB4E4FCFD900059E0F8A308
:100CCE00E0F9A3E0FAA3E02526FFEA3525FEED398B
:100CDE00FDEC38FC90004CE0F8A3E0F9A3E0FAA399
:100CEE00E0FBC3120266500B900061E4F0A3741295
:100CFE00020EB4D3E5269400E52594005003020EAF
:100D0E00E7900057E02526FF900056E03525FE902F
:100D1E0000ACE0FCA3E0FDC39FEC9E78195007A643
:100D2E000408A6058005A60608A607D3900057E07E
:100D3E009400900056E094005003020DE99000528A
:100D4E00E0FCA3E0FDA3E0FEA3E0FF7547017548BC
:100D5E0001754974754AF2121EEBEF6073900056DE
:100D6E00E0FEA3E0FFC3781AE69FF618E69EF6E4CF
:100D7E00781BF608F6781BE6FE08E6FFC3781A968F
:100D8E00EE18965036900057E02FFF900056E03E3A
:100D9E00FE74F22FF58274743EF583E0FFAB27AA42
:100DAE0028A929781BE6FC08E6F5828C83EF120051
:100DBE005B781C06E61870BD0680BA7819E6FE0848
:100DCE00E6FF900057E02FF0900056E03EF0804E88
:100DDE00900061E4F0A3740A020EB4900052E0FC9D
:100DEE00A3E0FDA3E0FEA3E0FF75470190009FE0A6
:100DFE00F8A3E02529F9E52838852748F549894AD9
:100E0E00121EEBEF700A900061F0A3740A020EB48A
:100E1E007819E6FF08E6900056CFF0A3EFF07819A8
:100E2E00E6FE08E6FFC3E5269FF526E5259EF52599
:100E3E009000A0E02FF090009FE03EF09000ADE01B
:100E4E0024FFFF9000ACE034FFFE900056E0FCA3C0
:100E5E00E0FDD39FEC9E5003020D019000ACE0FE2E
:100E6E00A3E0FFED9FFFEC9E900056F0A3EFF0A3E2
:100E7E00E004F09000AEE014FF900058E0D39F40E5
:100E8E0036E4F0900050E0FEA3E0FF122105900042
:100E9E0050EEF0A3EFF0D394EFEE94FF400C9000E1
:100EAE0061E4F0A37413F07F0022900050E0FEA3E3
:100EBE00E0FF1221DB8019900052E0FCA3E0FDA3BD
:100ECE00E0FEA3E02401FFE43EFEE43DFDE43CFC35
:100EDE00900052120341020D019000497401F090EE
:100EEE000059E0F8A3E0F9A3E0FAA3E0FB90009F1D
:100EFE00E0FEA3E0FFE4FCFDEB2FFFEA3EFEED3942
:100F0E00FDEC38FC90005912034190009FE0FEA3C7
:0F0F1E00E0FF1223B6900063EEF0A3EFF07F0127
:010F2D0022A1
:060F2E008B258A268927AD
:100F3400AF20EFC4540F20E0028042AB25AA26A9BB
:100F440027121360EF6009AB25AA26A927121738C8
:100F540085252F852630852731121A7F1223B6ABBB
:100F64002FAA30A93190001AEE8FF012011C9000C4
:100F74001A1200E4C39402E5F09400500A90006150
:100F8400E4F0A304021096AB2FAA30A93190001C00
:100F940012037E00000000E4900049F0F52EF528CD
:100FA400F5299000B0E0C4F854F0C868FEA3E0C48A
:100FB400540F48FFC3E5299FE5289E40030210BE55
:100FC400E4FCFD9000E0E0F8A3E0F9A3E0FAA3E07C
:100FD4002529FFEA3528FEED39FDEC38FC7547017B
:100FE400754801754974754AF2121EEBEF700A9048
:100FF4000061F0A3740A021096E4F52AF52BD3904D
:1010040000ADE0952B9000ACE0952A50030210ADA2
:1010140074F2252BF5827474352AF583E060046438
:10102400E57078E4F52CF52DAB25AA26A927852DA6
:1010340082852C8312001CFFE52B252DFDE52A3526
:101044002CFC74F22DF58274743CF583EFF0052DBD
:10105400E52D7002052C6420452C70CCE4FCFD9039
:1010640000E0E0F8A3E0F9A3E0FAA3E02529FFEA11
:101074003528FEED39FDEC38FC754B01754C0175D6
:101084004D74754EF2121DAFEF700B900061F0A31A
:10109400740AF07F0022752E01800E7420252BF532
:1010A4002BE4352AF52A021002E52E6401600B05B3
:1010B40029E52970020528020FA6AB2FAA30A93111
:1010C40090001A1200E4FFAEF01223B690004AEE2C
:1010D400F0A3EFF0A312034D0000000090004AE0DB
:1010E400FFA3E0900050CFF0A3EFF090004AE0FEA1
:1010F400A3E0FF1221DB900052120341E49000565A
:10110400F0A3F0A3F090004904F090005912034DAD
:1011140000000000E490005DF0A3F09000DCE0FC2F
:10112400A3E0FDA3E0FEA3E0FF9070E8120341906A
:1011340000DCE0FCA3E0FDA3E0FEA3E0FF9070EE82
:0E1144001203419070ECE4F0A37402F07F01FE
:01115200227A
:0A053F008E258F268B278A28892934
:10054900AF20EFC4540F20E00A900061E4F0A30447
:10055900020979900049E0700A900061F0A37414CF
:10056900020979E4900049F0753301F53490009F50
:10057900F0A3F0D3E5269400E52594005003020882
:1005890007900056E0FEA3E0FFD39400EE940050DC
:1005990003020679E5262FFFE5253EFE9000ACE033
:1005A900FCA3E0FDC39FEC9E50068C2A8D2B800492
:1005B9008E2A8F2B900052E0FCA3E0FDA3E0FEA35E
:1005C900E0FF754701754801754974754AF2121EB5
:1005D900EBEF700A900061F0A3740A0209799000A8
:1005E90056E0FEA3E0FFC3E52B9FF52BE52A9EF518
:1005F9002AE4F52EF52FC3E52F952BE52E952A50E4
:1006090034AB27AA28A929852F82852E8312001C9D
:10061900FF900057E0252FFD900056E0352EFC7421
:10062900F22DF58274743CF583EFF0052FE52F70F8
:10063900C5052E80C1900052E0FCA3E0FDA3E0FEB9
:10064900A3E0FF754B01754C01754D74754EF2129F
:100659001DAFEF700A900061F0A3740A0209799046
:100669000057E0252BF0900056E0352AF0020707E5
:100679009000ACE0FCA3E0FDC39526EC952550362F
:10068900AE25AF2612008F8F35A3E0FFE535D39F46
:10069900900058E04005FEEF9E8005FFC3E5359FB9
:1006A900F535FF7E009000ACE0FCA3E0FD12007D73
:1006B9008E2A8F2B800975350185252A85262B9051
:1006C9000052E0FCA3E0FDA3E0FEA3E0FF85354B6B
:1006D90090009FE0F8A3E02529F9E5283885274C03
:1006E900F54D894E121DAFEF700A900061F0A374A9
:1006F9000A020979900056E52AF0A3E52BF0C3E533
:1007090026952BF526E525952AF5259000A0E025C7
:100719002BF090009FE0352AF09000ACE0FCA3E0BC
:10072900FD900056E0FEA3E0FF12008F8F35E535FE
:10073900D39400500302057C7E009000ACE0FCA33A
:10074900E0FD12007DC3900057E09FF0900056E055
:100759009EF0900058E02535F09000AEE014FF902F
:100769000058E0D39F406FE4F090009FE0FEA3E0C3
:10077900FFE4FCFD900059E0F8A3E0F9A3E0FAA337
:10078900E02FFFEA3EFEED39FDEC38FC90004CE02D
:10079900F8A3E0F9A3E0FAA3E0FBD3120266900004
:1007A90050E0FEA3E0FF400512210580031209AFC6
:1007B900900050EEF0A3EFF0900050E0FCA3E0FDB4
:1007C9004C700A900061F0A3740A020979AF05AE72
:1007D900041221DB801F900052E0F8A3E0F9A3E0A6
:1007E900FAA3E0FBE4FCFDFEEB2535FFEE3AFEED56
:1007F90039FDEC38FC90005212034102057C90004F
:1008090059E0F8A3E0F9A3E0FAA3E0FB90009FE028
:10081900FEA3E0FFE4FCFDEB2FFFEA3EFEED39FD10
:10082900EC38FC9000591203419070E8E0FCA3E019
:10083900FDA3E0FEA3E0FF122182E533640160031A
:100849000209A1F52CF52D9000B0E0C4F854F0C8C8
:1008590068FEA3E0C4540F48FFC3E52D9FE52C9E15
:1008690040030209A1E4FCFD9000E0E0F8A3E0F9EF
:10087900A3E0FAA3E0252DFFEA352CFEED39FDECC6
:1008890038FC754701754801754974754AF2121E9D
:10089900EBEF700A900061F0A3740A020979E4F59C
:1008A9002EF52FD39000ADE0952F9000ACE0952E5A
:1008B900500302099074F2252FF97474352E75309E
:1008C90001F531893290004AE0FEA3E0FF1223B618
:1008D900AB30AA31A93290001A1200E46F7003EE0E
:1008E90065F0600302098290004CE0FCA3E0FDA3DF
:1008F900E0FEA3E0FF900059E0F8A3E0F9A3E0FAD5
:10090900A3E0FBD31202664014900059E0FCA3E077
:10091900FDA3E0FEA3E0FF90004C12034190004CC0
:10092900E0FCA3E0FDA3E0FEA3E0FF121E54AB3000
:10093900AA31A93290001C1202EDE4FCFD9000E0FE
:10094900E0F8A3E0F9A3E0FAA3E0252DFFEA352CAE
:10095900FEED39FDEC38FC754B01754C01754D7494
:10096900754EF2121DAFEF700B900061F0A3740A7F
:10097900F07F0022753401800E7420252FF52FE4B5
:10098900352EF52E0208ACE5346401600B052DE522
:100999002D7002052C020850E490009FF0A3F090FE
:0509A900004904F0FF0D
:0109AE002226
:061738008B328A33893474
:10173E00AF20EFC4540F20E00A900061E4F0A30440
:10174E000218E1E4F535F5369000B0E0C4F854F037
:10175E00C868FEA3E0C4540F48FFC3E5369FE535C5
:10176E009E40030218BEE4FCFD9000E0E0F8A3E00A
:10177E00F9A3E0FAA3E02536FFEA3535FEED39FD93
:10178E00EC38FC754701754801754974754AF212BB
:10179E001EEBEF700A900061F0A3740A0218E1E4E8
:1017AE00F537F538D39000ADE095389000ACE09564
:1017BE003750030218AD74F22538F582747435373C
:1017CE00F583E0700A900061F0A374110218E1E451
:1017DE00F53AAB32AA33A934853A827583001200EA
:1017EE001CFFE53A7C002538FDEC3537FC74F22DF4
:1017FE00F58274743CF583E0B50709053AE53AD3F2
:10180E00940A40CEE53AD3940A500302189F74F21C
:10181E002538F58274743537F58374E5F074F22546
:10182E0038F974743537FA7B0190001A1200E4FF10
:10183E00AEF01223B690004AEEF0A3EFF0E4FCFDFA
:10184E009000E0E0F8A3E0F9A3E0FAA3E02536FF6C
:10185E00EA3535FEED39FDEC38FC754B01754C0162
:10186E00754D74754EF2121DAFEF7009900061F058
:10187E00A3740A805E90004AE0FEA3E0FF121CCE25
:10188E00EF7009900061F0A3740A804775390180EA
:10189E000E74202538F538E43537F5370217B2E5E2
:1018AE00396401600B0536E53670020535021756B0
:1018BE009000B0E0C4F854F0C868FEA3E0C4540F22
:1018CE0048FFC3E5369FE5359E400C900061E4F07D
:0918DE00A37411F07F00227F01C8
:0118E70022DE
:1018E800AF20EFC4540F20E00A900061E4F0A30495
:1018F8000219EB122230EF700A900061F0A3740A0B
:101908000219EB7B017A7479F28B298A2A892B9048
:101918000004120311C000C001C002C003AB29AA11
:101928002AA92B12029DEF2401FFE43EFEE43DFDAF
:10193800E43CFCD003D002D001D000120149121EB1
:10194800549000631203419000DEE0FEA3E08E2570
:10195800F526E4F527F5289000B5E0FEA3E0FFE4BE
:10196800FCFD9000DCE0F8A3E0F9A3E0FAA3E02F87
:10197800FBEA3EFAED39F9EC38F8AE25AF26E4D3A8
:10198800120266406DAE25AF26E4FCFD7547017571
:101998004801754974754AF2121EEBEF603DE4FF89
:1019A800FED39000ADE09F9000ACE09E403974F209
:1019B8002FF58274743EF583E0B4FF1674F32FF5A7
:1019C8008274743EF583E0B4FF080528E5287002A8
:1019D800052774022FFFE43EFE80C6900061E4F004
:1019E800A3740AF07F00220526E526700205250269
:1019F800195F9000AEE0FF7E009000ACE0FCA3E031
:101A0800FD12007DE4FCFD900067120341AE27AF94
:101A180028E4FCFD900067E0F8A3E0F9A3E0FAA34E
:101A2800E0FB120149900067120341900063E0FC5B
:101A3800A3E0FDA3E0FEA3E0FF121E54900067E0C0
:101A4800F8A3E0F9A3E0FAA3E0FBC3EF9BFFEE9A4B
:101A5800FEED99FDEC98FC90006712034190006739
:101A6800E0FCA3E0FDA3E0FEA3E0FF121E549000FB
:061A7800671203417F012B
:011A7E002245
:10231300AF20EFC4540F20E00B900061E4F0A3045E
:07232300F07F00227F012280
:101F76008F188E178D168C15AF20EFC4540F20E0E6
:101F860009900061E4F0A3048068900049E07009BC
:101F9600900061F0A374148059AF18AE17AD16AC5B
:101FA6001590005912034190004CE0FCA3E0FDA3FC
:101FB600E0FEA3E0FF900059E0F8A3E0F9A3E0FA01
:101FC600A3E0FBD3120266400A900061E4F0A3741A
:101FD60012801F900059E0FCA3E0FDA3E0FEA3E001
:101FE600FF121BDCEF700F900049F0900061F0A328
:091FF600740AF07F00227F012231
:0A23AC007401900063F0A3F0FF221B
:101FFF004348333735484654432020005445535403
:10200F002020202054585420000000000000000021
:10201F0000000000213000002020202000002020A0
:10202F0020202020202020202020202020202020A1
:10203F0020202020202020202020200009000070B8
:10204F002020202020202020202020202020202081
:10205F002020202020202020202020202020202071
:10206F002020202020202020202020202020202061
:08207F00202020202020200079
:1022D900E52A60198D828C83E493120049740129DF
:0E22E900F9E43AFA0DBD00010C152A80E3223B
:0D2388007580FF7590FF75A0FF75B0FF22F6
:10234C00759850758780758920758DF3D28EC299DA
:01235C00225E
:10208700122388122262EF700280FE7F321222F73B
:102097007F409074F2E4F0A3DFFC7F401223608F4F
:1020A700221211531218E878017C007D017BFF7A18
:1020B7001F79FF12046E7B017A0079011213609079
:1020C700004EE0FCA3E0AA048C23F524FFAE027BBC
:1020D700017A0079E8120C747B017A0079017C207F
:1020E7007D0B752A201222D97A007901120F2EAFA3
:0E20F70024AE237B017A0079E812053F80FEBB
:0300000002239543
:0C239500787FE4F6D8FD75814F022087A8
:10000300BB010689828A83E0225002E722BBFE02FB
:09001300E32289828A83E493222E
:10001C00BB010CE58229F582E5833AF583E0225099
:10002C0006E92582F8E622BBFE06E92582F8E222E3
:0D003C00E58229F582E5833AF583E49322FD
:10004900BB010689828A83F0225002F722BBFE0196
:02005900F32290
:10005B00F8BB010DE58229F582E5833AF583E8F0DB
:10006B00225006E92582C8F622BBFE05E92582C887
:02007B00F2226F
:10007D00EF8DF0A4A8F0CF8CF0A428CE8DF0A42E97
:02008D00FE2251
:10008F00BC000BBE0029EF8DF084FFADF022E4CC55
:10009F00F875F008EF2FFFEE33FEEC33FCEE9DEC1E
:1000AF00984005FCEE9DFE0FD5F0E9E4CEFD22ED64
:1000BF00F8F5F0EE8420D21CFEADF075F008EF2FAE
:1000CF00FFED33FD4007985006D5F0F222C398FD9F
:0500DF000FD5F0EA223C
:1000E400BB0110E58229F582E5833AF583E0F5F05A
:1000F400A3E0225009E92582F886F008E622BBFE37
:100104000AE92582F8E2F5F008E222E5832AF5837C
:08011400E993F5F0A3E9932241
:10011C00F8BB0111E58229F582E5833AF583E8F015
:10012C00E5F0A3F0225009E92582C8F608A6F022D2
:0D013C00BBFE09E92582C8F2E5F008F222B9
:10014900E88FF0A4CC8BF0A42CFCE98EF0A42CFC55
:100159008AF0EDA42CFCEA8EF0A4CDA8F08BF0A4D3
:100169002DCC3825F0FDE98FF0A42CCD35F0FCEB32
:100179008EF0A4FEA9F0EB8FF0A4CFC5F02ECD39F7
:0F018900FEE43CFCEAA42DCE35F0FDE43CFC2264
:1001980075F008758200EF2FFFEE33FECD33CDCC1E
:1001A80033CCC58233C5829BED9AEC99E5829840A1
:1001B8000CF582EE9BFEED9AFDEC99FC0FD5F0D67E
:1001C800E4CEFBE4CDFAE4CCF9A88222B800C1B9A8
:1001D8000059BA002DEC8BF084CFCECDFCE5F0CBE6
:1001E800F97818EF2FFFEE33FEED33FDEC33FCEB1F
:1001F80033FB10D703994004EB99FB0FD8E5E4F9DA
:10020800FA227818EF2FFFEE33FEED33FDEC33FCC6
:10021800C933C910D7059BE99A4007EC9BFCE99ABA
:10022800F90FD8E0E4C9FAE4CCFB2275F010EF2FFF
:10023800FFEE33FEED33FDCC33CCC833C810D707FF
:100248009BEC9AE899400AED9BFDEC9AFCE899F83A
:0E0258000FD5F0DAE4CDFBE4CCFAE4C8F922CD
:10026600EB9FF5F0EA9E42F0E99D42F0E89C45F0EE
:010276002265
:10027700E8600FECC313FCED13FDEE13FEEF13FF65
:03028700D8F12289
:10028A00E8600FEFC333FFEE33FEED33FDEC33FCD2
:03029A00D8F12276
:10029D00BB010789828A830204975005E9F802049D
:1002AD008BBBFE05E9F80204A389828A830204AFA1
:1002BD00BB010DE58229F582E5833AF583020497AA
:1002CD005007E92582F802048BBBFE07E92582F869
:1002DD000204A3E58229F582E5833AF5830204AF92
:1002ED00BB010DE58229F582E5833AF583020341D1
:1002FD005007E92582F80204F5BBFE07E92582F8CF
:04030D0002050122C2
:10031100BB010DE58229F582E5833AF5830204CC20
:100321005007E92582F80204BFBBFE07E92582F8E0
:100331000204D8E58229F582E5833AF5830204E5D2
:0C034100ECF0A3EDF0A3EEF0A3EFF0222F
:10034D00A8828583F0D083D08212036412036412D5
:10035D000364120364E473E493A3C583C5F0C583FA
:10036D00C8C582C8F0A3C583C5F0C583C8C582C8FA
:01037D00225D
:10037E00BB010DE58229F582E5833AF58302034D33
:10038E005007E92582F802050DBBFE07E92582F824
:04039E00020526220C
:1003A200E709F60870FA8046E709F20870FA803E1B
:1003B20088828C83E709F0A370FA807EE309F6084D
:1003C20070FA8076E309F20870FA806E88828C8374
:1003D200E309F0A370FA806289828A83E0A3F608B7
:1003E20070FA805689828A83E0A3F20870FA804A02
:1003F20080D280FA80C680D4806580F280318010FD
:1004020080A680EA809A80A880DA80E280CA803161
:1004120089828A83ECFAE493A3C8C582C8CCC583D7
:10042200CCF0A3C8C582C8CCC583CC70E9800D8945
:10043200828A83E493A3F60870F9ECFAA9F0EDFB43
:100442002289828A83ECFAE0A3C8C582C8CCC5831C
:10045200CCF0A3C8C582C8CCC583CC70EA80DD8944
:10046200828A83E493A3F20870F980CE88F0ED24A7
:1004720002B4040050C4F582EB2402B4040050BA62
:0904820023234582239003F27349
:0C048B00E6FC08E6FD08E6FE08E6FF229D
:0C049700E0FCA3E0FDA3E0FEA3E0FF22D8
:0C04A300E2FC08E2FD08E2FE08E2FF2295
:1004AF00E493FC740193FD740293FE740393FF2293
:0D04BF00E6FB08E6F908E6FA08E6CBF822AD
:0C04CC00E0F8A3E0F9A3E0FAA3E0FB22B3
:0D04D800E2FB08E2F908E2FA08E2CBF822A4
:1004E500E493F8740193F9740293FA740393FB226D
:0C04F500ECF608EDF608EEF608EFF62233
:0C050100ECF208EDF208EEF208EFF22236
:10050D00D083D082E493F608740193F608740293B5
:09051D00F608740393F6740473EC
:10052600D083D082E493F208740193F208740293A4
:09053600F208740393F2740473DB
:00000001FF
