:100D6D0048554220302064657620696E0A0048554A
:100D7D0042203020646576206F75740A0048554214
:100D8D0020312064657620696E0A00485542203175
:100D9D0020646576206F75740A005345545F504F7B
:100DAD005254202025303258202025303258200032
:100DBD00526573657420726F6F742068756220259B
:100DCD0031642320706F72740A0044697361626C20
:100DDD006520726F6F742068756220253164232041
:100DED00706F72742062656361757365206F662024
:100DFD00646973636F6E6E6563740A00476574444E
:100E0D00657644657363723A200078253032582038
:100E1D00000A0047657443666744657363723A2040
:100E2D00005553422D4469736B2052656164790AF4
:100E3D00005553422D5072696E74204F4B0A005568
:100E4D0053422D5072696E742052656164790A00A7
:100E5D004765744849445265706F72743A20005565
:100E6D0053422D4B6579626F6172642052656164E6
:100E7D00790A005553422D4D6F757365205265618A
:100E8D0064790A0047657448756244657363723A04
:100E9D0020004578742D48554220506F72745F259F
:100EAD0031642320706F776572206F6E20657272CA
:100EBD006F720A004578742D48554220506F727438
:100ECD005F253164232020636C65617220636F6E32
:100EDD006E656374696F6E206572726F720A00457C
:100EED0078742D48554220506F72745F25316423FC
:100EFD0009636C65617220636F6E6E656374696FF3
:100F0D006E206572726F720A00496E6974526F6F4E
:100F1D007444657620457272203D20253032580A82
:100F2D0000456E756D416C6C526F6F744465760A39
:100F3D0000496E6974206465762040457874487563
:100F4D00622D706F72745F253164200040526F6F97
:100F5D00745F2531640A00546869732070726F677D
:100F6D0072616D20646F6E277420737570706F726F
:100F7D0074204C6576656C2032204855420A004934
:100F8D006E69744465764F6E4875622045727220A5
:100F9D003D20253032580A00456E756D48756250FA
:100FAD006F72740A00466F756E642066756C6C20E6
:100FBD00737065656420646576696365206F6E2066
:100FCD00706F7274202531640A00466F756E64204F
:100FDD006C6F7720737065656420646576696365F1
:100FED00206F6E20706F7274202531640A00526577
:100FFD0073657420706F727420616E6420746865FF
:10100D006E207761697420696E0A004465766963A4
:10101D0065206F6E20706F7274206572726F720A28
:10102D0000446576696365206F6E20706F72742061
:10103D002531642072656D6F7665640A00456E75A5
:10104D006D416C6C487562506F72740A00456E7517
:10105D006D416C6C487562506F72742065727220B0
:10106D003D20253032580A0053746172742040437C
:10107D0068697049443D253032580A0057616974DA
:10108D002044657669636520496E0A00456E756D6D
:10109D00416C6C526F6F7444657620657272203DA1
:1010AD0020253032580A002563005175657279206C
:1010BD004D6F7573652040253034580A004D6F759E
:1010CD00736520646174613A20004D6F75736520FE
:1010DD006572726F7220253032780A004D6F75730C
:1010ED0065206E6F20696E746572727570742065FF
:1010FD006E64706F696E740A005175657279204B5C
:10110D006579626F6172642040253034580A00257C
:10111D003032582020006B6579626F6172642064F3
:10112D006174613A20006B6579626F61726420654C
:10113D0072726F7220253032780A006B6579626F9A
:10114D00617264206E6F20696E7465727275707451
:10115D0020656E64706F696E740A00485542206593
:10116D0072726F7220253032780A00485542202560
:10117D00303264206E6F20696E7465727275707492
:10118D0020656E64706F696E740A005175657279B1
:10119D00205072696E7465722040253034580A00F3
:1011AD005072696E746572206572726F722025308F
:1011BD0032780A008006000100001200800600024D
:1011CD0000000400000502000000000000090000FE
:1011DD0000000000010B00000000000002010000F3
:1011ED0000000000A0060029000009008106002271
:1011FD0000004100210A000000000000210900024A
:04120D0000000100DC
:04291A004101360041
:0428B9007FC87E0056
:0E28BD00EF4E600905A1EF1F70F61E80F3229A
:1028A000CDEFCDCCEECCED4C600E7FE87E03122850
:0928B000BDED1D70F11C80EE224B
:10274D00EF75F006A42437F582E43401F583E4F047
:10275D00EF75F006A42438F582E43401F583E4F036
:0C276D00EFB40104E4F5E522E4F5E422F9
:10223E00E49000E4F0E5DB30E327900137E0600541
:10224E00E5E420E03CE4FF12274D9001377401F0E5
:10225E007BFF7A0D796D12127C9000E47415F0807C
:10226E0020900137E0C394014017E4FF12274D7B05
:10227E00FF7A0D797B12127C9000E4E070037416E5
:10228E00F0E5DB30E72790013DE06005E5E520E075
:10229E003C7F0112274D90013D7401F07BFF7A0DBA
:1022AE00798A12127C9000E47415F0802090013D22
:1022BE00E0C3940140177F0112274D7BFF7A0D7901
:1022CE009812127C9000E4E070037416F09000E413
:0222DE00E0FF1F
:0122E00022DB
:0C28FA00EF547FFFE5E354804FF5E3222C
:0E28EC00EF600753E2BF53D27F2243E2402247
:10260E00CEEFCE90010D7408F0E4FF1228FA7F0190
:10261E001228ECEEB40114E5E554FB4402F5E57F17
:10262E000F7E001228A053E5FD8012E5E454FB4412
:10263E0002F5E47F0F7E001228A053E4FD7FFA7EA0
:07264E00001228BDC2D822D2
:1023F100EF75F006A42437F582E43401F583E0C3D8
:1024010094015011EF75F006A42437F582E43401EC
:10241100F5837401F0EF64017025E5DB30E745E5F4
:10242100E520E015E5DB30E6047F0080027F0190C6
:10243100013FEFF0700343E50443E5017F0022E52E
:10244100DB30E320E5E420E015E5DB30E2047F004A
:1024510080027F01900139EFF0700343E40443E40B
:07246100017F00227F16221B
:10236D009000C4E0FCA3E0FDECFF9000C0F0CEEDCA
:06237D00CE9000C2EEF05C
:10238300CEEFCEED6038EE75F014A4240AF582E4A6
:102393003401F58375F005ED121F2AE0FF1228FAC8
:1023A300EE75F014A4240BF582E43401F58375F083
:1023B30005ED121F2AE0FF702843D2808023EE75BB
:1023C300F006A42438F582E43401F583E0FF1228F3
:1023D300FAEE75F006A42439F582E43401F583E0BE
:0E23E300FF1228ECEE6003D38001C3920A22A1
:102886007FC87E0020D909EF1F70011EEF4E70F43D
:0928960030D9047F0080027FFEAE
:01289F002216
:031FA800E4FBFA5D
:0B1FAB009000E1EFF0A3EAF0A3EBF0E0
:101FB600CFEDCF8FD68FD4E4F5DD9000E1E0F5D5F7
:101FC600C2D97FC87E0020D909EF1F70011EEF4ECF
:101FD60070F4E4F5D520D9037FFE2230D832C2D87A
:101FE60012223EEFB41502D209A20AE43390013759
:101FF60075F006121F2AE475F006A42583F583E022
:10200600FE70037F1622EEB401037F15221228B953
:1020160030D96730DE037F0022E5D9540FFFB40EB6
:10202600028043EFB40A299000E2E0FCA3E0FD4CF5
:102036007003EF803EC3ED94FFEC94FF500E9000CA
:10204600E3E024FFF09000E2E034FFF015DD802DA0
:102056009000E1E0C4540F24F7600D24FC600424D2
:102066000C7014EF6017800BEFB40304640B600D63
:10207600EF600A4420FF227FFE2275D8FF7F0F7E85
:10208600001228BD05DDAFDDEFC394035003021F28
:03209600C07F20E8
:012099002224
:101B5000CB122848900042EBF07B007A007900E439
:021B6000FFFE86
:0B1B62009000D6EBF0A3EAF0A3E9F03E
:101B6D00CAEECAC9EFC99000DB7401F0A3EAF0A375
:101B7D00E9F09000D6E0F9A3E0FAA3E09000DEC909
:101B8D00F0A3EAF0A3E9F01228B99000DEE0FBA380
:101B9D00E0FAA3E0F9EA494B6004E4121F0275D79D
:101BAD00087B107A27E4FD7FD0121FAB9000D9EF90
:101BBD00F06003E0FF2275D6D075D4D075D70190B3
:101BCD000047E060047FFF8005900046E0FF900035
:101BDD00DAEFF07003021D75A3E0FBA3E0FAA3E0BA
:101BED00F9EA494B7003021D75900040E020E703B0
:101BFD00021C959000DAE07003021C8F1228B97B4D
:101C0D00107A27ADD47F90121FAB9000D9EFF0E082
:101C1D00FF6001229000DAE0FFE5D1C39F5007AECF
:101C2D00D1CFEECF8000CDEFCD9000DAE0C39FF0A5
:101C3D009000DEE0FBA3E0FAA3E0F9EA494B600473
:101C4D00ED121EE0E4FFEF6D602874002FF582E4C5
:101C5D003400F583E0FE9000DBE0FBA3E0FAA3E0A7
:101C6D00F9EE121F029000DCE475F001121F140F43
:101C7D0080D4E5D1600C90010DE01455D1700302B4
:101C8D001C00E4F5D7021D759000DAE07003021D0B
:101C9D00751228B990010DE0FF9000DAE0FEC39FA8
:101CAD0040028003CFEECF8FD79000DBE0FBA3E0A7
:101CBD00FAA3E0F9900001121EB36409704390017C
:101CCD0036E0640160047F0180027F00900136EFF1
:101CDD00F0121F029000DBE0FBA3E0FAA3E0F91283
:101CED001E9AFF9000E8E4F0A3EFF0900136E0FFBC
:101CFD009000EAE4F0A3EFF07BFF7A0D79A71212C2
:101D0D007CE4FFEF65D760289000DBE0FBA3E0FAF1
:101D1D00A3E0F9121E9AFE74402FF582E43400F50B
:101D2D0083EEF09000DCE475F001121F140F80D3E8
:101D3D007B107A27ADD67F10121FAB9000D9EFF034
:101D4D00E0FF6001229000DAE0C395D7F09000DE4D
:101D5D00E0FBA3E0FAA3E0F9EA494B7003021C95FE
:101D6D00E5D7121EE0021C951228B9E5D760047F55
:101D7D009080027F107B107A277DC0121FAB9000E0
:101D8D00D9EFF06003E0FF22E5D77002FF22E5D125
:061D9D007002FF227F1717
:011DA300221D
:10284800E4FD8F828E83E493FC74402DF582E4349A
:0F28580000F583ECF00FBF00010E0DEDB408E3A7
:01286700224E
:1027130090010D7408F07E117FC11228487E007F5E
:10272300407B017A0079D1121B62EF600122900095
:1027330047E090010DF09011C7E493FF9000D1E0C2
:09274300C39F50037F17227F00A1
:01274C00226A
:102548007E117FC91228487E007F407B007A00797F
:1025580008121B62EF6001229011CFE493FEE50898
:10256800C39E50037F1722900042E0F5087E117F3A
:10257800C9122848900046E508F07E007F407B009D
:102588007A007908121B62EF6001229011CFE49360
:10259800FFE508C39F400A900042E0FFE5089F500E
:0625A800037F17227F00F3
:0125AE00220A
:052779009000D1EFF01B
:10277E007E117FD11228489000D1E0900042121BAA
:10278E0058EF6001229000D1E0FF1228FA7F0A7EF6
:06279E00001228A07F00DC
:0127A4002212
:0628DC00F09000CAE0FFCD
:0A28E200CBEF7E117FD9121B5022AC
:0A290600CBEF7E117FE1121B50227F
:1028CB00CBEFCB7E117FE9122848900044121B57A7
:0128DB0022DA
:1024D90078CE7C007D017BFF7A1279017E007F082E
:1024E900121E74E4FF74CE2FF582E43400F583E004
:1024F900FE74402FF582E43400F583EEF00FEFB45B
:1025090008E37E007F407B017A0079CD121B62EFE0
:102519006001227E117FF91228487E007F407B01ED
:102529007A0079CD121B62EF6001229011C7E49302
:0E253900FF9000CDE0C39F50037F17227F006C
:012547002271
:1027A5007E117FF11228487E007F407B007A0079F8
:1027B50008121B62EF6001229011F7E493FFE50810
:0927C500C39F50037F17227F001F
:0127CE0022E8
:0C2655007F017E001228A09000C8E0FF6A
:1026610090004074A3F0A3E4F0A3F0A3F0A3EFF073
:10267100A3E4F0A37404F0A3E4F07E007F40FB7AAE
:10268100007908121B62EF600122E508C39404502F
:06269100037F17227F0009
:012697002220
:0727CF009000C8E0FF7D044B
:1027D6009000407423F0A37403F0A3EDF0A3E4F09B
:1027E600A3EFF0A3E4F0A3F0A3F0FBFAF9FFFE12C7
:0327F6001B622241
:0527F9009000C8E0FFA4
:1027FE009000407423F0A37401F0A3EDF0A3E4F075
:10280E00A3EFF0A3E4F0A3F0A3F0FBFAF9FFFE129E
:03281E001B622218
:0425AF007E007F40EB
:1025B300E4F9FC8F828E83A3A3E0FBECC39B50471B
:1025C300EF2CF582E43EF583A3E064057025EF2C40
:1025D300F582E43EF583A3A3A3E05403FBBB0313FB
:1025E300EF2CF582E43EF583A3A3E030E705540F17
:1025F300F98014EF2CF582E43EF583E0FDD39410CB
:0A2603005005ED2CFC80ACCFE9CFB0
:01260D0022AA
:050752009000C7EFF06C
:100757007BFF7A0D79BD9000E8E4F0A3EFF0121269
:100767007C9000C7E0FF12260EE49000C8F0A3F0CB
:100777007F017E001228A09000C7E0FF1223F1EF4F
:10078700700E9000C8F0A3E004F0E0D39464500C1E
:100797009000C8E004F0E0C3946440D49000C8E03F
:1007A70060219000C7E0FF12274D7BFF7A0D79D7B4
:1007B7009000C7E0FF9000E8E4F0A3EFF012127C8E
:1007C7007F16229000C7E0FFE4FD1223837BFF7AA8
:1007D7000E790912127C1227139000C9EFF06003FB
:1007E700020D389000C8F09011C7E493FF9000C83D
:1007F700E0FEC39F50257BFF7A0E791774402EF5D4
:1008070082E43400F583E0FF9000E8E4F0A3EFF022
:1008170012127C9000C8E004F080CC7BFF7A0E793E
:100827001E12127C900044E09000CBF09011D3E4AC
:1008370093FF9000C7E02FFF1227799000C9EFF0D0
:100847006003020D389011D393FF9000C7E0FE2F8D
:10085700FFEE75F006A42438F582E43401F583EF42
:10086700F07BFF7A0E792012127C1225489000C97E
:10087700EFF06003020D38900045E09000CAF0E405
:100887009000C8F0900042E0FF9000C8E0FEC39FD0
:1008970050257BFF7A0E791774402EF582E43400D9
:1008A700F583E0FF9000E8E4F0A3EFF012127C90EC
:1008B70000C8E004F080CD7BFF7A0E791E12127C0F
:1008C70090004EE09000CCF09000CBE07042A3E0A7
:1008D7006408703C1228DD9000C9EFF06003020D38
:1008E700389000C7E0FF75F006A42437F582E4349A
:1008F70001F5837403F0EF75F006A4243AF582E45A
:100907003401F5837408F07BFF7A0E792E020A8C86
:100917009000CBE0707AA3E06407707490004FE01A
:100927006401706C7BFF7A0E793E12127C90005442
:10093700E0FF9000C7E075F006A4243BF582E4349D
:1009470001F583EF1228DC9000C9EFF06003020D78
:1009570038A3E0FF1229069000C9EFF06003020DEB
:10096700389000C7E0FF75F006A42437F582E43419
:1009770001F5837403F0EF75F006A4243AF582E4D9
:100987003401F5837407F07BFF7A0E794C020A8CE9
:100997009000CBE06003020A9BA3E06403600302BC
:1009A7000A9B90004FE0D394014003020A9B122553
:1009B700AF9000C9EFF0540FFF9000C7E075F00645
:1009C700A4243BF582E43401F583EFF0900050E076
:1009D7009000CC1228DC9000C9EFF06003020D38BC
:1009E7007BFF7A0E795D12127C1224D99000C9EF31
:1009F700F0703C9000C8F09000C8E0FFC3944050EE
:100A0700257BFF7A0E791774402FF582E43400F5C1
:100A170083E0FF9000E8E4F0A3EFF012127C90006F
:100A2700C8E004F080D17BFF7A0E791E12127C9009
:100A370000C7E0FF75F006A42437F582E43401F51A
:100A4700837403F09000CCE0B40119EF75F006A4AD
:100A5700243AF582E43401F5837423F07BFF7A0EA0
:100A6700796C80219000CCE0B402209000C7E0753B
:100A7700F006A4243AF582E43401F5837433F07B5D
:100A8700FF7A0E798012127C020D319000C974FB37
:100A9700F0020D389000CBE064096003020CF412F9
:100AA70025AF9000C9EFF0540FFF9000C7E075F035
:100AB70006A4243CF582E43401F583EFF07BFF7A4A
:100AC7000E799112127C1227A59000C9EFF06003EE
:100AD700020D389000C8F0900040E0FF9000C8E099
:100AE700FEC39F50257BFF7A0E791774402EF5823F
:100AF700E43400F583E0FF9000E8E4F0A3EFF012A0
:100B0700127C9000C8E004F080CD7BFF7A0E791E3E
:100B170012127C900042E0FF9000C7E0FE75F006DD
:100B2700A4243BF582E43401F583EFF0EE75F0067B
:100B3700A4243BF582E43401F583E0D39404401107
:100B4700EE75F006A4243BF582E43401F5837404C2
:100B5700F01228DD9000C9EFF06003020D38900015
:100B6700C7E0FF75F006A42437F582E43401F58366
:100B77007403F0EF75F006A4243AF582E43401F526
:100B8700837409F09000C87401F09000C7E0FF7506
:100B9700F006A4243BF582E43401F583E0FE9000DF
:100BA700C8E0D39E504DEF75F014A42409F582E4F4
:100BB7003401F583C083C0829000C8E0FFD082D0A3
:100BC7008375F005121F2AE4F07D081227D69000DE
:100BD700C9EFF060167BFF7A0E799F9000C8E0FF9F
:100BE7009000E8E4F0A3EFF012127C9000C8E00454
:100BF700F080979000C87401F09000C7E075F00688
:100C0700A4243BF582E43401F583E0FE9000C8E0BC
:100C1700FFD39E502A7D101227FE9000C9EFF06087
:100C2700167BFF7A0E79C19000C8E0FF9000E8E4D8
:100C3700F0A3EFF012127C9000C8E004F080BA90A5
:100C470000C87401F09000C7E075F006A4243BF5D6
:100C570082E43401F583E0FE9000C8E0FFD39E40B4
:100C670003020CF21226619000C9EFF060167BFFB9
:100C77007A0E79EC9000C8E0FF9000E8E4F0A3EF6B
:100C8700F012127C900040E060589000C7E075F0C9
:100C970014A42409F582E43401F583C083C082904B
:100CA70000C8E0FFD082D08375F005121F2AE064E8
:100CB70003602F7D041227D69000C9EFF06003E090
:100CC700FF227F017E001228A09000C8E0FF1226B5
:100CD700619000C9EFF06003E0FF22900040E02040
:100CE700E4E09000C8E004F0020C4C803D1228DDDF
:100CF7009000C9EFF0703A9000C7E0FF75F006A4C6
:100D07002437F582E43401F5837403F09000CBE0D7
:100D1700FE600280059000CCE0FEEF75F006A4248B
:100D270037F582E43401F583EEF07F011228EC1FDA
:100D3700227BFF7A0F79169000C9E0FF9000E8E464
:100D4700F0A3EFF012127C9000C7E075F006A42420
:100D570037F582E43401F5837402F07F011228EC41
:050D67009000C9E0FF4F
:010D6C002264
:1026D8007BFF7A0F792E12127CE49000C6F09000EE
:1026E800C6E0FF64026021EF75F006A42437F58286
:1026F800E43401F583E0B40107120752EF600122C8
:0A2708009000C6E004F080D67F00C8
:0127120022A4
:081576009000CAEFF0A3EDF0B4
:10157E007BFF7A0F793EFF9000E8E4F0A3EFF012C4
:10158E00127C7BFF7A0F79599000CAE0FF9000E839
:10159E00E4F0A3EFF012127C9000CBE0FD70037F1D
:1015AE00FE229000CAE0FF1223837BFF7A0E790998
:1015BE0012127C1227139000CDEFF06003E0FF2291
:1015CE00900044E09000CFF09000CAE004C454F0C4
:1015DE00FFA3E02FFF9000CEF01227799000CDEF01
:1015EE00F06003E0FF229000CEE0FF9000CAE075AD
:1015FE00F014A4240AF582E43401F583C083C0827A
:10160E009000CBE0D082D08375F005121F2AEFF048
:10161E007BFF7A0E792012127C1225489000CDEFB6
:10162E00F06003E0FF22900045E09000CEF0E490E1
:10163E0000CCF0900042E0FF9000CCE0FEC39F5043
:10164E00257BFF7A0E791774402EF582E43400F56F
:10165E0083E0FF9000E8E4F0A3EFF012127C90001C
:10166E00CCE004F080CD7BFF7A0E791E12127C90B6
:10167E00004EE09000D0F09000CFE07061A3E064E7
:10168E0008705B9000CEE0FF1228E29000CDEFF0E4
:10169E0060030218929000CAE0FF75F014A42409AA
:1016AE00F582E43401F583C083C0829000CBE0FE66
:1016BE00D082D08375F005121F2A7403F0EF75F0F7
:1016CE0014A4240CF582E43401F58375F005EE12B2
:1016DE001F2A7408F07BFF7A0E792E0217D4900021
:1016EE00CFE060030217DCA3E0640360030217DCA3
:1016FE0090004FE0D3940140030217DC1225AF9007
:10170E0000CDEFF09000CAE075F014A4240DF58220
:10171E00E43401F583C083C0829000CBE0D082D048
:10172E008375F005121F2AEFF0900050E09000D064
:10173E00F09000CEE0FF1228E29000CDEFF06003B3
:10174E000218929000CAE0FF75F014A42409F582E5
:10175E00E43401F583C083C0829000CBE0FED082DA
:10176E00D08375F005121F2A7403F09000D0E0B4F8
:10177E000120EF75F014A4240CF582E43401F583F6
:10178E0075F005EE121F2A7423F07BFF7A0E796C2A
:10179E0080349000D0E0640270329000CAE075F0A0
:1017AE0014A4240CF582E43401F583C083C0829026
:1017BE0000CBE0D082D08375F005121F2A7433F06F
:1017CE007BFF7A0E798012127C02188B804B900070
:1017DE00CFE06409704B9000CAE075F014A4240C9D
:1017EE00F582E43401F583C083C0829000CBE0D053
:1017FE0082D08375F005121F2A7409F07BFF7A0FD1
:10180E00796412127C9000CCE0FF7D011227FE90CD
:10181E0000CDEFF06003E0FF229000CD74FBF0806E
:10182E00639000CEE0FF1228E29000CDEFF07054EE
:10183E009000CAE0FF75F014A42409F582E4340187
:10184E00F583C083C0829000CBE0FED082D083753A
:10185E00F005121F2A7403F09000CFE0FD600280A5
:10186E00059000D0E0FDEF75F014A4240CF582E491
:10187E003401F58375F005EE121F2AEDF07F01128B
:10188E0028EC1F227BFF7A0F798C9000CDE0FF9021
:10189E0000E8E4F0A3EFF012127C9000CAE075F0BD
:1018AE0014A42409F582E43401F583C083C0829028
:1018BE0000CBE0D082D08375F005121F2A7402F09F
:0A18CE007F011228EC9000CDE0FF2E
:0118D80022ED
:0518D9009000C7EFF0D4
:1018DE007BFF7A0F79A512127C9000C87401F090EC
:1018EE0000C7E0FF75F006A4243BF582E43401F551
:1018FE0083E0FE9000C8E0D39E4003021B4DE4FD42
:10190E0012238312265C9000C9EFF06003E0FF22E1
:10191E00900040E030E007900042E020E00B9000A5
:10192E0042E064106003021A939000C7E0FE75F067
:10193E0014A42409F582E43401F583C083C0829097
:10194E0000C8E0FFD082D08375F005121F2A740103
:10195E00F0EE75F014A4240AF582E43401F58375D3
:10196E00F005EF121F2AE4F01226619000C9EFF085
:10197E006003E0FF22900041E030E1047F0080022E
:10198E007F019000C7E0FE75F014A4240BF582E4ED
:10199E003401F583C083C0829000C8E0FDD082D0B0
:1019AE008375F005121F2AEFF0EE75F014A4240BC8
:1019BE00F582E43401F58375F005ED121F2AE07B04
:1019CE00FF60077A0F79B2ED80087A0F79D7900011
:1019DE00C8E0FF9000E8E4F0A3EFF012127C7FC89D
:1019EE007E001228A01227CF9000C9EFF06003E00E
:1019FE00FF227BFF7A0F79FB12127C122655900084
:101A0E00C9EFF06003E0FF22900040E020E4EC7F9D
:101A1E00647E001228A07D141227F99000C9EFF001
:101A2E007D101227F99000C9EFF06003E0FF22123B
:101A3E00265C9000C9EFF06003E0FF22900040E0CA
:101A4E0020E0259000C7E075F014A42409F582E487
:101A5E003401F583C083C0829000C8E0D082D08369
:101A6E0075F005121F2AE4F09000C7E0FFA3E0FD19
:101A7E001215769000C9EFF06003E0FF227F01128D
:101A8E0028EC021B44900042E030E1369000C8E0A2
:101A9E00FF7D111227FE7BFF7A10791812127C122D
:101AAE0027CF9000C9EFF06003E0FF221226559079
:101ABE0000C9EFF06003E0FF22900040E020E4EC6C
:101ACE008074900040E020E06D9000C7E075F01447
:101ADE00A42409F582E43401F583C083C08290000A
:101AEE00C8E0FFD082D08375F005121F2AE0C394A0
:101AFE000140117BFF7A10792E9000E8E4F0A3EFFD
:101B0E00F012127C9000C7E075F014A42409F5823F
:101B1E00E43401F583C083C0829000C8E0FFD08218
:101B2E00D08375F005121F2AE4F0900042E030E0F9
:101B3E00057D101227FE9000C8E004F00218ED7F1C
:011B4E000096
:011B4F002273
:102468007BFF7A10794A12127CE49000C6F0900043
:10247800C6E0FF64026057EF75F006A42437F582C2
:10248800E43401F583E0C39403403B9000C6E07553
:10249800F006A4243AF582E43401F583E064097077
:1024A80025FD1223839000C6E0FF1218D9EF6011B2
:1024B8007BFF7A10795A9000E8E4F0A3EFF012124B
:1024C8007C7F011228EC9000C6E004F080A07F0019
:0124D80022E1
:05209A009000C6EFF00C
:10209F00E4A3F09000C7E0FF64027003022182EF17
:1020AF0075F006A4243AF582E43401F583E0FD903F
:1020BF0000C6E0FFED6F701BA3E0FF75F006A424D0
:1020CF0037F582E43401F583E0C394034005EF7FD5
:1020DF0000FE22ED640960030221799000C7E075CC
:1020EF00F006A42437F582E43401F583E0C39403AA
:1020FF0040789000C87401F09000C7E0FF75F006BB
:10210F00A4243BF582E43401F583E0FE9000C8E09F
:10211F00FDD39E5055EF75F014A4240CF582E434D2
:10212F0001F58375F005ED121F2AE0FF9000C6E060
:10213F00FEEF6E702DA3E0FF75F014A42409F58255
:10214F00E43401F583C083C0829000C8E0D082D010
:10215F008375F005121F2AE0C394034005EFFEEDCF
:10216F00FF229000C8E004F0808E9000C7E004F0DA
:07217F000220A27EFF7FFF9A
:012186002236
:10286800C29FD29EC29DD29C438780E589540F4463
:0E28780020F58943C9A0758DF3D28ED2992226
:10269800C2EA75E280E4F5E39024477448F0902498
:1026A8004C7400F0A37400F090244E7400F0A374EE
:1026B80040F0E4F5D4F5D675E28975D24075D8FFB7
:0F26C800FECFEECF12274D0EEEB402F575E103F3
:0126D70022E0
:0B2187009000C6EBF0A3EAF0A3E9F023
:1021920078C97C007D017BFF7A1279097E007F0875
:1021A200121E749000C6E0FBA3E0FAA3E0F99000CF
:1021B20001121EB3FF121E9A4FFF900003121EB3AC
:1021C2004FFF900004121EB34FFF900005121EB382
:1021D2004FFF900006121EB34FFF900007121EB36E
:1021E20070047E0180027E00EE4FFF9000C6E0FB8D
:1021F200A3E0FAA3E0F9900002121EB3B453047EE6
:102202000180027E00EE5F6030E4FF74C92FF58228
:10221200E43400F583E0FE74402FF582E43400F5E7
:1022220083EEF00FEFB408E37E007F407B017A007B
:0B22320079D1121B62EF6001227F00D7
:01223D00227E
:100003001228687BFF7A107975AFA19000E8E4F0BD
:10001300A3EFF012127C122698C2097BFF7A1079A3
:100023008912127CE49000C1F030D80FC2D812229A
:100033003E9000C1EFF0BF1502D2092009079000DE
:10004300C1E0B41526C2097FC87E001228A012267B
:10005300D89000C1EFF060137BFF7A107999E0FF2D
:100063009000E8E4F0A3EFF012127C7F647E0012AC
:1000730028A03098AF1229109000C0EFF07BFF7AD0
:100083001079B49000E8F012127C9000C0E0B445FF
:100093001D1224689000C1EFF060137BFF7A107982
:1000A3005AE0FF9000E8E4F0A3EFF012127C900016
:1000B300C0E024B8700302038924FD700302021F09
:1000C30024FB7003020605240360030200277F3329
:1000D30012209A9000C4EEF0A3EFF0F47002EEF455
:1000E30070030200277BFF7A1079B79000C4E0FF0A
:1000F300A3E09000E8CFF0A3EFF012127C12236D7F
:100103009000C2E0FF9000C06019E075F014A424D1
:100113000DF582E43401F58375F005EF121F2AE033
:10012300FF8010E075F006A4243BF582E43401F56A
:1001330083E0FF9000C3EFF0540F7003020213E05B
:10014300FE547F4490FFEE30E7047DC080027D00C3
:10015300121FA89000C1EFF060030201FA9000C3E0
:10016300E06480F09000C2E0FF601FA3E0FE900017
:10017300C0E075F014A4240DF582E43401F5837511
:10018300F005EF121F2AEEF080189000C3E0FF90F5
:1001930000C0E075F006A4243BF582E43401F58346
:1001A300EFF09000C2E5D1F0E070030203817BFF22
:1001B3007A1079CA12127CE49000C0F09000C2E079
:1001C300FF9000C0E0FEC39F50257BFF7A0E791796
:1001D30074002EF582E43400F583E0FF9000E8E438
:1001E300F0A3EFF012127C9000C0E004F080CD7B0E
:1001F300FF7A0E791E801F9000C1E0FF642A601908
:100203007BFF7A1079D79000E8E4F0A3EFF0800643
:100213007BFF7A1079E912127C0203817F2312207B
:100223009A9000C4EEF0A3EFF0F47002EEF47003C2
:100233000200277BFF7A1179069000C4E0FFA3E058
:100243009000E8CFF0A3EFF012127C12236D900020
:10025300C2E0FF9000C06019E075F014A4240DF50E
:1002630082E43401F58375F005EF121F2AE0FF8065
:1002730010E075F006A4243BF582E43401F583E035
:10028300FF9000C3EFF07BFF7A11791C9000E8F038
:1002930012127C9000C3E0FE540F7003020378EE49
:1002A300547F4490FFEE30E7047DC080027D00124E
:1002B3001FA89000C1EFF0600302035F9000C3E04A
:1002C3006480F09000C2E0FF601FA3E0FE9000C0D6
:1002D300E075F014A4240DF582E43401F58375F080
:1002E30005EF121F2AEEF080189000C3E0FF900084
:1002F300C0E075F006A4243BF582E43401F583EFF6
:10030300F09000C2E5D1F0E060747B017A007900DF
:100313001221877BFF7A11792312127CE49000C0AB
:10032300F09000C2E0FF9000C0E0FEC39F50257B29
:10033300FF7A0E791774002EF582E43400F583E01A
:10034300FF9000E8E4F0A3EFF012127C9000C0E00D
:1003530004F080CD7BFF7A0E791E801F9000C1E0F0
:10036300FF642A60197BFF7A1179339000E8E4F087
:10037300A3EFF080067BFF7A11794812127C7F018C
:100383001228EC0200277F2312209A9000C4EEF07B
:10039300A3EFF0F47002EEF470030204EA7BFF7A39
:1003A3001179069000C4E0FFA3E09000E8CFF0A32A
:1003B300EFF012127C12236D9000C2E0FF9000C098
:1003C3006019E075F014A4240DF582E43401F5837B
:1003D30075F005EF121F2AE0FF8010E075F006A408
:1003E300243BF582E43401F583E0FF9000C3EFF092
:1003F3007BFF7A11791C9000E8F012127C9000C305
:10040300E0FE540F70030204DCEE547F4490FFEED1
:1004130030E7047DC080027D00E4FBFA121FAB903D
:1004230000C1EFF060030204C39000C3E06480F0F6
:100433009000C2E0FF601FA3E0FE9000C0E075F0F3
:1004430014A4240DF582E43401F58375F005EF124D
:100453001F2AEEF080189000C3E0FF9000C0E07503
:10046300F006A4243BF582E43401F583EFF0900019
:10047300C2E5D1F0E0606B7BFF7A11792312127C25
:10048300E49000C0F09000C2E0FF9000C0E0FEC323
:100493009F50257BFF7A0E791774002EF582E43482
:1004A30000F583E0FF9000E8E4F0A3EFF012127C84
:1004B3009000C0E004F080CD7BFF7A0E791E801F90
:1004C3009000C1E0FF642A60197BFF7A11793390B1
:1004D30000E8E4F0A3EFF080067BFF7A117948127D
:1004E300127C7F011228ECE49000C0F09000C0E081
:1004F300FFC394024003020027EF75F006A42437DC
:10050300F582E43401F583E0640360030205FC90A3
:1005130000C0E075F006A4243AF582E43401F583C3
:10052300E0640960030205FCFD1223839000C0E030
:1005330075F006A4243CF582E43401F583E09000D1
:10054300C3F0540F70030205EBE0FE547F4490FFA9
:10055300EE30E7047DC080027D00E4FBFA121FAB9E
:100563009000C1EFF070689000C3E06480F0FE90EB
:1005730000C0E0FF75F006A4243CF582E43401F5E5
:1005830083EEF09000C2E5D1F0E0606D1218D9E47B
:100593009000C0F09000C2E0FF9000C0E0FEC39F57
:1005A30050257BFF7A0E791774002EF582E4340010
:1005B300F583E0FF9000E8E4F0A3EFF012127C90E3
:1005C30000C0E004F080CD7BFF7A0E791E80279077
:1005D30000C1E0FF642A60217BFF7A1179689000F3
:1005E300E8E4F0A3EFF0800E7BFF7A1179789000B6
:1005F300C0E09000E8F012127C9000C0E004F0022A
:1006030004EFE5C130E0030200277E007F807D0018
:100613007B017A007940121F36900040741BF0A3CF
:100623007440F0A3741DF0A37455F0A37442F0A3B7
:100633007402F0A37418F0A3741DF0A37476F0A3EE
:100643007430F0E4A3F0A37430F0E4A3F0A37418BF
:10065300F07F0712209A9000C4EEF0A3EFF0F4703D
:1006630002EEF470030200277BFF7A117998900061
:10067300C4E0FFA3E09000E8CFF0A3EFF012127CF8
:1006830012236D9000C2E0FF9000C06019E075F086
:1006930014A4240DF582E43401F58375F005EF12FB
:1006A3001F2AE0FF8010E075F006A4243BF582E4E6
:1006B3003401F583E0FF9000C3EFF07BFF7A1179FB
:1006C3001C9000E8F012127C9000C3E0FE540F600F
:1006D3007675D740EE547F4410FFEE30E7047DC0BB
:1006E30080027D0074FFFBFA121FAB9000C1EFF094
:1006F300703B9000C3E06480F07E007F807D007BD0
:10070300017A007940121F3675D7409000C3E0FE8E
:10071300547F4410FFEE30E7047DC080027D0074F7
:10072300FFFBFA121FAB9000C1EFF0801A9000C1DB
:10073300E0FF642A60117BFF7A1179AD9000E8E451
:0F074300F0A3EFF012127C7F011228EC020027C6
:030000000222E1F8
:0C22E100787FE4F6D8FD758121022328E7
:101DA400E709F608DFFA8046E709F208DFFA803E21
:101DB40088828C83E709F0A3DFFA8032E309F6080E
:101DC400DFFA8078E309F208DFFA807088828C8376
:101DD400E309F0A3DFFA806489828A83E0A3F6082A
:101DE400DFFA805889828A83E0A3F208DFFA804C04
:101DF40080D280FA80C680D4806980F280338010DB
:101E040080A680EA809A80A880DA80E280CA803343
:101E140089828A83ECFAE493A3C8C582C8CCC583BB
:101E2400CCF0A3C8C582C8CCC583CCDFE9DEE7808B
:101E34000D89828A83E493A3F608DFF9ECFAA9F00A
:101E4400EDFB2289828A83ECFAE0A3C8C582C8CC60
:101E5400C583CCF0A3C8C582C8CCC583CCDFEADE79
:101E6400E880DB89828A83E493A3F208DFF980CCDB
:101E740088F0EF60010E4E60C388F0ED2402B404D4
:101E84000050B9F582EB2402B4040050AF2323457B
:061E94008223901DF4738F
:101E9A00BB010689828A83E0225002E722BBFE0246
:091EAA00E32289828A83E4932279
:101EB300BB010CE58229F582E5833AF583E02250E4
:101EC30006E92582F8E622BBFE06E92582F8E2222E
:0D1ED300E58229F582E5833AF583E4932248
:101EE000BB010989828A83F8E028F022500327F792
:101EF00022BBFE05F8E328F3228A838982F8E49363
:021F0000282295
:101F0200BB010689828A83F0225002F722BBFE01BE
:021F1200F322B8
:101F1400C5F0F8A3E028F0C5F0F8E5821582700258
:061F24001583E038F022F5
:0C1F2A00A42582F582E5F03583F58322C2
:10121100E50924E8F582E43400F583E0050922902C
:1012210000E53007039000E8E475F001121F620247
:101231001E9A2000E97F2ED2008018EF540F2490CF
:10124100D43440D4FF30040BEF24BFB41A00500350
:101251002461FFE50A6002150A050DE50D7002051E
:101261000C30070E9000E5E475F001121F62EF02E9
:101271001F020228217403D2078003E4C207F50983
:101281009000E5121F79E4F50AF50CF50DE50A6009
:10129100077F2012125480F5750BFFC201C200C2F4
:1012A10002C203C205C206C208121220FF700D302D
:1012B10007057F00121265AF0DAE0C22B4255FC287
:1012C100D5C204121220FF24D0B40A00501A75F0BE
:1012D1000A780A30D50508B6FF0106C6A426F6200D
:1012E100D5047002D20380D924CFB41A00EF500480
:1012F100C2E5D204021466D20180C6D20080C0D2F7
:101301000280BCD2D580BAD20580B47F201212549B
:101311002002077401B50A0040F1121211FF1212E6
:101321005402128ED208D2068095121211FB1212AB
:1013310011FA121211F94A4B700679377A157BFFAF
:1013410020022EE50A602A7E008E82758300121E1D
:10135100B360060EEE650B70F0C2D5EBC0E0EAC0DB
:10136100E0E9C0E0EE1214ADD0E0F9D0E0FAD0E04F
:10137100FB121E9AFF60AAEBC0E0EAC0E0E9C0E000
:10138100121254D0E02401F9D0E03400FAD0E0FB8D
:10139100E50B0460DCD50BD980877BFF7A1479A932
:1013A100D202809C791080027908C206C2088008A6
:1013B100D2D5790A8004790AC2D5E50B047002F509
:1013C1000BE4FAFDFEFF121211FC7B08200113123F
:1013D1001211FD7B1030000A121211FE121211FFC0
:1013E1007B20EC3382D592D55013C3E43000069FA5
:1013F100FFE49EFEE42001039DFDE49CFCE4CBF8A8
:10140100C201EC700CCFCECDCCE824F8F870F3809B
:1014110017C3EF33FFEE33FEED33FDEC33FCEB335B
:10142100FB994002FB0FD8E9EB300105F8D0E0C48D
:1014310048B201C0E00AEC4D4E4F78207B0070C2EB
:10144100EAB50B0040BCC0E01214AFD0F0D0E020F0
:101451000104C4C0E0C4B201C0F012123DD0F0D505
:10146100F0EB02128E121F82132B5313A55812FC9C
:101471004C12F84213A94F13B14413B1491311434C
:0814810013B755139B46139BA2
:1014890045139B4715575013002D13042E13272B73
:1014990013082313252015402A12C0480000131FE2
:1014A9003F3F3F00790AA2D5200314300509B9103E
:1014B900020404B9080104A2D5200602500104203F
:1014C90002689202B50A005034C0E07F2030031947
:1014D9007F30A20272067205500F121506C202C2AF
:1014E90006C205C2087F30800F300503E9C0E0124B
:1014F9001254300503D0E0F9D0E0B50ACC30051715
:101509007F30B9100C1212547F583004077F78804D
:1015190003B908031212543002057F2D0212547FB9
:10152900202008F87F2B2006F322920280CF286E14
:10153900756C6C2900D2011212113001F8C20178C0
:101549000A30D50108F60212C02D5043495812122B
:10155900112403B405004001E49015529312124579
:0D156900743A121245D203750A040213A54C
:0A2910003098FDAF99C2987E0022B6
:101F3600EF4E6012EF60010EEDBB010B89828A83C2
:101F4600F0A3DFFCDEFA2289F05007F709DFFCA9CF
:0C1F5600F022BBFEFCF309DFFCA9F02226
:1022ED00020003E493A3F8E493A34003F68001F204
:1022FD0008DFF48029E493A3F85407240CC8C333F2
:10230D00C4540F4420C8834004F456800146F6DFC0
:10231D00E4800B010204081020408090291AE47E0D
:10232D00019360BCA3FF543F30E509541FFEE493B5
:10233D00A360010ECF54C025E060A840B8E493A37C
:10234D00FAE493A3F8E493A3C8C582C8CAC583CAA7
:10235D00F0A3C8C582C8CAC583CADFE9DEE780BE5F
:01291E0000B8
:101F6200F8E0FBA3A3E0F925F0F0E5821582700208
:071F72001583E0FA38F022AC
:091F7900EBF0A3EAF0A3E9F02269
:101F8200D083D082F8E4937012740193700DA3A3EE
:101F920093F8740193F5828883E473740293686002
:061FA200EFA3A3A380DF02
:10282100EFB40A07740D12282C740A309811A89974
:10283100B8130CC2983098FDA899C298B811F63017
:0728410099FDC299F59922EF
:00000001FF
