:030000000217E400
:0C17E400787FE4F6D8FD7581520211FBFD
:10002600596F7572204431322063686970277320D6
:1000360049442069733A20002E20494420697320E0
:10004600636F72726563742120436F6E67726174A9
:10005600756C6174696F6E73210D0A0D0A002E208E
:10006600494420697320696E636F727265637421F7
:10007600205768617420612070697479210D0A0D1A
:100086000A002A2A2A2A2A2A2A2A2A2A2A2A2A2A14
:100096002A2A2A2A2A2A2A2A2A2A2A2A2A2A2A2ABA
:1000A6002A2A2A2A2A2A2A2A2A2A2A2A2A2A2A2AAA
:1000B6002A2A2A2A2A2A2A2A2A2A2A2A2A2A2A2A9A
:1000C6002A2A2A2A2A2A0D0A000000002A2A2A2A6F
:1000D6002A2A2020202020202020202020A1B6C847
:1000E600A6C8A6BDCCC4E3CDE6555342A1B7D6AE4D
:1000F60020B4F8CAF3B1EAB5C4555342BCFCC5CC2A
:10010600202020202020202020202A2A2A2A2A2AAD
:100116000D0A000000002A2A2A2A2A2A2020202046
:1001260020202020202020202020202020202020C9
:100136002020415438395335322043505520202051
:1001460020202020202020202020202020202020A9
:10015600202020202A2A2A2A2A2A0D0A0000000006
:100166002A2A2A2A2A2A202020202020202020204D
:100176002020202020202020BDA8C1A2C8D5C6DA74
:10018600A3BA00000000000000000000000000000C
:100196000000000000000000000000000000000059
:1001A600000000000000000000004E6F762031368F
:1001B600203230303800000000000000000000004F
:1001C6000000000000000000000000000000000029
:1001D6000000000000000000000000000000000019
:1001E6000000000000000000000000000000000009
:1001F6000000000020202020202020202020202079
:1002060020202020202A2A2A2A2A2A0D0A00000035
:1002160000000000000000000000000000000000D8
:1002260000000000000000000000000000000000C8
:1002360000000000000000000000000000002A2A64
:100246002A2A2A2A20202020202020202020202080
:1002560020202020202020BDA8C1A2CAB1BCE4A332
:10026600BA000000000000000000000000000000CE
:100276000000000000000000000000000000000078
:10028600000000000000000031363A30303A3031CC
:100296000000000000000000000000000000000058
:1002A6000000000000000000000000000000000048
:1002B6000000000000000000000000000000000038
:1002C6000000000000000000000000000000000028
:1002D6000000202020202020202020202020202058
:1002E60020202020202A2A2A2A2A2A0D0A00000055
:1002F60000000000000000000000000000000000F8
:1003060000000000000000000000000000000000E7
:100316000000000000000000000000002A2A2A2A2F
:100326002A2A2020202020202020202020202020B3
:10033600202020202020D7F7D5DFA3BAB5E7C4D4E4
:10034600C8A6C8A62020202020202020202020204B
:10035600202020202020202020202A2A2A2A2A2A5B
:100366000D0A000000002A2A2A2A2A2A20202020F4
:100376002020202020202020202020202020202077
:10038600BBB6D3ADB7C3CECAD7F7D5DFB5C4202029
:100396002020202020202020202020202020202057
:1003A600202020202A2A2A2A2A2A0D0A00000000B4
:1003B6002A2A2A2A2A2A20202020202020202020FB
:1003C60020555342D7A8C7F8A3BA687474703A2F59
:1003D6002F67726F75702E65646E6368696E612E25
:1003E600636F6D2F39332F202020202020202A2ACA
:1003F6002A2A2A2A0D0A000000002A2A2A2A2A2A3C
:10040600202020202020424C4F4731A3BA68747424
:10041600703A2F2F7777772E65646E6368696E6101
:100426002E636F6D2F626C6F672F636F6D707574BF
:1004360065723030202020202A2A2A2A2A2A0D0AEC
:10044600000000002A2A2A2A2A2A202020202020EA
:1004560020202020202020202020424C4F4732A35D
:10046600BA687474703A2F2F636F6D707574657205
:1004760030302E323169632E6F72672020202020A3
:1004860020202A2A2A2A2A2A0D0A000000002A2ABF
:100496002A2A2A2A2020202020202020202020202E
:1004A600202020202020C7EBB0B44B312D4B38B78D
:1004B600D6B1F0BDF8D0D0B2E2CAD4202020202098
:1004C6002020202020202020202020202A2A2A2AFE
:1004D6002A2A0D0A000000002A2A2A2A2A2A20206F
:1004E600204B313AB9A6C4DCD1A1D4F1BCFCA3BAE5
:1004F600B0B4CFC2CAB14B327E4B38CEAABCFCC513
:10050600CCA3ACCBC9BFAACAB14B327E4B38CEAA5C
:10051600CAF3B1EA20202A2A2A2A2A2A0D0A00002A
:1005260000002A2A2A2A2A2A2020202020202020C9
:100536002020202020202020202020202020BCFC3D
:10054600C5CCB9A6C4DCCAB120202020202020209A
:100556002020202020202020202020202020202095
:100566002A2A2A2A2A2A0D0A000000002A2A2A2ACA
:100576002A2A202020202020202020202020204B36
:10058600323AD7F35368696674BCFC20204B333A81
:10059600D7F3416C74BCFC20204B343A31BCFC20B0
:1005A600202020202020202020202A2A2A2A2A2A09
:1005B6000D0A000000002A2A2A2A2A2A20202020A2
:1005C6002020204B353A32BCFC20204B363A33BC37
:1005D600FC20204B373A43617073204C6F636BBC31
:1005E600FC204B383A4E756D204C6F636BBCFC207B
:1005F600202020202A2A2A2A2A2A0D0A0000000062
:100606002A2A2A2A2A2A2020D7A2D2E2A3BACAFD57
:10061600D7D6BCFCCAC7CAFDD7D6D0A1BCFCC5CCB0
:10062600A3ACB1D8D0EBB4F2BFAA4E756D204C6F17
:10063600636BB2C5CAC7CAFDD7D6BCFC20202A2A1E
:100646002A2A2A2A0D0A000000002A2A2A2A2A2AE9
:100656002020202020202020202020202020202094
:10066600202020202020CAF3B1EAB9A6C4DCCAB1F2
:100676002020202020202020202020202020202074
:1006860020202020202020202A2A2A2A2A2A0D0A51
:10069600000000002A2A2A2A2A2A20202020204B6D
:1006A600323AB9E2B1EAD7F3D2C620204B333AB98F
:1006B600E2B1EAD3D2D2C620204B343AB9E2B1EA4B
:1006C600C9CFD2C6204B353AB9E2B1EACFC2D2C6BB
:1006D60020202A2A2A2A2A2A0D0A000000002A2A6D
:1006E6002A2A2A2A202020202020202020202020DC
:1006F6004B363ACAF3B1EAD7F3BCFC20204B373A63
:10070600CAF3B1EAD6D0BCFC20204B383ACAF3B1C2
:10071600EAD3D2BCFC202020202020202A2A2A2A04
:100726002A2A0D0A000000002A2A2A2A2A2A2A2A08
:100736002A2A2A2A2A2A2A2A2A2A2A2A2A2A2A2A13
:100746002A2A2A2A2A2A2A2A2A2A2A2A2A2A2A2A03
:100756002A2A2A2A2A2A2A2A2A2A2A2A2A2A2A2AF3
:100766002A2A2A2A2A2A2A2A2A2A2A2A0D0A000074
:0B077600000000000000000000000078
:1012D200780C7C007D007BFF7A0779787E007F099D
:1012E20012104A7F03784EE630E05D750C01E6305D
:1012F200E103430D02784EE630E203430D04784EDB
:10130200E630E307740C2FF876590F784EE630E496
:1013120007740C2FF8765A0F784EE630E507740CF6
:101322002FF8765B0F784EE630E607740C2FF876CE
:10133200390F784EE630E706740C2FF876537B00AF
:101342007A00790C7D09804A750C027850E630E10A
:1013520003750EF67850E630E203750E0A7850E611
:1013620030E303750FF67850E630E403750F0A7820
:101372004EE630E503430D01784EE630E603430DB9
:1013820004784EE630E703430D027B007A00790CC5
:101392007D057F03121446752A01E47852F67850CF
:0113A200F654
:0113A3002227
:1011FB00D2AF12170B121729E4F508E50875F04A60
:10120B00A42488F9740035F0FA7BFF1217720508D5
:10121B00E508C3941840E41217978E098F0A7BFFD9
:10122B007A007926121772AF0AAE09121620E50A58
:10123B00B4120DE509B410087BFF7A00793E8006E5
:10124B007BFF7A0079641217721216EC121746E4C0
:10125B00F52C20B24A7FF41217FC12180B8F0BE5FA
:10126B000B30E70312183FE50B30E6031217D7E5F7
:10127B000B30E003120BBDE50B30E1031217A8E5B1
:10128B000B30E20312165DE50B30E303121785E515
:10129B000B30E403121848E50B30E503121851E547
:1012AB002C60AF784EE630E004C2A78002D2A7E5EF
:1012BB002A709FF53A7852E670057850E660031273
:0712CB0012D2753A01808B7D
:0B1820005389F0438901D2A9D28C2229
:10170B007590FFE4784EF618F67851F6784CF6782B
:0E171B004FF608F67852F6121820753A0122A1
:03000B000215C01B
:1015C000C0E0C0D075D000C000C001758CDC758A49
:1015D00010E53A6042E590F4784CF6794CE77851A2
:1015E00066600B784D760018E67851F68029784DC4
:1015F00006E6C39401402076017851E6784EF6085D
:10160000E6F41856785046F6784EE6F408567852C6
:1016100046F6784EE608F6D001D000D0D0D0E032C1
:1017B900303132333435363738394142434445467E
:10172900C2AF53890F438920759850758DF4758B15
:0D173900F4438780D2ACD28ED29CD2AF2276
:030023000217F0D1
:0C17F000309803C29832C299753B003259
:0A182B008F99753B01E53B70FC222C
:10177200121070FF600C12182B740129F9E43AFA66
:0317820080EE22D4
:0814E1008F1E8E1D8D1C8C1B5B
:1014E900751F09E47B0AFAF9F8AF1EAE1DAD1CACF5
:1014F9001B121169EB2430FF7420251FF8A607AFD2
:101509001EAE1DAD1CAC1BE47B0AFAF9F812116979
:101519008F1E8E1D8D1C8C1B151FC3E51F648094A7
:101529008050C0E4F51F7420251FF8E6B430070584
:101539001FE51FB409F0C3E51F6480948A500E7437
:0D15490020251FF8E6FF12182B051F80E972
:011556002272
:10162000E4F512750C30750D787D057A00EF540FD6
:1016300024B9F582EA3417F583E493FC740C2DF891
:10164000A604EEC4F854F0C868FEEFC4540F48FF77
:0D1650001DBD01D77B007A00790C021772D6
:0A183500753B018F99E53B70FC2222
:10168600AE077F301218357F78121835EEC4540F26
:101696009017B993FF121835EE540F93FF121835B1
:0516A6007F2002183551
:1016AB00B6C1B6CBB5E300BBBAB3E5C7F800D7D626
:1016BB00BDDAA1A30D0A000D0A00D0B4B6CBB5E379
:0116CB00001E
:0C17FC00D2B5C2B68F80D2B67580FF2235
:031808001217FCB8
:08180B00C2B5C2B7AF80D2B72D
:0118130022B2
:101797007FFD121808AD077C0012180BEFFEAF058E
:0117A700221F
:0C181400C2B5C2B68F80D2B67580FF222C
:08000300EF2440FF121808224F
:031864000217FC6C
:05185A007FF20217FC03
:10000E007F011218647FF11217FCE4FF1218647F4F
:04001E00F10217FCD8
:0813A4008F0E8B0F8A108911D6
:1013AC001218647FF01217FC12180B12180B8F1303
:1013BC00E513D39D40028D137BFF7A1679AB121780
:1013CC0072E50EC313FFE4FCFDFE1214E17BFF7A01
:1013DC001679B2121772AF13E4FCFDFE1214E17B06
:1013EC00FF7A1679B9121772E4F512E512C3951348
:1013FC005036C2B7AB0FAA10A911851282758300A3
:10140C00E5801210B6D2B78512827583001210894E
:10141C00FF121686E51204540F70097BFF7A1679B9
:10142C00C2121772051280C3E513540F60097BFFBB
:09143C007A1679C2121772AF137F
:011445002284
:05185F007FFA0217FCF6
:0A1446008F158D168B178A1889196F
:101450001218647FF01217FCE4FF121814AF161272
:1014600018147BFF7A1679C5121772E515C313FF9E
:10147000E4FCFDFE1214E17BFF7A1679B2121772BA
:10148000AF16E4FCFDFE1214E17BFF7A1679B91267
:101490001772E4F51AE51AC39516502DC2B6AB17AC
:1014A000AA18A919851A82758300121089FFF58080
:1014B000D2B6121686E51A04540F70097BFF7A160D
:1014C00079C2121772051A80CCE516540F60097B99
:1014D000FF7A1679C21217727580FF12185FAF1665
:0114E00022E9
:0E17C900AE077FD01217FCEE4480FF0218140A
:10175E00AE077FD81217FCEE60047F018002E4FF13
:04176E001218142217
:10078100B6CFBFAA555342C1ACBDD3A1A30D0A0038
:10079100C1ACBDD3555342A1A30D0A00555342D755
:1007A100DCCFDFB9D2C6F0A1A30D0A00555342D761
:1007B100DCCFDFB8B4CEBBA1A30D0A00555342B6BE
:1007C100CBB5E330CAE4B3F6D6D0B6CFA1A30D0AB8
:1007D10000555342B1EAD7BCCAE4C8EBC7EBC7F333
:1007E100A3BA00BBF1C8A1C5E4D6C3A1A30D0A00F9
:1007F100BBF1C8A1C3E8CAF6B7FBA1AAA1AA00C967
:10080100E8B1B8C3E8CAF6B7FBA1A30D0A00C5E475
:10081100D6C3C3E8CAF6B7FBA1A30D0A00D7D6B762
:10082100FBB4AEC3E8CAF6B7FB0028D3EFD1D44975
:100831004429A1A30D0A0028B3A7C9CCC3E8CAF66D
:1008410029A1A30D0A0028B2FAC6B7C3E8CAF6293E
:10085100A1A30D0A0028B2FAC6B7D0F2C1D0BAC519
:1008610029A1A30D0A0028CEB4D6AAB5C4CBF7D2CC
:10087100FDD6B529A1A30D0A00B1A8B8E6C3E8CAFF
:10088100F6B7FBA1A30D0A00C6E4CBFBC3E8CAF689
:10089100B7FBA3ACC3E8CAF6B7FBB4FAC2EBA3BA81
:1008A100000D0A00BBF1C8A1BDD3BFDAA1A30D0A97
:1008B10000BBF1C8A1D7B4CCACA1A30D0A00CDAC4B
:1008C100B2BDD6A1A1A30D0A00B4EDCEF3A3BACE59
:1008D100B4B6A8D2E5B5C4B1EAD7BCCAE4C8EBC77F
:1008E100EBC7F3A1A30D0A00555342C0E0CAE4C807
:1008F100EBC7EBC7F3A3BA0D0A00555342B3A7C91F
:10090100CCCAE4C8EBC7EBC7F3A3BA0D0A00B4ED38
:10091100CEF3A3BACEB4B6A8D2E5B5C4CAE4C8EB47
:10092100C7EBC7F3A1A30D0A00555342B1EAD7BCE7
:10093100CAE4B3F6C7EBC7F3A3BA00C7E5B3FDCC6E
:10094100D8D0D4A1A30D0A00C9E8D6C3B5D8D6B76B
:10095100A1A3B5D8D6B7CEAAA3BA00C9E8D6C3C554
:10096100E4D6C3A1A30D0A00C9E8D6C3C3E8CAF6F9
:10097100B7FBA1A30D0A00C9E8D6C3CCD8D0D4A136
:10098100A30D0A00C9E8D6C3BDD3BFDAA1A30D0ADE
:1009910000B4EDCEF3A3BACEB4B6A8D2E5B5C4B1D6
:1009A100EAD7BCCAE4B3F6C7EBC7F3A1A30D0A00AB
:1009B100555342C0E0CAE4B3F6C7EBC7F3A3BA008C
:1009C100C9E8D6C3BFD5CFD0A1A30D0A00CEB4D6F6
:1009D100AAC7EBC7F3A1A30D0A00555342B3A7C998
:1009E100CCCAE4B3F6C7EBC7F3A3BA0D0A00B4ED62
:1009F100CEF3A3BACEB4B6A8D2E5B5C4CAE4B3F671
:100A0100C7EBC7F3A1A30D0A00555342B6CBB5E31B
:100A110030CAE4C8EBD6D0B6CFA1A30D0A00555316
:100A210042B6CBB5E331CAE4B3F6D6D0B6CFA1A373
:100A31000D0A00555342B6CBB5E331CAE4C8EBD633
:100A4100D0B6CFA1A30D0A00555342B6CBB5E332C0
:100A5100CAE4B3F6D6D0B6CFA1A30D0A00555342CE
:100A6100B6CBB5E332CAE4C8EBD6D0B6CFA1A30D5D
:100A71000A00120110010000001088880300000123
:100A81000102030105010906A1018501050719E01C
:100A910029E7150025019508750181029501750861
:100AA100810395067508150025FF050719002965BD
:100AB1008100250195057501050819012905910296
:100AC100950175039103C005010902A10185020980
:100AD10001A10005091901290315002501950375D7
:100AE100018102950175058103050109300931096B
:100AF100381581257F750895038106C0C009022933
:100B01000001010080320904000002030101000913
:100B110021100121012279000705810310000A0734
:100B210005010310000A04030904520335751181FC
:100B3100085708578476550053004200134E3A5324
:100B4100200048007400740070003A002F002F004C
:100B5100670072006F00750070002E006500640070
:100B61006E006300680069006E0061002E00630082
:100B71006F006D002F00390033002F002A030A3067
:100B8100085708575965604FA97355005300420033
:100B91000B304B4E265E209F07688476550053002C
:100BA10042002E95D876160332003000300038000E
:0C0BB1002D00300037002D003100350011
:1016CC00E4FDFCC3ED9FEC9E5015E4FBFA0BBB0054
:0F16DC00010AEB64E34A70F50DBD00010C80E4D8
:0116EB0022DC
:1016EC007BFF7A0779811217727FF31217FC7F0642
:0F16FC001218147F471218147FE87E030216CCD1
:101746007BFF7A0779911217727FF31217FC7F16C7
:081756001218147F4702181459
:09183F007BFF7A07799D02177204
:0D17D7007BFF7A0779AD121772E4F52A2224
:10155700900A7AE493FDFFD3E5319FE5309400408C
:1015670029AB36AA37A9387F01121446900A7AE4C4
:1015770093FF7E00C3E5319FF531E5309EF530EFEF
:101587002538F538EE3537F53722E5314530601324
:10159700AD31AB36AA37A9387F01121446E4F530CE
:1015A700F53122E539B40110AB36AA37A938E4FD85
:0915B7007F01121446E4F539220B
:100BBD007BFF7A0779BD121772E4FF120003EF2055
:100BCD00E503020F697B007A00793C7D10E4FF128A
:100BDD0013A412000E12185A783CE6F52F08E6F50C
:100BED002B783FE6FE18E67C002400F535EC3EF54B
:100BFD00347841E6FE18E62400F533EC3EF5327804
:100C0D0043E6FE18E62400F52EEC3EF52DE52F20EB
:100C1D00E703020E82C4135403147003020E67140B
:100C2D007003020E7024026003020E797BFF7A07B7
:100C3D0079D2121772E52B7003020E4C24FA601E46
:100C4D0024FC7003020E4324FE7003020E5524048F
:100C5D006003020E5E7BFF7A0779E4020F667BFF6D
:100C6D007A0779F1121772E53424FE605D14700372
:100C7D00020D2F24E17003020DE724216003020E03
:100C8D002B7BFF7A0879001217727536FF75370ABC
:100C9D00753873900A73E493FF7E00D3E52E9FE5BC
:100CAD002D9E401D8E308F31900A7AE493FD7C008D
:100CBD00AE30AF311210D8ED4C7064753901020FA2
:100CCD004D852D30852E31020F4D7BFF7A08790F22
:100CDD001217727536FF75370A7538FE900B01E4E1
:100CED0093753000F531E531FE900B00E4937C00F7
:100CFD002400F531EC3EF530D3E52E9531E52D95FB
:100D0D00304016900A7AE493FDAE30AF311210D810
:100D1D00ED4C700B7539018006852D30852E310215
:100D2D000F4D7BFF7A08791E121772E5351460217D
:100D3D00146035146049240370637BFF7A08792BA6
:100D4D001217727536FF75370B753827900B278084
:100D5D00437BFF7A0879381217727536FF75370B9A
:100D6D0075382B900B2B802C7BFF7A087947121747
:100D7D00727536FF75370B75387D900B7D80157B41
:100D8D00FF7A0879561217727536FF75370B75385D
:100D9D00A7900BA7E493753000F53180117BFF7A96
:100DAD00087967121772E4F530F531753901D3E51D
:100DBD002E9531E52D95304018900A7AE493FD7CFF
:100DCD0000AE30AF311210D8ED4C700B753901807B
:100DDD0006852D30852E31020F4D7BFF7A08797AED
:100DED001217727536FF75370A75388575300075AF
:100DFD003179D3E52E9531E52D95304018900A7A4D
:100E0D00E493FD7C00AE30AF311210D8ED4C700B79
:100E1D007539018006852D30852E31020F4D7BFFF2
:100E2D007A087989121772E534FF1216867BFF7ADC
:100E3D000879A2020F667BFF7A0879A5020F667BFF
:100E4D00FF7A0879B2020F667BFF7A0879BF020F2D
:100E5D00667BFF7A0879CA020F667BFF7A0879E90B
:100E6D00020F667BFF7A0879FB020F667BFF7A091A
:100E7D00790F020F66E52FC4135403147003020F8C
:100E8D002D147003020F5824026003020F607BFFC4
:100E9D007A09792A121772E52B24FD606B24FE6006
:100EAD001924FE605B24FE603B24FE6063240A70FF
:100EBD00677BFF7A09793C020F667BFF7A097949D6
:100ECD00121772AF35E5351216867BFF7A0879A2B7
:100EDD00121772AF35E5351217C9E4F530F53175D6
:100EED003901805C7BFF7A09795C121772E535F563
:100EFD002CAF2C12175EE4F530F5317539018040B9
:100F0D007BFF7A09796980517BFF7A09797880496D
:100F1D007BFF7A09798580417BFF7A097992803947
:100F2D007BFF7A0979B1121772E52B24F670147BC9
:100F3D00FF7A0979C1121772E4F530F5317539016F
:100F4D000215577BFF7A0979CE800E7BFF7A0979DE
:100F5D00DB80067BFF7A0979EF0217727B007A003E
:0D0F6D00793C7D10E4FF1213A412185A22E3
:1017A8007BFF7A0A790A1217727F01120003021569
:0117B80057D9
:10165D007BFF7A0A791F1217727F021200037B003B
:10166D007A00790C7D027F021213A412185AE50C30
:08167D00B40105E50DF4F5A030
:011685002242
:101785007BFF7A0A79341217727F03120003E4F59E
:021795002A2206
:091848007BFF7A0A79490217724C
:091851007BFF7A0A795E0217722E
:100F7A00E709F608DFFA8046E709F208DFFA803E59
:100F8A0088828C83E709F0A3DFFA8032E309F60846
:100F9A00DFFA8078E309F208DFFA807088828C83AE
:100FAA00E309F0A3DFFA806489828A83E0A3F60862
:100FBA00DFFA805889828A83E0A3F208DFFA804C3C
:100FCA0080D280FA80C680D4806980F28033801013
:100FDA0080A680EA809A80A880DA80E280CA80337C
:100FEA0089828A83ECFAE493A3C8C582C8CCC583F4
:100FFA00CCF0A3C8C582C8CCC583CCDFE9DEE780C4
:10100A000D89828A83E493A3F608DFF9ECFAA9F042
:10101A00EDFB2289828A83ECFAE0A3C8C582C8CC98
:10102A00C583CCF0A3C8C582C8CCC583CCDFEADEB1
:10103A00E880DB89828A83E493A3F208DFF980CC13
:10104A0088F0EF60010E4E60C388F0ED2402B4040C
:10105A000050B9F582EB2402B4040050AF232345B3
:06106A008223900FCA73FF
:10107000BB010689828A83E0225002E722BBFE027E
:09108000E32289828A83E49322B1
:10108900BB010CE58229F582E5833AF583E022501C
:1010990006E92582F8E622BBFE06E92582F8E22266
:0D10A900E58229F582E5833AF583E4932280
:1010B600F8BB010DE58229F582E5833AF583E8F070
:1010C600225006E92582C8F622BBFE05E92582C81C
:0210D600F22204
:1010D800BC000BBE0029EF8DF084FFADF022E4CCFC
:1010E800F875F008EF2FFFEE33FEEC33FCEE9DECC5
:1010F800984005FCEE9DFE0FD5F0E9E4CEFD22ED0B
:10110800F8F5F0EE8420D21CFEADF075F008EF2F54
:10111800FFED33FD4007985006D5F0F222C398FD45
:051128000FD5F0EA22E2
:10112D0075F008758200EF2FFFEE33FECD33CDCC79
:10113D0033CCC58233C5829BED9AEC99E5829840FC
:10114D000CF582EE9BFEED9AFDEC99FC0FD5F0D6D9
:10115D00E4CEFBE4CDFAE4CCF9A88222B800C1B903
:10116D000059BA002DEC8BF084CFCECDFCE5F0CB41
:10117D00F97818EF2FFFEE33FEED33FDEC33FCEB7A
:10118D0033FB10D703994004EB99FB0FD8E5E4F935
:10119D00FA227818EF2FFFEE33FEED33FDEC33FC22
:1011AD00C933C910D7059BE99A4007EC9BFCE99A16
:1011BD00F90FD8E0E4C9FAE4CCFB2275F010EF2F5B
:1011CD00FFEE33FEED33FDCC33CCC833C810D7075B
:1011DD009BEC9AE899400AED9BFDEC9AFCE899F896
:0E11ED000FD5F0DAE4CDFBE4CCFAE4C8F92229
:00000001FF
