:0300000002070BE9
:0C070B00787FE4F6D8FD7581C10207522A
:10088100C2AC853023E5237003D2AC22E523252EAB
:10089100FFE433FED3EF9440EE648094804006740D
:1008A10040952EF523C3E5309523F530D2AC747213
:1008B100252EF9E4FAFBAD237F051208DCE523259B
:1008C1002EF52EC394404003E4F52E7F05120AAEA7
:0A08D100EF5460FFBF6003750901DA
:0108DB0022FA
:10079700D2AF1209B01209E38E208F211209CD12B0
:1007A7000A2FE4F50B20B24A7FF4120A59120A50B5
:1007B7008F22E52230E703120AC2E52230E6031250
:1007C7000A1FE52230E003120026E52230E103127A
:1007D7000A97E52230E203120A9FE52230E303126B
:1007E7000A85E52230E403120987E52230E5031282
:1007F7000A8EE50B60AFE5097003120881E52F60EB
:10080700A47432252CF8E6FF120A71052C152F80E7
:01081700944C
:10064C008F2B8E2A8D298C287F007E847D037C0045
:10065C00AB2BAA2AA929A828D312041C505CE47F2E
:10066C0020FEFDFCA8281202FFA804A905AA06ABCF
:10067C00077F007E807D517C0112038AEFF404F524
:10068C00CAE47F20FEFDFCAB2BAA2AA929A82812BC
:10069C0002FFA804A905AA06AB077F007E807D5146
:1006AC007C0112038AC3E49FFFE49EFE74019DFD4E
:1006BC00E49CFC780812042D8FCBAFCBE4FCFDFE40
:1006CC007808120440A804A905AA06AB07AFCAE42F
:1006DC00FCFDFEEB2FFBEE3AFAED39F9EC38F8C3E2
:1006EC00E49BFBE49AFA740199F9E498F87F007E94
:0F06FC008C7D0A12038A8F2B8E2A8D298C28223F
:1009B000C2AF7598507F807E257D007C0012064C6A
:0D09C00075C834D2ACD29CD2AFE4F5312220
:0300230002095679
:10095600C0E0C0D075D000C000309819C29874723B
:10096600252DF8A699052DE52DC394404003752D38
:100976000005308005C299753100D000D0D0D0E096
:01098600323E
:0A0A71008F99753101E53170FC2208
:0C0A5900D2B5C2B68F80D2B67580FF22E5
:040A4C00FF120A5932
:080A5000C2B5C2B7AF80D2B7F6
:010A5800227B
:1009E3007FFD120A59120A50AD077C00120A50EF1C
:0309F300FEAF054F
:0109F60022DE
:0C0A6500C2B5C2B68F80D2B67580FF22E9
:070AA700EF2440120A4C226B
:030ABF00020A59CF
:050AB5007FF2020A5966
:1009F7007F01120ABF7FF1120A59E4FF120ABF7F73
:040A0700F1020A5995
:06091C008B288A29892ABC
:10092200120ABF7FF0120A59120A50120A50EFD36C
:100932009D4002AF05E4FEEEC39F5017C2B7AB283D
:10094200AA29A92A8E82758300E580120288D2B76D
:030952000E80E430
:01095500227F
:050ABA007FFA020A5959
:0808DC008B288A29892AAE0548
:1008E400120ABF7FF0120A59E4FF120A65AF06121A
:1008F4000A65FFEFC39E5017C2B6AB28AA29A92ADE
:100904008F8275830012025BF580D2B60F80E47586
:0709140080FF120ABAAF06D2
:01091B0022B9
:0E0A3E00AE077FD0120A59EE4480FF020A650F
:100A0B00AE077FD8120A59EE60047F018002E4FF23
:040A1B00120A652234
:070AAE00EF2480120A4C2224
:100565001201100102000010888807000001010235
:100575000301090243000201008032090400000161
:1005850002020100052400100105240100000424D5
:10059500020205240600010705810310000A09046B
:1005A5000100020A0000000705820240000007055D
:1005B5000202400000040309045203357511810845
:1005C5005708578476550053004200134E3A53207E
:1005D5000048007400740070003A002F002F006777
:1005E5000072006F00750070002E00650064006EDB
:1005F500006300680069006E0061002E0063006FF3
:10060500006D002F00390033002F0026030A300843
:100615005708575965604FA9735500530042000BA1
:10062500304B4E20005500530042006C8F324EE394
:1006350053160332003000300038002D00300038EA
:07064500002D00300033001E
:090A7B00070E80250000000008B0
:10000300E4FDFCC3ED9FEC9E5015E4FBFA0BBB0033
:0F001300010AEB64E34A70F50DBD00010C80E4B7
:0100220022BB
:1009CD007FF3120A597F06120A657F47120A657F67
:0609DD00E87E03020003A6
:0F0A2F007FF3120A597F16120A657F47020A6584
:010AC2002211
:100A1F00E4F508F509F52EF52DF530F52FF52C2217
:1008180090056CE493FDFFD3E5179FE5169400401F
:1008280029AB1CAA1DA91E7F011208DC90056CE4E7
:1008380093FF7E00C3E5179FF517E5169EF516EFA3
:10084800251EF51EEE351DF51D22E517451660130C
:10085800AD17AB1CAA1DA91E7F011208DCE4F51612
:10086800F51722E51FB40110AB1CAA1DA91EE4FD53
:090878007F011208DCE4F51F22E7
:10045300E51564216003020554E50A642060030284
:0204630005543E
:10046500FB7A00790E7D07FF12091C8F27120AB54A
:10047500E52764076003020547851126F525F52460
:10048500F523AF26AE25AD24AC237808120440A889
:1004950004A905AA06AB07E4FCFDFEEB2510F5262D
:1004A500EE3AF525ED39F524EC38F523AF26AE25E2
:1004B500AD24FC7808120440A804A905AA06AB07D8
:1004C500E4FCFDFEEB250FF526EE3AF525ED39F5B5
:1004D50024EC38F523AF26AE25AD24FC78081204AC
:1004E50040A804A905AA06AB07E4FCFDFEEB250E12
:1004F500F526EE3AF525ED39F524EC38F523AF264A
:10050500AE25AD24FC12064C8F268E258D248C231A
:10051500E48F0E780812042DE48F0FAF26AE25ADBB
:1005250024AC23781012042DE48F10AF26AE25AD30
:1005350024AC23781812042DE48F11F512F51375E8
:0F05450014087B007A007900E4FD7F010208DCD6
:100554007B007A0079B27D10E4FF12091C120AB5FF
:010564002274
:10002600E4FF120AA7EF20E5030202577B007A00DD
:1000360079B27D10E4FF12091C1209F7120AB5788D
:10004600B2E6F51508E6F50A78B5E6FE18E67C0090
:100056002400F51BEC3EF51A78B7E6FE18E62400F8
:10006600F519EC3EF51878B9E6FE18E62400F50D0C
:10007600EC3EF50CE51520E70302020CC41354030D
:100086001470030201BF04600302025AE50A24FA4F
:10009600600302025AE51A24FE604D147003020141
:1000A6003D2402600302025A751CFF751D05751E6C
:1000B60065900565E493FF7E00D3E50D9FE50C9EF4
:1000C600401D8E168F1790056CE493FD7C00AE16CE
:1000D600AF171202AAED4C705B751F010202548520
:1000E6000C16850D17020254751CFF751D05751E2D
:1000F6007790057AE493751600F517E517FE9005D7
:1001060079E4937C002400F517EC3EF516D3E50D53
:100116009517E50C9516401690056CE493FDAE1602
:10012600AF171202AAED4C700B751F018006850CE5
:1001360016850D17020254E51B146018146023146B
:10014600602E2403703F751CFF751D05751EBA9041
:1001560005BA8028751CFF751D05751EBE9005BE67
:10016600801A751CFF751D06751E10900610800CF2
:10017600751CFF751D06751E36900636E4937516BA
:1001860000F5178008E4F516F517751F01D3E50D80
:100196009517E50C9516401890056CE493FD7C00C8
:1001A600AE16AF171202AAED4C700B751F01800632
:1001B600850C16850D17020254E50A24E060141416
:1001C6007011751600751707751C00751D00751ED4
:1001D6000E8008E4F516F517751F01D3E50D951782
:1001E600E50C9516401890056CE493FD7C00AE1660
:1001F600AF171202AAED4C700B751F018006850C15
:1002060016850D178048E515C41354031460310490
:100216007042E50A24F7601524047038AF1BE51B0D
:10022600120A3EE4F516F517751F018021E51BF548
:100236000BAF0B120A0BE4F516F517751F01800EAE
:10024600E50A24DE700EE4F516F517751F0102089F
:05025600181204532200
:080A97007F01120AA7020818F2
:080A9F007F02120AA7020AB54A
:090A85007F03120AA7E4F5082220
:10098700E52F70247B007A0079327D407F041209BD
:100997001C8F2F120AB5E4F52C7F04120AAEEF5410
:0909A7006070057F04120AA7220A
:090A8E007F05120AA7E4F5092214
:10071700020797E493A3F8E493A34003F68001F25A
:1007270008DFF48029E493A3F85407240CC8C333E3
:10073700C4540F4420C8834004F456800146F6DFB2
:10074700E4800B0102040810204080900A7BE47EBD
:10075700019360BCA3FF543F30E509541FFEE493A7
:10076700A360010ECF54C025E060A840B8E493A36E
:10077700FAE493A3F8E493A3C8C582C8CAC583CA99
:10078700F0A3C8C582C8CAC583CADFE9DEE780BE51
:010A84000071
:10025B00BB010CE58229F582E5833AF583E0225058
:10026B0006E92582F8E622BBFE06E92582F8E222A2
:0D027B00E58229F582E5833AF583E49322BC
:10028800F8BB010DE58229F582E5833AF583E8F0AC
:10029800225006E92582C8F622BBFE05E92582C858
:0202A800F22240
:1002AA00BC000BBE0029EF8DF084FFADF022E4CC38
:1002BA00F875F008EF2FFFEE33FEEC33FCEE9DEC01
:1002CA00984005FCEE9DFE0FD5F0E9E4CEFD22ED47
:1002DA00F8F5F0EE8420D21CFEADF075F008EF2F91
:1002EA00FFED33FD4007985006D5F0F222C398FD82
:0502FA000FD5F0EA221F
:1002FF00E88FF0A4CC8BF0A42CFCE98EF0A42CFC9E
:10030F008AF0EDA42CFCEA8EF0A4CDA8F08BF0A41B
:10031F002DCC3825F0FDE98FF0A42CCD35F0FCEB7A
:10032F008EF0A4FEA9F0EB8FF0A4CFC5F02ECD393F
:0F033F00FEE43CFCEAA42DCE35F0FDE43CFC22AC
:10034E0075F008758200EF2FFFEE33FECD33CDCC66
:10035E0033CCC58233C5829BED9AEC99E5829840E9
:10036E000CF582EE9BFEED9AFDEC99FC0FD5F0D6C6
:10037E00E4CEFBE4CDFAE4CCF9A88222B800C1B9F0
:10038E000059BA002DEC8BF084CFCECDFCE5F0CB2E
:10039E00F97818EF2FFFEE33FEED33FDEC33FCEB67
:1003AE0033FB10D703994004EB99FB0FD8E5E4F922
:1003BE00FA227818EF2FFFEE33FEED33FDEC33FC0F
:1003CE00C933C910D7059BE99A4007EC9BFCE99A03
:1003DE00F90FD8E0E4C9FAE4CCFB2275F010EF2F48
:1003EE00FFEE33FEED33FDCC33CCC833C810D70748
:1003FE009BEC9AE899400AED9BFDEC9AFCE899F883
:0E040E000FD5F0DAE4CDFBE4CCFAE4C8F92215
:10041C00EB9FF5F0EA9E42F0E99D42F0E89C45F036
:01042C0022AD
:10042D00E8600FECC313FCED13FDEE13FEEF13FFAD
:03043D00D8F122D1
:10044000E8600FEFC333FFEE33FEED33FDEC33FC1A
:03045000D8F122BE
:00000001FF
