:0200A9008F0BBB
:1000AB007F2B1200D4AF0B120102E4F50CC3E50B4E
:1000BB006480F8E50C648098500E740D250CF8E6FE
:0800CB00FF120102050C80E5A3
:0100D300220A
:03000300020006F2
:0D000600C0E0C0F0C083C082C0D075D00043
:100013007F221200D41200EFEF24F6604824087008
:10002300447F281200D41200EF8F09750800E508F9
:10003300C39509500E1200EF740D2508F8A60705A5
:100043000880EB7F2B1200D4AF0912010275080060
:10005300E508C395095013740D2508F8E6FF12014E
:0A00630002050880EB7F231200D491
:0B006D00D0D0D082D083D0F0D0E032A1
:100078001201127F061200D47F01120102750AFED6
:100088001200EFEFB50A05850A908003E4F5907F2A
:10009800151200D47F02120102C288D2A8D2AF8002
:0100A800FE59
:06012B00E4FF0FBF02FC1F
:0101310022AB
:0C011200E4FFE4FE0EBEFAFC0FBFC8F6CE
:01011E0022BE
:1000D400AE0712012B8E80D2B7D2B4C2B3C2B5D24E
:0B00E400B5D2B3C2B77580FF02012B3C
:100102008F80C2B7C2B3C2B5D2B5D2B37580FF2257
:1000EF007580FFC2B7C2B3C2B4AF80D2B4D2B375FA
:0200FF0080FF80
:0101010022DB
:0300000002011FDB
:0C011F00787FE4F6D8FD75818C02007832
:00000001FF
